:100000000C9409010C9448210C9421210C94310189
:100010000C9431010C9431010C94A9220C943101FF
:100020000C9431010C9431010C9431010C94310188
:100030000C9431010C9431010C9431010C94310178
:100040000C94CB200C9431010C94BC1F0C94961F83
:100050000C9431010C9431010C9431010C94310158
:100060000C9431010C9431013B1525151815981588
:10007000731552153B152515181508000000BE9282
:100080002449123EABAAAA2ABECDCCCC4C3E0000DD
:100090000080BEABAAAAAA3E00000000BF0000007C
:1000A000803F0000000000084178D3BB4387D11394
:1000B0003D190E3CC3BD4282AD2B3E68EC8276BE3C
:1000C000D98FE1A93E4C80EFFFBE01C4FF7F3F0006
:1000D00000000000000000000000005F000000447D
:1000E0007D40007F102844007C04780478FC1824AC
:1000F000241836495620507F0804047863140814E5
:10010000633F4040403F2A1C7F1C2A3F4038403F0D
:1001100000807030000808080808000060600020B7
:10012000100804023E5149453E00427F400072499A
:100130004949462141494D331814127F102745453E
:1001400045393C4A49493141211109073649494954
:1001500036464949291E1F2040201F03017F010305
:1001600026494949327F091929467F090909067F2D
:100170000408107F7F021C027F7C1211127C3E411A
:1001800041413E3E414141227F4141413E7F4949FB
:1001900049417F090909013E414151737F0808081F
:1001A0007F00417F410004020102047F08142241C4
:1001B0007F404040400000000800020100000304AE
:1001C00007000000000000000000000000240027DD
:1001D000002A0000000000250028002B000000007D
:1001E000002300260029000404040404040404027B
:1001F00002020202020303030303030102040810C4
:100200002040800102040810200102040810200090
:10021000B42411241FBECFEFD8E0DEBFCDBF13E062
:10022000A0E0B1E0E4E2F3E502C005900D92AA3748
:10023000B107D9F725E0AAE7B3E001C01D92A435C4
:10024000B207E1F711E0C9E0D1E004C02197FE0157
:100250000E948529C830D107C9F70E94EB220C946F
:1002600090290C9400000F931F93CF93DF93DC0130
:1002700055968C915597823071F0833009F1813019
:1002800009F08CC01496ED91FC911597E41BF50BC9
:10029000E21BF30B20C01496ED91FC911597CF0152
:1002A000861B970BBC01615071091696ED91FC916C
:1002B0001797CF01841B950BAC01421B530B6EC0EB
:1002C0001696ED91FC911797CF01861B970BBC01F9
:1002D00061507109FA0177FD1BC116968D919C91B1
:1002E0001797681779070CF013C1F7FF04C02E0F9A
:1002F0003F1FE0E0F0E014968D919C911597AF01BF
:10030000420F531F841795071CF49C012E1B3F0BB3
:10031000121613060CF0FCC0CB0177FD079643E0E4
:10032000959587954A95E1F79695982F8827979503
:100330008795E80FF91FE65FFE4F6770772781E02A
:1003400090E001C0880F6A95EAF7482F0130110547
:1003500041F088F00230110509F0DAC02E0F3F1F7E
:1003600015C02E0F3F1FE217F30709F4D1C080819B
:10037000842B8193F8CF80952E0F3F1FE217F30750
:1003800009F4C6C0908198239193F8CFE217F30740
:1003900009F4BEC0808184278193F8CF77FDB8C06F
:1003A00014968D919C911597681779070CF0B0C041
:1003B00057FF04C0240F351F40E050E016968D9182
:1003C0009C911797FA01E20FF31F8E179F071CF4F9
:1003D0009C01241B350B121613060CF099C0A22F9A
:1003E000842F86958695869590E8899F600D711D6E
:1003F0001124FB01E65FFE4F4770A9F198E0941BC2
:10040000492F50E0EA01CE5EDC4F8881291790F435
:10041000421B51092FEF30E002C0359527954A95D0
:10042000E2F782230130110541F068F00230110536
:1004300089F06EC00130110519F42081822B0CC0A7
:100440000130110520F480952081822305C00230FF
:10045000110531F4208182278083A91708F458C040
:10046000A91BE058FF4FA83048F10230110559F49C
:10047000EF018A2F988190959883C058DF4F88505C
:100480008830C0F730C081E00130110509F080E00C
:100490008195EF019A2F8883C058DF4F985098308C
:1004A000D0F788EF8A0F86958695869590E8899F84
:1004B000E00DF11D1124E058FF4FA770AA2341F170
:1004C000B0E0A65FBC4F8C910130110529F038F0E7
:1004D00002301105D1F01CC09081892B18C0809585
:1004E0009081892314C088EF8A0F8695869586951A
:1004F00090E8899FE00DF11D1124E058FF4FA7708F
:1005000039F0B0E0A65FBC4F8C9190818927808341
:10051000DF91CF911F910F9108950F931F93CF9368
:10052000DF93DC01FB0155968C915597823081F069
:10053000833019F1813051F514968D919C91159766
:10054000BC01641B750BAB0141505109BF0181C057
:1005500014966D917C911597CB018E1B9F0BFC011E
:1005600016968D919C911797BC01641B750BAB017E
:1005700041505109E21BF30B09C016966D917C9115
:1005800017976E1B7F0B621B730B63C057FD1CC15B
:1005900016968D919C911797481759070CF014C126
:1005A000F7FF04C02E0F3F1FE0E0F0E014968D919E
:1005B0009C911597BF01620F731F861797071CF454
:1005C0009C012E1B3F0B121613060CF0FDC0CA0136
:1005D00057FD079663E0959587956A95E1F796959F
:1005E000982F882797958795E80FF91FE65FFE4FAC
:1005F0004770552781E090E001C0880F4A95EAF7DF
:10060000482F0130110541F088F00230110509F042
:10061000DBC02E0F3F1F15C02E0F3F1FE217F30741
:1006200009F4D2C08081842B8193F8CF80952E0F5E
:100630003F1FE217F30709F4C7C0908198239193F5
:10064000F8CFE217F30709F4BFC0808184278193B4
:10065000F8CF57FDB9C014968D919C911597481706
:1006600059070CF0B1C077FF04C0260F371F60E0B8
:1006700070E016968D919C911797FB01E20FF31F86
:100680008E179F071CF49C01261B370B12161306AE
:100690000CF09AC0A22F862F86958695869590E8B5
:1006A000899F400D511D1124FA01E65FFE4F6770CE
:1006B000A9F198E0961B492F50E0EA01CE5EDC4F8D
:1006C0008881291790F4421B51092FEF30E002C0B6
:1006D000359527954A95E2F782230130110541F0BF
:1006E00068F00230110589F06FC00130110519F46E
:1006F0002081822B0CC00130110520F480952081CF
:10070000822305C00230110531F4208182278083C5
:10071000A91708F459C0A91BE058FF4FA83048F1A9
:100720000230110559F4EF018A2F98819095988332
:10073000C058DF4F88508830C0F731C081E00130A9
:10074000110509F080E08195EF019A2F8883C05848
:10075000DF4F98509830D0F788EF8A0F86958695AE
:10076000869560E8869FE00DF11D1124E058FF4F4B
:10077000A770AA2349F1B0E0A65FBC4F8C9101306D
:10078000110529F038F002301105D9F01DC0908113
:10079000892B03C0809590818923808315C088EFC1
:1007A0008A0F86958695869570E8879FE00DF11DE6
:1007B0001124E058FF4FA77039F0B0E0A65FBC4F9E
:1007C0008C9190818927E9CFDF91CF911F910F9173
:1007D0000895FC0177FD9AC0808591856817790797
:1007E0000CF094C057FD92C0828593854817590735
:1007F0000CF08CC08589823009F07CC084819581A1
:10080000DC01A61BB70BBD01615071098681978180
:10081000FC01E41BF50BAF01415051090AC08130C6
:1008200041F484819581841B950BAB01BC0161501F
:1008300071092130310529F008F122303105E1F14B
:100840000895FA0157FD3796A3E0F595E795AA9527
:10085000E1F7F695FE2FEE27F795E7956E0F7F1FD0
:10086000FB01E65FFE4F4770552781E090E001C035
:10087000880F4A95EAF79081892B3AC0FA0157FD13
:10088000379623E0F595E7952A95E1F7F695FE2F43
:10089000EE27F795E7956E0F7F1FFB01E65FFE4F92
:1008A0004770552781E090E001C0880F4A95EAF72C
:1008B0008095908189231CC0FA0157FD379683E00B
:1008C000F595E7958A95E1F7F695FE2FEE27F795D2
:1008D000E7956E0F7F1FFB01E65FFE4F47705527C0
:1008E00081E090E001C0880F4A95EAF7908189275E
:1008F00080830895833009F092CF86819781861B8B
:10090000970BBA01AC014150510993CF0895089556
:10091000FC016370658B848195812681378161300C
:1009200039F0633029F091878087338722870895D3
:10093000318720879387828708952F923F924F9225
:100940005F926F927F928F929F92AF92BF92CF925F
:10095000DF92EF92FF920F931F93CF93DF93CDB768
:10096000DEB76B970FB6F894DEBF0FBECDBF9B8F7F
:100970008A8F1B012A0118870F83FE82ED82CA82AB
:10098000DC0158964D915C9159974115510509F03C
:10099000B7C018968D919C911997681779070CF03C
:1009A0009BC11A968D919C911B97481659060CF085
:1009B00093C1AC2CB12CCB01B6E0CB9E800D911D28
:1009C0001124181619060CF087C1C50133E0880FF1
:1009D000991F3A95E1F7840D951D181619060CF02C
:1009E0007BC1AA8DBB8D57968C91811103C0203B92
:1009F00008F02F5FAA8DBB8DED91FC9111970284B9
:100A0000F385E02DCD01298F0995298D30E0205205
:100A1000310945E0429FC001439F900D11246101BF
:100A200041011B82FC01E219F309FA87E98792016F
:100A3000285F3F4F3C872B873B81353049F0E98564
:100A4000FA85E80DF91DEC52FF4F4491498301C02E
:100A5000198232011201598150FF13C0AA8DBB8D3A
:100A6000ED91FC91BA81B13031F40484F585E02D2B
:100A70002F81388519C00684F785E02DEF80F88432
:100A80001EC0ED81FE812F813885E217F307F1F05A
:100A9000AA8DBB8DED91FC91BA81B13059F40484DB
:100AA000F585E02D2D813E81A301B4018A8D9B8DBA
:100AB00009950CC00684F785E02DED80FE80850148
:100AC0009501A101B6018A8D9B8D0995E981E69575
:100AD000E983FFEF6F1A7F0A2A0C3B1C2B853C85AC
:100AE0006216730609F0B7CF3B813F5F3B834FEF40
:100AF000841A940ACA0CDB1C363009F09DCFCAC098
:100B0000FA0134969491329765917491291BCB0127
:100B1000B7E02B9F800D911D1124FA01259134918E
:100B2000398B288BFC0165907490FC0132963491CE
:100B30003D83319644914D873296C49031961491FD
:100B40005A81523058F08C2C0C2C000C9908812FB3
:100B5000012E000C990B9C838B8304C01C821B828A
:100B6000812C912CAA8DBB8DED91FC911197028463
:100B7000F385E02DCD010995BA81AB2EB12C8A9C6D
:100B8000C0018B9C900D9A9C900D1124FC01E20DEC
:100B9000F31DFC87EB871982912C812CEC2DCC0C5A
:100BA000FF0B91012E0F3F1F3A87298761013D817D
:100BB000C30ED11CA6014E0F5F1F5E8B4D8BC20171
:100BC000810F911D17FD9A95988F8F8B5D858516E6
:100BD00008F060C0882D90E04B815C81480F591F60
:100BE0004A9D90014B9D300D5A9D300D1124D90125
:100BF000A40DB51DBF87AE87C984DA842B843C84DD
:100C0000B981E985BE1BBA8B2F89388D280F391F12
:100C10003C8B2B8B8A898C0D2D893E89C216D3067D
:100C200099F1877041F4C3010196E889F989E60DCD
:100C3000F71D94903C0197FE20C0AA8DBB8DED91CD
:100C4000FC91BA81B13061F40484F585E02D2F81E7
:100C500038854B895C89B6018A8D9B8D09950DC0BD
:100C60000684F785E02DEF80F884850195014E8597
:100C70005F85B1018A8D9B8D0995990CEFEFCE1A96
:100C8000DE0A2A0C3B1CC6CF39814D81340F3983D3
:100C900083949CCFAA8DBB8DED91FC911197068812
:100CA000F789E02DCD016B960FB6F894DEBF0FBE2D
:100CB000CDBFDF91CF911F910F91FF90EF90DF900B
:100CC000CF90BF90AF909F908F907F906F905F90EC
:100CD0004F903F902F9009946B960FB6F894DEBF1B
:100CE0000FBECDBFDF91CF911F910F91FF90EF907D
:100CF000DF90CF90BF90AF909F908F907F906F903C
:100D00005F904F903F902F900895AF92BF92CF92F7
:100D1000EF92FF920F931F93CF93DF93EC01262F57
:100D2000888D998D009709F042C06A3069F42C894A
:100D30008E859F8538E0239F800D911D11249F870C
:100D40008E871D861C86ACC06D3009F4A9C08E89C3
:100D50008823C1F03C898C859D8546E0349F800DB9
:100D6000911D112448855985841795075CF01D86CF
:100D70001C868E859F85E8E03E9F800D911D112485
:100D80009F878E87EA88FB88088919894E855F8549
:100D90006C857D85CC88CE010E949D042C898C8534
:100DA0009D85F6E02F9F800D911D112441C06A3072
:100DB00079F41D861C862C89FC013696E4918E857B
:100DC0009F852E9F800D911D11249F878E8768C05F
:100DD0006D3009F465C0AC014C5F5F4FFA0134918E
:100DE000631708F45DC03196E491E61708F458C023
:100DF000FA014491362F341BFC013296A590B49031
:100E0000F7E03F9FA00CB11C1124F50132963491FC
:100E10003196E491332311F0E1110DC0F5013496C0
:100E2000E4912C898C859D85E29F800D911D112474
:100E30009D878C8735C0F501359644915E89552391
:100E400011F16C89E32FF0E0E40FF11D47FDFA95F5
:100E50006E9FD0016F9FB00D11244C855D854A0FA8
:100E60005B1FE885F9854E175F076CF01D861C86B1
:100E7000FC013696E4918E859F856E9F800D911DB5
:100E800011249F878E87EA88FB88088919894E85F7
:100E90005F856C857D85CC88CE010E949D04BECF88
:100EA00081E090E0DF91CF911F910F91FF90EF9043
:100EB000CF90BF90AF9008956F927F928F929F9244
:100EC000AF92BF92CF92DF92EF92FF920F931F9358
:100ED000CF93DF93EC014B015A0169013801E8819E
:100EE000F9810284F385E02D0995E881F981028872
:100EF000F389E02D87019601A501B401CE01099582
:100F0000E881F981A501460D571D4150510902881C
:100F1000F389E02D9601B401CE010995E881F981AC
:100F20000088F189E02D9301A501B401CE01099556
:100F3000E881F981C80CD91CB6016150710900889B
:100F4000F189E02D9301A501CE010995E881F98190
:100F50000688F789E02DCE01DF91CF911F910F9187
:100F6000FF90EF90DF90CF90BF90AF909F908F90C9
:100F70007F906F900994AF92BF92CF92DF92EF92E1
:100F8000FF920F931F93CF93DF9300D000D0CDB784
:100F9000DEB75C016901DC01ED91FC91621773071A
:100FA00081F4048CF58DE02D041715071CF0CA019F
:100FB000980102C09A01C801281B390B2F5F3F4FCF
:100FC00014C04017510719F59B016C157D050CF4F1
:100FD0009601CB01C616D7060CF4C601281B390BA7
:100FE0002F5F3F4F068CF78DE02D8701C5010995D6
:100FF0000F900F900F900F90DF91CF911F910F9155
:10100000FF90EF90DF90CF90BF90AF900895028453
:10101000F385E02D4B835C8369837A830995D50141
:10102000ED91FC910488F589E02D96014B815C815E
:1010300069817A81C5010995D501ED91FC910688F8
:10104000F789E02DC5010F900F900F900F90DF9161
:10105000CF911F910F91FF90EF90DF90CF90BF90B5
:10106000AF900994EF92FF920F931F93DC01ED91E3
:10107000FC9111971A960D911C911B9718962D9122
:101080003C91199700A0F1A1E02D7B0140E050E0D8
:1010900060E070E009951F910F91FF90EF90089527
:1010A0004F925F926F927F928F929F92AF92BF9278
:1010B000CF92DF92EF92FF920F931F93CF93DF9324
:1010C00000D0CDB7DEB76C015A0139014801DC010F
:1010D000ED91FC910284F385E02D69837A83099573
:1010E0006981462E7A81572E640C751CD601ED91CC
:1010F000FC91461457046CF40088F189E02D8701B7
:101100009401A501B201C6010995BFEF4B1A5B0A14
:10111000EDCF0688F789E02DC6010F900F90DF9183
:10112000CF911F910F91FF90EF90DF90CF90BF90E4
:10113000AF909F908F907F906F905F904F900994A9
:10114000AF92BF92CF92DF92EF92FF920F931F93D5
:10115000CF93DF9300D000D0CDB7DEB75C0169013B
:10116000DC01ED91FC910284F385E02D4B835C83DF
:1011700069837A830995D501ED91FC9169817A8122
:101180009B012C0D3D1D215031090488F589E02D6E
:1011900078014B815C818A01C5010995D501ED91EA
:1011A000FC910688F789E02DC5010F900F900F90F4
:1011B0000F90DF91CF911F910F91FF90EF90DF90F3
:1011C000CF90BF90AF900994AF92BF92CF92DF9231
:1011D000EF92FF920F931F93CF93DF9300D000D035
:1011E000CDB7DEB75C016901DC01ED91FC910284B1
:1011F000F385E02D4B835C8369837A830995D50160
:10120000ED91FC914B815C81C40ED51EB1E0CB1AEF
:10121000D1080488F589E02D7801860169817A81F9
:101220009B01C5010995D501ED91FC910688F789CF
:10123000E02DC5010F900F900F900F90DF91CF918F
:101240001F910F91FF90EF90DF90CF90BF90AF90E4
:1012500009940895EF92FF920F931F93DC01ED9193
:10126000FC9100A0F1A1E02D09951F910F91FF9035
:10127000EF9008950F931F93DC01ED91FC91068C84
:10128000F78DE02D09951F910F9108950F931F93EE
:10129000DC01ED91FC91048CF58DE02D09951F91F9
:1012A0000F910895DC01ED91FC910084F185E02D12
:1012B000099408952F923F924F925F926F927F927E
:1012C0008F929F92AF92BF92CF92DF92EF92FF9256
:1012D0000F931F93CF93DF9300D01F92CDB7DEB74C
:1012E0004C017B836A836A01590117019801241B11
:1012F000350B37FF03C0319521953109C5014A816E
:101300005B81841B950B97FF03C091958195910993
:1013100051E059838217930714F019820BC09A2D5C
:101320008B2D5801092F182F9A818B81DB82CA825D
:10133000C92ED82E8A819B81A816B9065CF49C2DF3
:101340008D2D6801092F182F9A818B81BB82AA826B
:10135000A92EB82E2501AA81BB814A1A5B0A380141
:101360006C187D0877FE03C0719461947108720156
:1013700057FE03C0BFEFEB1AFB0AF594E794C016C3
:10138000D1061CF00FEF1FEF1FC001E010E01CC0E2
:10139000D401ED91FC91B9810484F585E02D910192
:1013A000BB23C1F04A815B81B601C4010995E618EF
:1013B000F708F7FE04C0C00ED11EE40CF51CEA814C
:1013C000FB813196FB83EA834A815B81A416B506D3
:1013D000FCF604C0A6016A817B81E7CF0F900F90D5
:1013E0000F90DF91CF911F910F91FF90EF90DF90C1
:1013F000CF90BF90AF909F908F907F906F905F90B5
:101400004F903F902F900895089580E090E00895C8
:101410004F925F926F927F928F929F92AF92BF9204
:10142000CF92DF92EF92FF92CF93DF9300D000D064
:10143000CDB7DEB76B017C014115510539F420E0D1
:1014400030E048EC52E40E947826B1C042305105A9
:1014500019F044305105C9F48DED9CEAA6E6B7E3D6
:1014600089839A83AB83BC8325E0422E21EC522EE4
:1014700021E6622E2BEB722E36E0832E3EE4932E75
:1014800039EBA32E3CE3B32E18C089E597E4ACEB0F
:10149000B3E389839A83AB83BC8383E7482E8FE7CA
:1014A000582E85E7682E89E3782E9BEE892E9924A5
:1014B0009A9493E9A92E9AE3B92E60910001709154
:1014C0000101809102019091030143505109423082
:1014D0005105B8F02FE135E84BE25FE30E94BD27EC
:1014E00020E030E849E055E40E947826A701960103
:1014F0000E942A2820E030E849E055E40E94BD27F8
:101500001EC0A70196010E942A2820E030E040E892
:101510005FE30E94BD272DEC3CEC4CE050E40E94C0
:10152000782620E030E040E85FE30E94BD279B0181
:10153000AC0160E070E889E095E40E942A280E94EE
:10154000DF286B017C019B01AC01C301B2010E9449
:1015500078269B01AC01C501B4010E94BE274B0156
:101560005C01A7019601C701B6010E947826A70178
:1015700096010E9478269B01AC0169817A818B815A
:101580009C810E9478269B01AC01C501B4010E9498
:10159000BE279B01AC0160E070E080E89FE30E9401
:1015A0002A2823E333E948E853E40E94BD270E9438
:1015B0009C287B0188E191E00E944E27892BB9F09D
:1015C000B701FF0C880B990B0E94192626E636E618
:1015D00046EE5FE30E94782620E030E040E052E4EF
:1015E0000E94BE270E949C28262F972F02C02E2DD6
:1015F0009F2D822F0F900F900F900F90DF91CF9122
:10160000FF90EF90DF90CF90BF90AF909F908F9022
:101610007F906F905F904F9008958091F00490912B
:10162000F104892B49F08091E6049091E704069734
:101630009093E7048093E6041092F1041092F00472
:1016400082E08093EC0481E090E09093EB0480933F
:10165000EA049093E9048093E8040895CF9380917D
:101660009703811136C182E08093F3048CE3809369
:10167000F2041092BC008091F4048F3F09F4BDC0C5
:1016800061E08091F6040E94472061E08091F804B7
:101690000E9447208091F804082E000C990BFC0151
:1016A000E951FE4FE491F0E0EE0FFF1FED52FE4FC7
:1016B000259134913093FF042093FE04FC01E55002
:1016C000FE4FE491E09304058091F604082E000C8F
:1016D000990BFC01E951FE4FE491F0E0EE0FFF1F82
:1016E000ED52FE4F25913491309301052093000572
:1016F000FC01E550FE4FE491E09305058091F9046B
:1017000081113EC061E08091F4040E94472061E0B5
:101710008091F5040E9447208091F504082E000C6A
:10172000990BFC01E951FE4FE491F0E0EE0FFF1F31
:10173000ED52FE4F259134913093FD042093FC042B
:10174000FC01E550FE4FE491E09303058091F40421
:10175000082E000C990BFC01E951FE4FE491F0E0DA
:10176000EE0FFF1FED52FE4F259134913093FB0495
:101770002093FA04FC01E550FE4FE491E09302054A
:101780008091F904882309F455C0CFB7F89480916B
:10179000C903811127C0E1EFF1E08491E5E0F2E0B7
:1017A0009491E82FF0E0EE0FFF1FE753FE4FA59155
:1017B000B491EC91E92321F461E08AE00E941720C2
:1017C00061E08AE00E9447208CB580618CBD8CB5B9
:1017D00080648CBD61E08DE00E94472061E08BE079
:1017E0000E9447208091C9038F5F8093C903CFBFB8
:1017F00080E58CBD81E08DBD1DC0449A459A8091E5
:10180000B9008E7F8093B9008091B9008D7F80935D
:10181000B90088E48093B80084E48093BC0080E23F
:101820008093B800449845988EE190E09093ED0342
:101830008093EC038EEA0E94511285ED0E945112B2
:1018400080E80E94511288EA0E9451128FE10E94A2
:10185000511283ED0E94511280E00E94511280E4E7
:101860000E9451128DE80E94511284E10E9451128F
:1018700080E20E94511280E00E94511281EA0E948F
:10188000511288EC0E9451128AED0E94511282E09E
:101890000E94511281E80E9451128FEF0E94511252
:1018A00089ED0E94511281EF0E9451128BED0E942E
:1018B000511280E40E94511284EA0E94511286EA79
:1018C0000E9451128EE20E9451128FEACF910C9425
:1018D0005112CF910895CF92DF92EF92FF928091B3
:1018E0009C03882311F1C0907A03D0907B03E09091
:1018F0007C03F0907D0320E030E040EC50E4C70131
:10190000B6010E94D228181684F420E030E040E0AE
:1019100050E4C701B6010E94BD2760937A0370931B
:101920007B0380937C0390937D03FF90EF90DF9087
:10193000CF900895CF92DF92EF92FF9280919C0317
:10194000811142C080910801909109010197E1F550
:1019500086E591E00E944E27892BB1F58AE491E05B
:101960000E944E27892B81F181E080939C0320E027
:1019700030E040E650E46091B9037091BA03809181
:10198000BB039091BC030E94BE276B017C0120E049
:1019900030E044E352E40E94D22818166CF480E050
:1019A00090E0A4E3B2E480937A0390937B03A09346
:1019B0007C03B0937D0308C0C0927A03D0927B036E
:1019C000E0927C03F0927D03FF90EF90DF90CF9048
:1019D00008950E94BF202091C5033091C603CB011A
:1019E000821B930B08950E94BF206093C5037093E0
:1019F000C6038093C7039093C80308958CE191E0D8
:101A00000E944E27AC016091AF047091B0048091A8
:101A1000B1049091B2040C94080A8AE191E00E940A
:101A20004E27AC016091B7047091B8048091B9045D
:101A30009091BA040C94080A4F925F926F927F9231
:101A40008F929F92AF92BF92CF92DF92EF92FF92CE
:101A50008090CF049090D004A090D104B090D20494
:101A600084ED90E00E944E27892B39F0C12CD12CB7
:101A700090E8E92E9FEBF92E06C0C12CD12C80E80E
:101A8000E82E8FE3F82E20E030E04AEF53E4609137
:101A9000C7047091C8048091C9049091CA040E943F
:101AA00078262B013C0184E690E00E94D3229B0122
:101AB000AC01C301B2010E94BD27A50194010E949F
:101AC000BD279B01AC01C701B6010E9478266B01BE
:101AD0007C0182ED90E00E944E27BC0180E090E006
:101AE0000E9417269B01AC01C701B6010E942A285B
:101AF0006B017C0120E030E040E05FE30E941226B1
:101B000087FF0DC020E030E040E05FEBC701B60189
:101B10000E94D22818161CF4C12CD12C7601C701C2
:101B2000B601FF90EF90DF90CF90BF90AF909F9065
:101B30008F907F906F905F904F900895CF92DF923B
:101B4000EF92FF92CF93DF9382E00E945F11EC014E
:101B500086ED90E00E944E27BC0180E090E00E945C
:101B6000172620E034E244E759E40E942A286B015A
:101B70007C01BE0180E090E00E94172620E030E06A
:101B800040E45EE30E9478260E949C28072E000C09
:101B9000880B990B0E9419269B01AC01C701B60165
:101BA0000E947826DF91CF91FF90EF90DF90CF9049
:101BB0000895CF92DF92EF92FF9286ED90E00E941F
:101BC0004E27BC0180E090E00E94172620E034E21E
:101BD00044E759E40E942A286B017C016091BF040C
:101BE0007091C0048091C1049091C2040E949C280D
:101BF000072E000C880B990B0E9419269B01AC0143
:101C0000C701B6010E947826FF90EF90DF90CF9039
:101C10000895CF92DF92EF92FF920E94D90D6B014F
:101C20007C010E941C0D9B01AC01C701B6010E9402
:101C30007826FF90EF90DF90CF90089583E00E9488
:101C40005F11BC0180E090E00E9417262AE939E983
:101C500049E95CE30E9478260E949C28CB01089504
:101C60008F929F92AF92BF92CF92DF92EF92FF92AC
:101C70000F931F93FA0169018617970734F09C01AF
:101C8000481759071CF49A0101C09B010D2C000C48
:101C9000EE08FF084B01770FAA08BB08C901330FF4
:101CA000AA0BBB0B9C01AD01281939094A095B0934
:101CB000C801110FAA0BBB0BBC01CD016C197D092A
:101CC0008E099F090E9461298F01FF0F220B330BA0
:101CD000A9019801281939094A095B090E9462275C
:101CE000DA01C9018C0D9D1DAE1DBF1D1F910F9105
:101CF000FF90EF90DF90CF90BF90AF909F908F902C
:101D00000895AF92BF92CF92DF92EF92FF920F931E
:101D10001F93CF93DF93EC017B015A0169010130DE
:101D20001105A1F40E94BF202091C1033091C2038C
:101D30008B01021B130B0E94BF206093C1037093A1
:101D4000C2038093C3039093C40319C002301105EA
:101D5000A1F40E94BF202091BD033091BE038B01EE
:101D6000021B130B0E94BF206093BD037093BE0340
:101D70008093BF039093C00302C000E010E0CE1533
:101D8000DF0574F488EE93E0B8010E947129C50163
:101D90000E947129C60FD71FEC16FD0694F410C0DF
:101DA000EC16FD0674F488EE93E0B8010E947129E8
:101DB000C6010E947129C61BD70BCE15DF050CF496
:101DC000E701CE01DF91CF911F910F91FF90EF902E
:101DD000DF90CF90BF90AF9008958F929F92AF9277
:101DE000BF92CF92DF92EF92FF92CF93DF93EC01FD
:101DF000C880D980EA80FB809A01AB01C701B60197
:101E00000E9478264B015C01A701960160E070E01A
:101E100080E89FE30E94BD272C813D814E815F8138
:101E20000E9478269B01AC01C501B4010E94BE2727
:101E30006C837D838E839F83DF91CF91FF90EF90A2
:101E4000DF90CF90BF90AF909F908F90089580913A
:101E50004305E0914405E81BE0934205811103C06E
:101E6000109242050895815080934305F0E0E653B7
:101E7000FC4F828108959091F904992339F08EBD29
:101E800000000DB407FEFDCF8EB5089528E030E0C8
:101E900040E8E091FC04F091FD045081909103052D
:101EA000909595239083E091FA04F091FB04909132
:101EB0000205542F582319F05081952B03C05081EF
:101EC000909595239083E091FC04F091FD0450815E
:101ED00090910305952B9083469521503109C9F6C1
:101EE0000895CF92DF92EF92FF92CF93DF930E94FB
:101EF000BF206B017C0184E98093BC00C091EC039E
:101F0000D091ED039091BC00892F807194FF18C08F
:101F10002097C1F30E94BF20DC01CB018C199D09E1
:101F2000AE09BF09AE0160E070E084179507A6070F
:101F3000B70720F31092BC0084E48093BC0081E0DA
:101F4000DF91CF91FF90EF90DF90CF900895CF92E7
:101F5000DF92EF92FF92CF93DF938093BB000E94BA
:101F6000BF206B017C0184E88093BC00C091EC032E
:101F7000D091ED038091BC0087FD19C02097D1F36B
:101F80000E94BF20DC01CB018C199D09AE09BF095D
:101F9000AE0160E070E084179507A607B70730F33D
:101FA0001092BC0084E48093BC0081E019C0809151
:101FB000B900887F883299F08091B900C82FC87F16
:101FC0008091B900887F803319F40E94710F05C099
:101FD0001092BC0084E48093BC008C2F01C080E090
:101FE000DF91CF91FF90EF90DF90CF900895CF9247
:101FF000DF92EF92FF92CF93DF938093BB000E941A
:10200000BF206B017C0184E88093BC00C091EC038D
:10201000D091ED038091BC0087FD19C02097D1F3CA
:102020000E94BF20DC01CB018C199D09AE09BF09BC
:10203000AE0160E070E084179507A607B70730F39C
:102040001092BC0084E48093BC0081E023C08091A6
:10205000B900887F883129F08091B900887F803469
:1020600011F480E017C08091B900C82FC87F80911B
:10207000B900887F803229F08091B900887F883448
:1020800019F40E94710F05C01092BC0084E4809383
:10209000BC008C2FDF91CF91FF90EF90DF90CF901D
:1020A0000895CF92DF92EF92FF92CF93DF930E9439
:1020B000BF206B017C0184EA8093BC00C091EC03DB
:1020C000D091ED038091BC0087FD19C02097D1F31A
:1020D0000E94BF20DC01CB018C199D09AE09BF090C
:1020E000AE0160E070E084179507A607B70730F3EC
:1020F0001092BC0084E48093BC0081E01CC08091FD
:10210000B900887F883029F08091B900887F8031BC
:1021100011F480E010C08091B900887F883341F4C9
:102120008091B9001092BC0094E49093BC0002C06E
:102130008091B900887FDF91CF91FF90EF90DF9081
:10214000CF9008951F93CF93DF93182FD62FC42FCE
:102150001092CA030E9451108093CA03811127C0B4
:10216000812F880F0E94F70F8093CA03882321F0E4
:102170008130E9F482E01BC08D2F0E94A70F80936D
:10218000CA03882321F0813091F483E010C08C2FA2
:102190000E94A70F8093CA038111F5CF0E94710F8F
:1021A0008093CA03882319F0813009F487E0DF9116
:1021B000CF911F910895CF92DF92EF92FF92CF932C
:1021C000DF93C82F0E94BF206B017C01CC2311F04C
:1021D00084EC01C084E88093BC00C091EC03D091F2
:1021E000ED038091BC0087FD19C02097D1F30E94B8
:1021F000BF20DC01CB018C199D09AE09BF09AE01DE
:1022000060E070E084179507A607B70730F31092D7
:10221000BC0084E48093BC0081E010C08091B900D0
:10222000887F883341F48091B9001092BC0094E417
:102230009093BC0002C08091B900887FDF91CF915C
:10224000FF90EF90DF90CF9008950F931F930E941F
:10225000BF206093F6037093F7038093F803909385
:10226000F903E091EE03F091EF030484F585E02D8E
:102270008EEE93E0099597FF1FC00E94BF2000914A
:10228000F6031091F7032091F8033091F903DC0174
:10229000CB01801B910BA20BB30B0091F2031091A9
:1022A000F3032091F4033091F50380179107A207FF
:1022B000B307B8F28FEF9FEF1F910F9108958F92A0
:1022C0009F92AF92BF92CF92DF92EF92FF920F93C5
:1022D0001F93CF93DF93C091D604D091D704813060
:1022E00059F038F0823059F0833061F0C368D16022
:1022F0000BC0C368D16408C0C368D16505C0C3689A
:10230000D16602C0C368D1671091D3041092CA038A
:102310000E9451108093CA03811122C0812F880F1F
:102320000E94F70F8093CA0381111AC081E00E94B6
:10233000A70F8093CA03811113C0D0688D2F0E940C
:10234000A70F8093CA0381110BC08C2F0E94A70F87
:102350008093CA03811104C00E94710F8093CA0345
:10236000C090D404D12CE12CF12C0E949A204B0176
:102370005C01C114D104E104F104F1F00E949A203F
:10238000DC01CB0188199909AA09BB09883E934051
:10239000A105B10570F321E0C21AD108E108F108E6
:1023A00048EE840E43E0941EA11CB11CC114D1045C
:1023B000E104F10419F7DDCFC091D3041092430575
:1023C0001092420581E08093CB031092CA030E94D1
:1023D00051108093CA03811144C0CC0F8C2F0E94EE
:1023E000F70F8093CA0381113CC00E94A70F80930E
:1023F000CA03811136C00E9451108093CA03811113
:1024000030C081E08C0F0E94F70F8093CA038111C6
:1024100028C00CEC13E0C0E08091CB03C8131AC0B5
:1024200080E00E94DB108093CA038835D1F480914C
:10243000BB00F80181938F0181E08C0F80934305ED
:1024400080934405C1E0823039F70E94710F809378
:10245000CA0307C081E00E94DB108093CA03803565
:1024600031F30E94270FC82F0E94270F2C2F30E036
:10247000322F2227A901482BCA010090D50402C09F
:10248000969587950A94E2F7DF91CF911F910F916E
:10249000FF90EF90DF90CF90BF90AF909F908F9084
:1024A00008959091F4049F3F49F1E091FE04F0916A
:1024B000FF04208190910405922B9083E091000508
:1024C000F0910105208190910505909592239083CC
:1024D000E091FE04F091FF04208190910405909515
:1024E000922390830E943B0FE091FE04F091FF0441
:1024F000908180910405892B80830895482F60E0A6
:102500008091F2040C94A21080E092E0EAE0F1E005
:10251000DF019C011D9221503040E1F708950F9397
:102520001F93CF93DF9383ED0E94511280E00E94AE
:10253000511280E40E94511281E20E94511280E007
:102540000E9451128FE70E94511282E20E945112A2
:1025500080E00E94511283E00E9451128091F404A5
:102560008F3F19F40AE011E042C0E091FE04F091BF
:10257000FF04908180910405892B8083E091000500
:10258000F0910105908180910505892B8083E09170
:10259000FE04F091FF0490818091040580958923C9
:1025A0008083CAE0D1E089910E943B0F83E0CA306A
:1025B000D807C9F7E091FE04F091FF049081809163
:1025C0000405892B808316C0F801EC0FFD1F4081A4
:1025D00060E48091F2040E94A2102196C031D105DE
:1025E00099F7005F1F4F83E00A30180719F0C0E029
:1025F000D0E0EACFDF91CF911F910F910895AF9274
:10260000BF92CF92DF92EF92FF920F931F93CF93DF
:10261000DF9300D0CDB7DEB78C017A836983CE011A
:1026200001966C01580192E0A90EB11CE12CF12C2D
:10263000C8010E944627F60161916F01861731F0AB
:10264000C8010E945427FFEFEF1AFF0A0F5F1F4FC8
:102650000A151B0569F781E0EF2809F480E00F9067
:102660000F90DF91CF911F910F91FF90EF90DF902E
:10267000CF90BF90AF900895AF92BF92CF92DF926C
:10268000EF92FF920F931F93CF93DF9300D000D070
:10269000CDB7DEB78C0149835A836B837C83CE012F
:1026A00001966C01580194E0A90EB11CE12CF12CAB
:1026B000C8010E944627F60161916F01861731F02B
:1026C000C8010E945427FFEFEF1AFF0A0F5F1F4F48
:1026D0000A151B0569F781E0EF2809F480E00F90E7
:1026E0000F900F900F90DF91CF911F910F91FF905E
:1026F000EF90DF90CF90BF90AF900895CF92DF9290
:10270000EF92FF920F931F93CF93DF9377FF1DC03C
:102710006A017B01EC016DE20E943B1E8C014427A3
:102720005527BA014C195D096E097F092AE0CE01CF
:102730000E94571E800F911FDF91CF911F910F9123
:10274000FF90EF90DF90CF9008952AE0DF91CF9136
:102750001F910F91FF90EF90DF90CF900C94571E38
:10276000CF93DF93AB01BC0121E08EEE93E00E949A
:10277000A01EEC0168E673E08EEE93E00E94421E1C
:102780008C0F9D1FDF91CF910895CF93DF93AC0104
:10279000990F660B770B8EEE93E00E947E13EC018F
:1027A00068E673E08EEE93E00E94421E8C0F9D1F40
:1027B000DF91CF910895CF93DF93AC0160E070E09B
:1027C0002AE08EEE93E00E94571EEC0168E673E06B
:1027D0008EEE93E00E94421E8C0F9D1FDF91CF91E1
:1027E0000895CF93DF93EC0161E085E00E944720DC
:1027F000209711F460E004C0CF3FD10531F461E0CF
:1028000085E0DF91CF910C941720EAEBF1E0E491A1
:10281000E330F9F048F4E130B9F0E230A1F584B5E5
:10282000806284BDC8BD34C0E730E9F0E83019F1FA
:10283000E43049F580918000806280938000D093DD
:102840008B00C0938A0024C084B5806884BDC7BD56
:102850001FC080918000806880938000D0938900A1
:10286000C093880015C08091B00080688093B0004C
:10287000C093B3000DC08091B00080628093B0001F
:10288000C093B40005C0C038D1050CF0B8CFB2CFAA
:10289000DF91CF910895FF920F931F93CF93DF9312
:1028A00000D000D0CDB7DEB70E942511FC0197FD06
:1028B00011C08D32910591F0C0970A9778F0E091A0
:1028C000EE03F091EF030284F385E02D8EEE93E0AA
:1028D0000995EACF60E070E0CB014CC020E030E029
:1028E000A901F12CE130F105F1F0ED32F105C9F06B
:1028F000CF01C0970A97B8F4AAE0B0E00E94812700
:102900008F01FF0F220B330BDC01CB01800F911FD6
:10291000A21FB31F9C01AD01205331094109510988
:1029200002C0FF24F394E091EE03F091EF030284E0
:10293000F385E02D8EEE93E029833A834B835C830D
:1029400009950E942511FC01C09729813A814B818C
:102950005C810A9738F2E130F10521F2FF2041F065
:1029600066277727CB01621B730B840B950B02C084
:10297000CA01B9010F900F900F900F90DF91CF9186
:102980001F910F91FF900895CF93DF93242FAB01F8
:10299000BC0188ED94E00E94A01EEC016AE673E0A1
:1029A00088ED94E00E94421E8C0F9D1FDF91CF9115
:1029B0000895CF93DF93AC01990F660B770B88EDE9
:1029C00094E00E947E13EC016AE673E088ED94E0E7
:1029D0000E94421E8C0F9D1FDF91CF910895809120
:1029E0008D0390918E03019690938E0380938D03B7
:1029F000089580919303909194030196909394038A
:102A00008093930308950F931F93CF93DF939C01BB
:102A1000611162C0CFEFDFEF00E010E0FA01319703
:102A2000E930F10508F084C0EC5CFF4F0C94852977
:102A3000C9016AE070E00E9471298017910711F4C2
:102A400049E011C02C0F3D1F73C0EAE0F0E0C9015E
:102A5000BF010E947129CB01BF010E94712980171B
:102A6000910739F44AE54C9FC0014D9F900D112408
:102A700030C04AE011C0C90164E670E00E947129CB
:102A8000CB016AE070E00E9471298017910719F468
:102A900044E853E017C044E64C9FC0014D9F900DA1
:102AA000112440C0E8EEF3E0C901BF010E94712982
:102AB000CB016AE070E00E9471298017910759F5F7
:102AC00048E253E2C49FC001C59F900DD49F900D72
:102AD0001124281B390B2CC0C1E0D0E04530510532
:102AE00021F506E010E0E0E1F7E2C901BF010E9434
:102AF0007129CB016AE070E00E947129801791076B
:102B000051F440EA55E1C49FC001C59F900DD49F88
:102B1000900D112407C0CE9FC001CF9F900DDE9F66
:102B2000900D1124280F391F03C009E010E076CF63
:102B3000C901DF91CF911F910F9108950F931F93BA
:102B400080918003811110C00E94BF200091450533
:102B5000109146052091470530914805601B710B87
:102B600070937F0360937E0381E0809380030E94D3
:102B7000BF20609345057093460580934705909369
:102B800048051F910F9108956AE370E380E090E09B
:102B90000E94FF1240E050E0BA0184E090E00E9401
:102BA0003C1340E050E0BA0188E090E00E943C1302
:102BB00040E050E0BA018CE090E00E943C1340E01D
:102BC00050E0BA0184E190E00E943C1340E050E004
:102BD000BA0188E190E00E943C1340E050E0BA0165
:102BE00080E190E00E943C1340E050E0BA018CE1AB
:102BF00090E00E943C1340E050E0BA018CE390E08A
:102C00000E943C1340E050E0BA0180E290E00E9454
:102C10003C1340E050E0BA0184E290E00E943C1393
:102C200040E050E0BA0188E290E00E943C1340E0AE
:102C300050E0BA018CE290E00E943C1340E050E08A
:102C40006EEB72E480E390E00E943C1340E050E0C1
:102C5000BA0184E390E00E943C1340E050E0BA01E6
:102C600088E390E00E943C1340E050E0BA0180E429
:102C700090E00E943C1340E050E0BA0184E690E00E
:102C80000E943C1360E070E080E790E00E94FF1239
:102C900063E070E088EC90E00E94FF1268EB71E066
:102CA0008AEC90E00E94FF1266E77CE08CEC90E0FA
:102CB0000E94FF1268E572E08EEC90E00E94FF1225
:102CC00063E473E080ED90E00E94FF126AE070E040
:102CD00082ED90E00E94FF1261E070E084ED90E0F0
:102CE0000E94FF1262E271E886ED90E00E94FF12FE
:102CF00060E070E088ED90E00E94FF1264E170E017
:102D00008AED90E00E94FF1265E570E082EE90E0AF
:102D10000E94FF126EE571E084EE90E00E94FF12C7
:102D20006AE570E086EE90E00E94FF1268E671E0CE
:102D300088EE90E00E94FF1261E070E08AEE90E081
:102D40000E94FF1262E771E08CEE90E00E94FF1299
:102D500060E070E08AEF90E00E94FF1262E078E0AD
:102D60008CEF90E00E94FF1260E270E08EEF90E046
:102D70000E94FF126AE070E080E091E00E94FF1282
:102D800060E070E08CE091E00E94FF1261E070E092
:102D90008EE091E00E94FF1260E070E088E191E037
:102DA0000E94FF1264E070E08AE191E00E94FF124D
:102DB00060E070E08CE191E00E94FF126CE870E04E
:102DC0008EE191E00E94FF126CE370E080E291E0FE
:102DD0000E94FF126EEB70E08CE291E00E94FF1205
:102DE00064E670E08EE291E00E94FF1260E570E020
:102DF00080E391E00E94FF1260E070E082E391E0E6
:102E00000E94FF1260E070E084E391E00E94FF12F4
:102E100060E070E086E391E00E94FF1260E070E005
:102E200088E391E00E94FF1261E070E08EE391E0A0
:102E30000E94FF1266E470E080E491E00E94FF12BD
:102E40006EE170E082E491E00E94FF1260EF70E0BA
:102E500084E491E00E94FF1260ED77E086E491E067
:102E60000E94FF1264E071E088E491E00E94FF128A
:102E700068E270E08AE491E00E94FF1261E070E095
:102E800084E591E00E94FF1260E070E086E591E049
:102E90000E94FF1269E170E088E591E00E94FF1254
:102EA0006AEF70E08AE591E00E94FF126CE070E04A
:102EB0008CE591E00E94FF1264EF71E08EE591E0F5
:102EC0000E94FF126CEB72E080E691E00E94FF121C
:102ED00064E873E082E691E00E94FF126CE474E023
:102EE00084E691E00E94FF126CE474E086E691E0D3
:102EF0000E94FF1264E170E088E691E00E94FF12F8
:102F000069E170E08AE691E00E94FF126EE170E0F4
:102F10008CE691E00E94FF1263E270E08EE691E0A1
:102F20000E94FF1263E270E080E791E00E94FF12CE
:102F300060E070E082E791E00E94FF1260E070E0E4
:102F400084E791E00E94FF1260E070E086E791E084
:102F50000E94FF1260E070E088E791E00E94FF129B
:102F600060E070E08AE791E00E94FF1260E070E0AC
:102F70008CE791E00E94FF1260E070E08EE791E044
:102F80000E94FF1260E070E080E891E00E94FF1272
:102F900060E070E082E891E00E94FF1260E070E083
:102FA00084E891E00E94FF126AE070E086E891E018
:102FB0000E94FF126AE070E088E891E00E94FF1230
:102FC0006AE070E08AE891E00E94FF126AE070E037
:102FD0008CE891E00E94FF126AE070E08EE891E0D8
:102FE0000E94FF1268EC70E080E991E00E94FF12FD
:102FF00068EC70E082E991E00E94FF1260E971E004
:1030000084E991E00E94FF1264EF71E086E991E0AB
:103010000E94FF1264EF71E088E991E00E94FF12C4
:1030200060ED77E08AE991E00E94FF1260ED77E0C1
:103030008CE991E00E94FF1260ED77E08EE991E06B
:103040000E94FF1260ED77E080EA91E00E94FF129B
:1030500060ED77E082EA91E00E94FF126CEA7DE089
:1030600084EA91E00E94FF126CEA7DE086EA91E03A
:103070000E94FF126CEA7DE088EA91E00E94FF1254
:103080006CEA7DE08AEA91E00E94FF126CEA7DE042
:103090008CEA91E00E94FF126AE070E08EEA91E013
:1030A0000E94FF126AE070E080EB91E00E94FF1244
:1030B00066E170E082EB91E00E94FF126BE170E04C
:1030C00084EB91E00E94FF126BE170E086EB91E0EF
:1030D0000E94FF1268E873E188EB91E00E94FF1202
:1030E0006AEF70E08AEB91E00E94FF1260E070E00E
:1030F0008CEB91E00E94FF1264EB70E08EEB91E0AC
:103100000E94FF126BE371E080EC91E00E94FF12DD
:103110006CE672E082EC91E00E94FF1268E572E0DA
:1031200084EC91E00E94FF1268EE73E08CEC91E079
:103130000E94FF1263E270E08EEC91E00E94FF12A9
:1031400063E270E080ED91E00E94FF1262E370E0C4
:1031500082ED91E00E94FF1264E670E084ED91E060
:103160000E94FF1261E070E086ED91E00E94FF1284
:1031700060E070E088ED91E00E94FF1260E070E096
:103180008AED91E00E94FF1260E070E08CED91E02A
:103190000E94FF1260E070E08EED91E00E94FF124D
:1031A00068EE73E080EE91E00E94FF1264EF71E040
:1031B00082EE91E00E94FF1264EF71E084EE91E0F4
:1031C0000E94FF1260ED77E086EE91E00E94FF1210
:1031D00060ED77E088EE91E00C94FF124091B1032E
:1031E0005091B2036091B3037091B40384E090E016
:1031F0000E943C13409198035091990360919A0367
:1032000070919B0388E090E00E943C134091AD03D5
:103210005091AE036091AF037091B0038CE090E0E9
:103220000E943C134091A9035091AA036091AB0303
:103230007091AC0384E190E00E943C134091B5038F
:103240005091B6036091B7037091B80388E190E0A4
:103250000E943C134091850350918603609187033F
:103260007091880380E190E00E943C134091A1039B
:103270005091A2036091A3037091A4038CE190E0AC
:103280000E943C134091A5035091A6036091A703AF
:103290007091A8038CE390E00E943C1340919D0341
:1032A00050919E0360919F037091A00380E290E093
:1032B0000E943C13409181035091820360918303EB
:1032C0007091840384E290E00E943C1340918F034C
:1032D00050919003609191037091920388E290E085
:1032E0000E943C134091890350918A0360918B03A3
:1032F00070918C038CE290E00E943C130E941C0DA4
:1033000020E030E040EC5FE30E94122687FF08C017
:103310000E949E0DAB01BC0180E390E00C943C1335
:1033200008954F925F926F927F928F929F92AF9289
:10333000BF92CF92DF92EF92FF92CF93DF938CEC0C
:1033400090E00E944E27BC0180E090E00E9417268A
:10335000209198033091990340919A0350919B03D7
:103360000E94BD276B017C0180908F039090900399
:10337000A0909103B0909203A50194016091810304
:103380007091820380918303909184030E942A2884
:103390000E949C28EB01072E000C880B990B0E94C1
:1033A00019262B013C01E89477F82FEF3FEF4FE708
:1033B0005FE7C301B2010E94272981110CC02FEFE2
:1033C0003FEF4FE75FE7C301B2010E9412261816D4
:1033D00014F4C0E0D0E0BE01DD0F880B990B0E9411
:1033E00019269B01AC01C701B6010E942A286B0176
:1033F0007C0120E030E040E850E4C501B4010E94C7
:10340000D2281816D4F4C701B6010E949C287093E4
:103410004A056093490510928F0310929003109211
:1034200091031092920310928103109282031092E2
:103430008303109284030E94EE18C0914905D09135
:103440004A051C161D06C4F420E030E040E85FE3A6
:1034500060918F03709190038091910390919203FA
:103460000E94122687FF08C0BE01DD0F880B990B52
:103470000E9419266B017C0146015701E894B7F8B8
:103480002FEF3FEF4FE75FE7C501B4010E94272907
:1034900081110AC02FEF3FEF4FE75FE7C501B4018D
:1034A0000E9412261816C4F020E030EC49E754E4DC
:1034B000C701B6010E94D228181674F020E030E04F
:1034C00040E450E4C701B6010E94122687FF0BC0FA
:1034D000C12CD12C760107C0C12C80ECD82E89E7F5
:1034E000E82E84E4F82EC701B6010E949C28CB0187
:1034F000DF91CF91FF90EF90DF90CF90BF90AF9092
:103500009F908F907F906F905F904F9008958F92D3
:103510009F92AF92BF92CF92DF92EF92FF92209153
:10352000B5033091B6034091B7035091B803609151
:1035300085037091860380918703909188030E9490
:103540002A286B017C019B01AC010E942729811173
:1035500018C046015701E894B7F82FEF3FEF4FE747
:103560005FE7C501B4010E94272981110DC02FEF2B
:103570003FEF4FE75FE7C501B4010E94122618161E
:103580001CF4C12CD12C7601C701B601FF90EF903D
:10359000DF90CF90BF90AF909F908F900895CF9283
:1035A000DF92EF92FF92C0908903D0908A03E0905F
:1035B0008B03F0908C038AEC90E00E944E27BC01B4
:1035C00080E090E00E94172620E030E040E251E4E5
:1035D0000E942A289B01AC01C701B6010E942A283B
:1035E0000E949C28CB01FF90EF90DF90CF90089530
:1035F000CF92DF92EF92FF928AEC90E00E944E27EA
:10360000BC0180E090E00E94172620E030E048EC0A
:1036100052E40E9478266B017C0120919D03309139
:103620009E0340919F035091A0030E94BD27A701D4
:1036300096010E942A2820E030E048EC52E40E94E3
:1036400078260E949C28CB0177FF02C080E090E0A2
:10365000FF90EF90DF90CF9008958F929F92AF925E
:10366000BF92CF92DF92EF92FF922091A903309107
:10367000AA034091AB035091AC036091B5037091E4
:10368000B6038091B7039091B8030E942A2820E0E6
:1036900030E040E752E40E9478266B017C014B0148
:1036A0005C01E894B7F82FEF3FEF4FE75FE7C50104
:1036B000B4010E94272981110AC02FEF3FEF4FE785
:1036C0005FE7C501B4010E941226181644F0A70155
:1036D0009601C701B6010E942729882319F0C12C41
:1036E000D12C7601C701B601FF90EF90DF90CF900B
:1036F000BF90AF909F908F900895CF93DF9388EC09
:1037000090E00E944E2782559F4F880F991F0E947C
:103710004E27EC018CEB91E00E944E27892B91F013
:10372000659784F420E030E040E450E460918F0439
:103730007091900480919104909192040E94D228FB
:10374000181614F4C1E012C0C1E020E030E040E2FD
:1037500051E460919704709198048091990490913C
:103760009A040E94D22818160CF0C0E08C2FDF912A
:10377000CF910895CF92DF92EF92FF928CEB91E080
:103780000E944E27892B59F1C0909704D09098043D
:10379000E0909904F0909A048EEB91E00E944E27FD
:1037A000BC0180E090E00E9417269B01AC01C7019C
:1037B000B6010E94D228181694F420E030E040EAC6
:1037C00050E46091B9037091BA038091BB0390916A
:1037D000BC030E941226881F8827881F01C080E032
:1037E000FF90EF90DF90CF900895CF92DF92EF920D
:1037F000FF92CF93DF936B017C0120E030E040E249
:1038000051E40E94122687FF03C0C1E5D0E002C048
:10381000C0E0D0E020E030E040E251E4C701B60172
:103820000E94D22887FD0CC020E030E048EC52E432
:10383000C701B6010E94122687FF02C0C5E4D0E08E
:1038400020E030E048EC52E4C701B6010E94D228E3
:1038500087FD0CC020E030E04AE754E4C701B60120
:103860000E94122687FF02C0C9E3D0E020E030E0CA
:103870004AE754E4C701B6010E94D22887FD02C07E
:10388000CDE2D0E0CE01DF91CF91FF90EF90DF90BD
:10389000CF9008959C010A971CF489E690E002C03D
:1038A00080E090E0A9014A5051094A35510510F4D1
:1038B0008DE590E0A901445651094438534068F021
:1038C000283E43E034075CF0203137421CF089E3A6
:1038D00090E0089585E490E0089581E590E00895F2
:1038E0000F931F93CF93DF9300D01F92CDB7DEB716
:1038F000AC018091950390919603009719F0873958
:1039000091051CF028EC30E001C09C0144305105C9
:1039100074F40E94031590939603809395030F907F
:103920000F900F90DF91CF911F910F910895890112
:103930000C591F4F000F111FC80149835A836B8315
:103940000E944E2749815A816B810E940315BC0158
:10395000C8010F900F900F90DF91CF911F910F91A1
:103960000C94FF12CF93DF93EC014130510519F411
:1039700080E390E002C080E090E09093E5048093C3
:10398000E40486E090E09093E7048093E604C0317D
:1039900087E2D80748F565307105B1F540E050E0A1
:1039A000BA0188ED94E00E947E13C83E83E0D807F8
:1039B000D8F440E050E0BA0188ED94E00E947E1314
:1039C000C436D10588F440E050E0BA0188ED94E0B7
:1039D0000E947E13CA30D10538F440E050E0BA01AD
:1039E00088ED94E00E947E13AE0160E070E02AE072
:1039F00088ED94E00E94571E6AE673E088ED94E03B
:103A0000DF91CF910C94421EC83E83E0D807C0F2EC
:103A1000EBCFCF92DF92EF92FF920F931F93CF9352
:103A2000DF936C017A018B01C0E0D0E0CE15DF0599
:103A300089F0D8016D918D01D601ED91FC91019035
:103A4000F081E02DC6010995892B11F47E0102C099
:103A50002196ECCFC701DF91CF911F910F91FF907D
:103A6000EF90DF90CF900895FC01538D448D252F6A
:103A700030E0842F90E0821B930B541710F0CF9608
:103A8000089501970895FC01918D828D981761F03A
:103A9000828DDF01A80FB11D5D968C91928D9F5F85
:103AA0009F73928F90E008958FEF9FEF0895FC0130
:103AB000918D828D981731F0828DE80FF11D858DE3
:103AC00090E008958FEF9FEF0895FC01918D228D76
:103AD000892F90E0805C9F4F821B91098F739927FB
:103AE00008958EEE93E00E94651D21E0892B09F474
:103AF00020E0822F0895FC01848DDF01A80FB11D05
:103B0000A35ABF4F2C91848D90E001968F73992713
:103B1000848FA689B7892C93A089B1898C91806400
:103B20008C93938D848D981306C00288F389E02DC1
:103B300080818F7D80830895EF92FF920F931F9372
:103B4000CF93DF93EC0181E0888F9B8D8C8D981350
:103B500005C0E889F989808185FD24C0F62E0B8D8A
:103B600010E00F5F1F4F0F731127E02E8C8DE812AE
:103B70000CC00FB607FCFACFE889F989808185FF70
:103B8000F5CFCE010E947B1DF1CF8B8DFE01E80F9A
:103B9000F11DE35AFF4FF0820B8FEA89FB89808188
:103BA000806207C0EE89FF896083E889F989808196
:103BB0008064808381E090E0DF91CF911F910F912D
:103BC000FF90EF900895CF93DF93EC01888D8823C9
:103BD000C9F0EA89FB89808185FD05C0A889B9897A
:103BE0008C9186FD0FC00FB607FCF5CF808185FF55
:103BF000F2CFA889B9898C9185FFEDCFCE010E94C3
:103C00007B1DE7CFDF91CF91089580E090E0892B75
:103C100029F00E94711D81110C94000008958330D9
:103C200081F028F4813099F08230A1F00895873036
:103C3000A9F08830B9F08430D1F4809180008F7D74
:103C400003C0809180008F7780938000089584B5B1
:103C50008F7702C084B58F7D84BD08958091B000B8
:103C60008F7703C08091B0008F7D8093B00008955E
:103C700008950E948B29DC01ED91FC910190F08167
:103C8000E02D09946115710579F0FB010190002088
:103C9000E9F73197AF01461B570BDC01ED91FC9121
:103CA0000280F381E02D099480E090E008954F9226
:103CB0005F926F927F92EF92FF920F931F93CF9339
:103CC000DF93CDB7DEB7A1970FB6F894DEBF0FBE76
:103CD000CDBF7C01FA01CB0119A2223008F42AE001
:103CE0008E010F5D1F4F422E512C612C712CBF0194
:103CF000A30192010E948C27F901CA010150110908
:103D00006A3014F4605D01C0695CD8016C93232BA8
:103D1000242B252B61F7B801C7010E94421EA196F2
:103D20000FB6F894DEBF0FBECDBFDF91CF911F91CC
:103D30000F91FF90EF907F906F905F904F9008955C
:103D40004F925F926F927F928F929F92AF92BF92AB
:103D5000CF92DF92EF92FF92CF93DF93EC016A0153
:103D60007B01B22E9A01AB01C701B6010E9427293F
:103D7000882319F06DE673E027C026013701E89427
:103D800077F82FEF3FEF4FE75FE7C301B2010E94E3
:103D9000272981110DC02FEF3FEF4FE75FE7C301E8
:103DA000B2010E94122618161CF461E773E00CC0E1
:103DB0002FEF3FEF4FE75FE4C701B6010E94D22823
:103DC00018169CF465E773E0CE01DF91CF91FF9068
:103DD000EF90DF90CF90BF90AF909F908F907F90AB
:103DE0006F905F904F900C94421E2FEF3FEF4FE784
:103DF0005FECC701B6010E94122687FDE3CF20E0E9
:103E000030E0A901C701B6010E94122687FF0AC04F
:103E10006DE2CE010E943B1E4C01F7FAF094F7F8D8
:103E2000F09402C0812C912CA12C60E070E080E025
:103E30009FE3AB1441F020E030E040E251E40E9407
:103E40002A28A394F6CF9B01AC01C701B6010E94BA
:103E5000BE272B013C010E94A3286B017C010E941C
:103E600017269B01AC01C301B2010E94BD272B01A3
:103E70003C012AE0B701A601CE010E94571E7C0139
:103E8000E80CF91CBB2031F06EE2CE010E943B1E13
:103E9000E80EF91EDB2CDD2029F120E030E040E2C5
:103EA00051E4C301B2010E9478262B013C010E941B
:103EB000A3284B01A12CB12C2AE0B501A401CE010D
:103EC0000E94571EE80EF91EC501B4010E94172674
:103ED0009B01AC01C301B2010E94BD272B013C0133
:103EE000DA94D9CFC701DF91CF91FF90EF90DF90A7
:103EF000CF90BF90AF909F908F907F906F905F908A
:103F00004F9008950F931F93CF93DF93EC010E947E
:103F1000421E8C016AE673E0CE010E94421E800FB1
:103F2000911FDF91CF911F910F9108951F920F92D2
:103F30000FB60F9211242F933F934F935F936F937C
:103F40007F938F939F93AF93BF93EF93FF938EEEE7
:103F500093E00E947B1DFF91EF91BF91AF919F91E4
:103F60008F917F916F915F914F913F912F910F9022
:103F70000FBE0F901F9018951F920F920FB60F92C1
:103F800011242F938F939F93EF93FF93E091FE0360
:103F9000F091FF038081E0910404F091050482FD1B
:103FA00012C09081809107048F5F8F732091080465
:103FB000821751F0E0910704F0E0E251FC4F958F39
:103FC0008093070401C08081FF91EF919F918F91B1
:103FD0002F910F900FBE0F901F901895CF93DF93E6
:103FE000282F30E0F901EB54FE4F8491F901E550A0
:103FF000FE4FD491F901E951FE4FC491CC2391F0C9
:1040000081110E940F1EEC2FF0E0EE0FFF1FE35214
:10401000FE4FA591B491EC91ED2381E090E021F465
:1040200080E002C080E090E0DF91CF9108951F937F
:10403000CF93DF93282F30E0F901EB54FE4F8491AA
:10404000F901E550FE4FD491F901E951FE4FC491B9
:10405000CC23C9F0162F81110E940F1EEC2FF0E027
:10406000EE0FFF1FED52FE4FA591B4918FB7F8945C
:10407000111105C09C91ED2FE095E92302C0EC9150
:10408000ED2BEC938FBFDF91CF911F910895CF93CC
:10409000DF9390E0FC01E550FE4F2491FC01E951D3
:1040A000FE4F8491882361F190E0880F991FFC01F5
:1040B000E753FE4FC591D491FC01ED52FE4FA591FF
:1040C000B491611109C09FB7F8948881209582232B
:1040D0008883EC912E230BC0623061F49FB7F89473
:1040E0003881822F809583238883EC912E2B2C930B
:1040F0009FBF06C08FB7F894E8812E2B28838FBF0F
:10410000DF91CF9108958E3008F08E5087708064D3
:1041100080937C0080917A00806480937A00809103
:104120007A0086FDFCCF809178002091790090E0A4
:10413000922B08953FB7F8948091500590915105C6
:10414000A0915205B091530526B5A89B05C02F3FFD
:1041500019F00196A11DB11D3FBFBA2FA92F982FAD
:104160008827820F911DA11DB11DBC01CD0142E028
:10417000660F771F881F991F4A95D1F708952FB7AB
:10418000F89460914C0570914D0580914E05909189
:104190004F052FBF08951F920F920FB60F92112453
:1041A0002F933F938F939F93AF93BF9380914C0531
:1041B00090914D05A0914E05B0914F0530914B0562
:1041C00023E0230F2D3720F40196A11DB11D05C05A
:1041D00026E8230F0296A11DB11D20934B05809365
:1041E0004C0590934D05A0934E05B0934F058091DB
:1041F000500590915105A0915205B091530501963B
:10420000A11DB11D8093500590935105A0935205B7
:10421000B0935305BF91AF919F918F913F912F9193
:104220000F900FBE0F901F901895E9E6F0E02081E7
:10423000880F991F880F991F237F822B8083E99A0B
:1042400008951F920F920FB60F9211242F933F9350
:104250004F935F936F937F938F939F93AF93BF938E
:10426000EF93FF93E0910601F09107010995FF910B
:10427000EF91BF91AF919F918F917F916F915F91DE
:104280004F913F912F910F900FBE0F901F90189557
:104290001F920F920FB60F9211242F933F934F93BB
:1042A0005F936F937F938F939F93AF93BF93EF939E
:1042B000FF93E0910401F09105010995FF91EF91C1
:1042C000BF91AF919F918F917F916F915F914F912E
:1042D0003F912F910F900FBE0F901F901895CF9286
:1042E000DF92EF92FF92C0907A03D0907B03E09030
:1042F0007C03F0907D0320E030E044E352E4C7010A
:10430000B6010E94122687FF14C080919703811185
:1043100010C020E030E040E050E4C701B6010E9448
:10432000BE2760937A0370937B0380937C03909302
:104330007D03FF90EF90DF90CF9008951092B5032A
:104340001092B6031092B7031092B80310928F0325
:104350001092900310929103109292031092AD0369
:104360001092AE031092AF031092B0031092A90303
:104370001092AA031092AB031092AC031092850323
:104380001092860310928703109288031092810383
:1043900010928203109283031092840310924A05B4
:1043A000109249051092A1031092A2031092A30348
:1043B0001092A4031092A5031092A6031092A703D3
:1043C0001092A8030C94EE184F925F926F927F9216
:1043D0008F929F92AF92BF92CF92DF92EF92FF9215
:1043E0000E949E0D6B017C018EEC90E00E944E2796
:1043F000BC0180E090E00E94172620E030E040E21F
:1044000051E40E942A2820E030E040E050E40E947D
:10441000BE270E949C28072E000C880B990B0E9437
:1044200019264B015C019B01AC01C701B6010E943A
:10443000BD276B017C0180ED90E00E944E27BC01FE
:1044400080E090E00E94172620E030E040E251E456
:104450000E942A28A50194010E94BD279B01AC015E
:10446000C701B6010E942A282DEC3CEC4CE45DE328
:104470000E94BE276B017C0120E030E040E85FE352
:104480000E94D22818166CF020E030E0A901C70184
:10449000B6010E94122687FF0AC0C12CD12C7601DA
:1044A00006C0C12CD12C80E8E82E8FE3F82E8CECCE
:1044B00090E00E944E27BC0180E090E00E94172609
:1044C0004B015C018AEC90E00E944E27BC0180E029
:1044D00090E00E94172620E030E048EC52E40E9471
:1044E00078262B013C01A7019601C501B4010E9469
:1044F00078269B01AC01C501B4010E94BD276093E1
:1045000098037093990380939A0390939B03A70158
:104510009601C301B2010E9478269B01AC01C30140
:10452000B2010E94BD2760939D0370939E03809308
:104530009F039093A003FF90EF90DF90CF90BF90E8
:10454000AF909F908F907F906F905F904F900C9462
:10455000EE181F920F920FB60F9211242F933F93D4
:104560004F935F936F937F938F939F93AF93BF937B
:10457000EF93FF9361E070E080E790E00E94FF120C
:104580000E94EE18FF91EF91BF91AF919F918F9193
:104590007F916F915F914F913F912F910F900FBE3F
:1045A0000F901F901895CF93DF9300D000D0CDB718
:1045B000DEB744E050E0BC01CE0101960E943627F0
:1045C00069817A818B819C810F900F900F900F9061
:1045D000DF91CF910895789484B5826084BD84B5CD
:1045E000816084BD85B5826085BD85B5816085BDEE
:1045F00080916E00816080936E00109281008091A6
:10460000810082608093810080918100816080932D
:104610008100809180008160809380008091B10052
:1046200084608093B1008091B00081608093B0007D
:1046300080917A00846080937A0080917A00826011
:1046400080937A0080917A00816080937A008091D3
:104650007A00806880937A001092C100E091FE0396
:10466000F091FF0382E08083E091FA03F091FB0375
:104670001082E091FC03F091FD038FEC8083109297
:104680000604E0910204F091030486E08083E09147
:104690000004F0910104808180618083E091000436
:1046A000F0910104808188608083E0910004F091A2
:1046B0000104808180688083E0910004F09101040E
:1046C00080818F7D808382E390E0A0E0B0E08093E2
:1046D000F2039093F303A093F403B093F50361E026
:1046E00085E00E94472080E090E00E94F11362E0A4
:1046F00086E00E94472062E087E00E94472062E057
:1047000088E00E9447208EEF90E00E944E2702979B
:1047100018F08FEE94E102C08EE995E190930701C5
:104720008093060182E090E00E94152162E080E122
:104730000E94472060E081E10E94472062E084E11E
:104740000E94472062E085E10E94472062E084E009
:104750000E94472062E089E00E94472062E08AE0F0
:104760000E94472062E08BE00E94472062E08CE0DC
:104770000E94472062E08DE00E9447200E942E0B9D
:104780000E948F1280E090E00E944E278A3390436F
:1047900009F0B6C084E090E00E94D3226093B10398
:1047A0007093B2038093B3039093B40388E090E0D6
:1047B0000E94D322609398037093990380939A0385
:1047C00090939B038CE090E00E94D3226093AD0312
:1047D0007093AE038093AF039093B00384E190E0B5
:1047E0000E94D3226093A9037093AA038093AB0322
:1047F0009093AC0388E190E00E94D3226093B503CC
:104800007093B6038093B7039093B80380E190E070
:104810000E94D3226093850370938603809387035D
:10482000909388038CE190E00E94D3226093A103CF
:104830007093A2038093A3039093A4038CE390E06E
:104840000E94D3226093A5037093A6038093A703CD
:104850009093A80380E290E00E94D32260939D038E
:1048600070939E0380939F039093A00384E290E053
:104870000E94D32260938103709382038093830309
:104880009093840388E290E00E94D32260938F0388
:104890007093900380939103909392038CE290E045
:1048A0000E94D3226093890370938A0380938B03C1
:1048B00090938C030E9484121092F1041092F004E1
:1048C00082E08093EC0481E090E09093EB0480938D
:1048D000EA049093E9048093E8048BE090E09093DD
:1048E000E5048093E4041092E7041092E60468E57E
:1048F00073E088ED94E00E94821F0E948F12FFCF28
:10490000C2E0D0E063E079EDCE010E94FF12229672
:10491000C11582E0D807B1F70E94C4150E94841225
:104920001092F1041092F00482E08093EC0481E094
:1049300090E09093EB048093EA049093E9048093D1
:10494000E8048BE090E09093E5048093E4041092F7
:10495000E7041092E60460E673E088ED94E00E94BC
:10496000821F0E948F12FFCF8F929F92AF92BF92B1
:10497000CF92DF92EF92FF921F93CF93DF93EEEEF1
:10498000F3E01382128288EE93E0A0E0B0E084832B
:104990009583A683B7838EE193E09183808385EC32
:1049A00090E09587848784EC90E09787868780ECF9
:1049B00090E0918B808B81EC90E0938B828B82ECEA
:1049C00090E0958B848B86EC90E0978B868B118E94
:1049D000128E138E148E80E491E00E944E27BC014B
:1049E000C2E1D5E08AE095E0998B888B8EE095E076
:1049F0009F878E8786E095E09B8B8A8B11E01CA7B2
:104A000080E090E0A0E2B2E48CA39DA3AEA3BFA39C
:104A1000072E000C880B990B0E94192668A779A70E
:104A20008AA79BA78BE490E0A0E0B0E088A399A3BD
:104A3000AAA3BBA381E090E09D878C871DA78DEC86
:104A4000C82E8CECD82EED2C8DE3F82EC882D9829E
:104A5000EA82FB8280E992ECA5EFBBE38C839D8325
:104A6000AE83BF838AEA9AEAAAEABFE38887998776
:104A7000AA87BB870E94BF2088A099A0AAA0BBA03C
:104A8000DC01CB0188199909AA09BB098C8B9D8B84
:104A9000AE8BBF8BE8EDF4E01382128220E830E0A9
:104AA0003583248380E290E0978386833187208753
:104AB00093878287158A1586148617861686148B27
:104AC0008FEF9FEF938B828B918B808B168B178A46
:104AD000118E108E80E393E0918380838FEF848F1B
:104AE00080A3868F858F84E0878FE3EDF4E088E4F0
:104AF00080831482138288E081831282EBECF4E0DD
:104B0000C082D182E282F38280E090E0ABE1B5E442
:104B100084839583A683B783E3ECF4E0C082D182DB
:104B2000E282F38280E090E0A0EAB0E4848395839F
:104B3000A683B783EBEBF4E08DEC9CECACE4BEE336
:104B400080839183A283B38340E050E06FE275E4F9
:104B50004483558366837783E3EBF4E02FE8C22E2A
:104B600022ECD22E25EFE22E2CE3F22EC082D1824F
:104B7000E282F3824AE959E969E97EE34483558395
:104B800066837783EBEAF4E0C082D182E282F3822B
:104B90004483558366837783E3EAF4E080839183DB
:104BA000A283B3831482158216821782EBE9F4E0A4
:104BB0008DEC9CECACECBEE380839183A283B38349
:104BC0001482158216821782E3E9F4E080E090E017
:104BD000A0E0BFE380839183A283B3831482158214
:104BE00016821782EBE8F4E08AE999E9A9E1BEE3CD
:104BF00080839183A283B3831482158216821782E5
:104C000084E690E09093410580934005DF91CF9139
:104C10001F91FF90EF90DF90CF90BF90AF909F904B
:104C20008F9008950E94542608F481E00895E89436
:104C300009C097FB3EF490958095709561957F4FE4
:104C40008F4F9F4F9923A9F0F92F96E9BB27939592
:104C5000F695879577956795B795F111F8CFFAF4A2
:104C6000BB0F11F460FF1BC06F5F7F4F8F4F9F4FD3
:104C700016C0882311F096E911C0772321F09EE831
:104C8000872F762F05C0662371F096E8862F70E097
:104C900060E02AF09A95660F771F881FDAF7880F71
:104CA0009695879597F90895990F0008550FAA0BC7
:104CB000E0E8FEEF16161706E807F907C0F012162F
:104CC0001306E407F50798F0621B730B840B950B32
:104CD00039F40A2661F0232B242B252B21F4089587
:104CE0000A2609F4A140A6958FEF811D811D089524
:104CF0000E948B260C94FC260E94EE2638F00E941F
:104D0000F52620F0952311F00C94E5260C94EB2663
:104D100011240C9430270E940D2770F3959FC1F346
:104D2000950F50E0551F629FF001729FBB27F00D59
:104D3000B11D639FAA27F00DB11DAA1F649F6627AE
:104D4000B00DA11D661F829F2227B00DA11D621FFD
:104D5000739FB00DA11D621F839FA00D611D221FB7
:104D6000749F3327A00D611D231F849F600D211D9B
:104D7000822F762F6A2F11249F5750409AF0F1F01E
:104D800088234AF0EE0FFF1FBB1F661F771F881F87
:104D900091505040A9F79E3F510580F00C94E526B4
:104DA0000C9430275F3FE4F3983ED4F386957795D3
:104DB0006795B795F795E7959F5FC1F7FE2B880F2D
:104DC000911D9695879597F9089597F99F6780E8C3
:104DD00070E060E008959FEF80EC089500240A944D
:104DE0001616170618060906089500240A941216C6
:104DF0001306140605060895092E0394000C11F4F9
:104E0000882352F0BB0F40F4BF2B11F460FF04C0A5
:104E10006F5F7F4F8F4F9F4F089557FD9058440FFE
:104E2000551F59F05F3F71F04795880F97FB991F09
:104E300061F09F3F79F087950895121613061406C6
:104E4000551FF2CF4695F1DF08C016161706180653
:104E5000991FF1CF86957105610508940895E8942E
:104E6000BB2766277727CB0197F90895DC01CB0193
:104E7000FC01F999FECF06C0F2BDE1BDF89A31966A
:104E800000B40D9241505040B8F70895F999FECF03
:104E900092BD81BDF89A992780B50895A8E1B0E048
:104EA00042E050E00C943827262FF999FECF1FBA24
:104EB00092BD81BD20BD0FB6F894FA9AF99A0FBE43
:104EC00001960895052E97FB1EF400940E94792701
:104ED00057FD07D00E948C2707FC03D04EF40C949A
:104EE000792750954095309521953F4F4F4F5F4F13
:104EF000089590958095709561957F4F8F4F9F4F46
:104F000008950E94AE27A59F900DB49F900DA49F79
:104F1000800D911D11240895A1E21A2EAA1BBB1B1E
:104F2000FD010DC0AA1FBB1FEE1FFF1FA217B30775
:104F3000E407F50720F0A21BB30BE40BF50B661F8B
:104F4000771F881F991F1A9469F76095709580954F
:104F500090959B01AC01BD01CF010895A29FB001C6
:104F6000B39FC001A39F700D811D1124911DB29F9D
:104F7000700D811D1124911D08955058BB27AA273B
:104F80000E94D5270C94FC260E94EE2638F00E9441
:104F9000F52620F039F49F3F19F426F40C94EB2603
:104FA0000EF4E095E7FB0C94E526E92F0E940D270F
:104FB00058F3BA17620773078407950720F079F44E
:104FC000A6F50C942F270EF4E0950B2EBA2FA02DEA
:104FD0000B01B90190010C01CA01A0011124FF27A6
:104FE000591B99F0593F50F4503E68F11A16F040A1
:104FF000A22F232F342F4427585FF3CF46953795A0
:105000002795A795F0405395C9F77EF41F16BA0B64
:10501000620B730B840BBAF09150A1F0FF0FBB1F12
:10502000661F771F881FC2F70EC0BA0F621F731F5B
:10503000841F48F4879577956795B795F7959E3FB8
:1050400008F0B0CF9395880F08F09927EE0F979549
:10505000879508950E943E280C94FC260E94F52610
:1050600058F00E94EE2640F029F45F3F29F00C949E
:10507000E52651110C9430270C94EB260E940D2745
:1050800068F39923B1F3552391F3951B550BBB2777
:10509000AA2762177307840738F09F5F5F4F220FBC
:1050A000331F441FAA1FA9F335D00E2E3AF0E0E8B3
:1050B00032D091505040E695001CCAF72BD0FE2FFD
:1050C00029D0660F771F881FBB1F26173707480791
:1050D000AB07B0E809F0BB0B802DBF01FF27935849
:1050E0005F4F3AF09E3F510578F00C94E5260C9402
:1050F00030275F3FE4F3983ED4F386957795679524
:10510000B795F7959F5FC9F7880F911D969587957D
:1051100097F90895E1E0660F771F881FBB1F62179C
:1051200073078407BA0720F0621B730B840BBA0B5A
:10513000EE1F88F7E09508950E94A3286894B111A6
:105140000C94302708950E94152788F09F5798F0F7
:10515000B92F9927B751B0F0E1F0660F771F881F7C
:10516000991F1AF0BA95C9F714C0B13091F00E9496
:105170002F27B1E008950C942F27672F782F8827C9
:10518000B85F39F0B93FCCF3869577956795B395BD
:10519000D9F73EF490958095709561957F4F8F4F2C
:1051A0009F4F08950E94542608F48FEF089516F03B
:1051B0000C942C290C94EB2668940C94E5260E9400
:1051C0001527A8F39923C1F3AEF3DF93CF931F9371
:1051D0000F93FF92C92FDD2788232AF02197660FAE
:1051E000771F881FDAF720E030E040E85FEB9FE3AD
:1051F000883920F0803E38F021968F770E94BE27B4
:10520000EAE7F0E004C00E94BE27E7EAF0E00E946F
:105210003A298B01BE01EC01FB2E6F577109759580
:10522000771F880B990B0E94192628E132E741E38A
:105230005FE30E948B26AF2D9801AE01FF900F9186
:105240001F91CF91DF910E94D5270C94FC260E94DC
:105250005426880B990B08959F3F31F0915020F40C
:10526000879577956795B795880F911D9695879542
:1052700097F90895DF93CF931F930F93FF92EF92C7
:10528000DF927B018C01689406C0DA2EEF010E9448
:105290008B26FE01E894A591259135914591559174
:1052A000A6F3EF010E94D527FE019701A801DA9429
:1052B00069F7DF90EF90FF900F911F91CF91DF91F1
:1052C0000895DB018F939F930E948127BF91AF9137
:1052D000A29F800D911DA39F900DB29F900D112450
:1052E0000895AA1BBB1B51E107C0AA1FBB1FA6172D
:1052F000B70710F0A61BB70B881F991F5A95A9F77F
:1053000080959095BC01CD010895EE0FFF1F05908B
:10531000F491E02D099481E090E0F8940C949029A8
:04532000F894FFCF2F
:105324000000A040381E381E0100000000000000EC
:105334000000000000000000000000000000000069
:105344000000000000000000000000000000000059
:105354000000000000000000000000000000000049
:105364000000000000000000000000000000000039
:105374000000000000000000000000000000000029
:105384000000000000000000000000000000000019
:105394000000000000000000000000000000000009
:1053A400000000000000000000000000F0F8D8D861
:1053B400F8F00000FEFE1018F8F00000F6F6000009
:1053C400FEFEC0B0180800F0F8D8D8F8F00000F0DD
:1053D400F81818700000F0F81818F8F00000F8F841
:1053E4001018F8F01018F8F00000F8F81018F8F099
:1053F4000000F8F80000F8F80030FCFC303000F051
:10540400F8D8D8F8F00000F8F8101800000000F000
:10541400F81818700000F0F81818F8F00000F8F800
:105424001018F8F01018F8F0000000000F1F1818FA
:105434001E0E00001F1F08181F0F00001F1F000072
:105444001F1F00071E10000F1F18181E0E00000F4C
:105454001F18180E00000F1F18181F0F00001F1F21
:1054640000001F1F00001F1F00003F3F08181F0FF0
:1054740000000F1F18081F1F00001F1F1818000F1F
:105484001F18181E0E00001F1F0000181800000F20
:105494001F18180E00000F1F18181F0F00001F1FE1
:1054A40000001F1F00001F1F00000000000000007C
:1054B40000000000000000000000000000000000E8
:1054C40000000000000000000000000000000000D8
:1054D40000000000000000000000000000000000C8
:1054E40000000000000000000000000000000000B8
:1054F40000000000000000000000000000000000A8
:105504000000000000000000000000000000000097
:105514000000000000000000000000000000000087
:1055240000000000000000000000000103070F1F3E
:105534003F7F0080C0E0F0F8FCFE000000009C1DEE
:10554400091D341DE31D651D431D571D000000008A
:105554008506091D050A040AE903590952092A099D
:1055640046093A095A0929098804870433018D0236
:1055740050083208BB075C074C42414420424B00B0
:10558400493F493B20424B003B000D0A006E616ECF
:0A55940000696E66006F7666000085
:00000001FF
