:100000000C9409010C94B7190C9490190C943101BB
:100010000C9431010C9431010C94241B0C9431018B
:100020000C9431010C9431010C9431010C94310188
:100030000C9431010C9431010C9431010C94310178
:100040000C943A190C9431010C942B180C9405184B
:100050000C9431010C9431010C9431010C94310158
:100060000C9431010C9431019D0DC50DEC0DFD0E6C
:10007000130E410E700E9E0ECA0E08000000BE92B6
:100080002449123EABAAAA2ABECDCCCC4C3E0000DD
:100090000080BEABAAAAAA3E00000000BF0000007C
:1000A000803F0000000000084178D3BB4387D11394
:1000B0003D190E3CC3BD4282AD2B3E68EC8276BE3C
:1000C000D98FE1A93E4C80EFFFBE01C4FF7F3F0006
:1000D00000000000000000000000005F000000447D
:1000E0007D40007F102844007C04780478FC1824AC
:1000F000241836495620507F0804047863140814E5
:10010000633F4040403F2A1C7F1C2A3F4038403F0D
:1001100000807030000808080808000060600020B7
:10012000100804023E5149453E00427F400072499A
:100130004949462141494D331814127F102745453E
:1001400045393C4A49493141211109073649494954
:1001500036464949291E1F2040201F03017F010305
:1001600026494949327F091929467F090909067F2D
:100170000408107F7F021C027F7C1211127C3E411A
:1001800041413E3E414141227F4141413E7F4949FB
:1001900049417F090909013E414151737F0808081F
:1001A0007F00417F410004020102047F08142241C4
:1001B0007F4040404000000000240027002A00004B
:1001C000000000250028002B00000000002300266E
:1001D00000290004040404040404040202020202CC
:1001E00002030303030303010204081020408001FB
:1001F000020408102001020408102000000008007A
:1002000002010000030407000000000000000000DD
:10021000912411241FBECFEFD8E0DEBFCDBF13E085
:10022000A0E0B1E0E8E4F2E502C005900D92AA3743
:10023000B107D9F725E0AAE7B3E001C01D92A634C3
:10024000B207E1F711E0C9E0D1E004C02197FE0157
:100250000E941729C830D107C9F70E94C8220C9400
:1002600022290C9400000F931F93CF93DF93DC019E
:1002700055968C915597823071F0833009F1813019
:1002800009F08CC01496ED91FC911597E41BF50BC9
:10029000E21BF30B20C01496ED91FC911597CF0152
:1002A000861B970BBC01615071091696ED91FC916C
:1002B0001797CF01841B950BAC01421B530B6EC0EB
:1002C0001696ED91FC911797CF01861B970BBC01F9
:1002D00061507109FA0177FD1BC116968D919C91B1
:1002E0001797681779070CF013C1F7FF04C02E0F9A
:1002F0003F1FE0E0F0E014968D919C911597AF01BF
:10030000420F531F841795071CF49C012E1B3F0BB3
:10031000121613060CF0FCC0CB0177FD079643E0E4
:10032000959587954A95E1F79695982F8827979503
:100330008795E80FF91FE65FFE4F6770772781E02A
:1003400090E001C0880F6A95EAF7482F0130110547
:1003500041F088F00230110509F0DAC02E0F3F1F7E
:1003600015C02E0F3F1FE217F30709F4D1C080819B
:10037000842B8193F8CF80952E0F3F1FE217F30750
:1003800009F4C6C0908198239193F8CFE217F30740
:1003900009F4BEC0808184278193F8CF77FDB8C06F
:1003A00014968D919C911597681779070CF0B0C041
:1003B00057FF04C0240F351F40E050E016968D9182
:1003C0009C911797FA01E20FF31F8E179F071CF4F9
:1003D0009C01241B350B121613060CF099C0A22F9A
:1003E000842F86958695869590E8899F600D711D6E
:1003F0001124FB01E65FFE4F4770A9F198E0941BC2
:10040000492F50E0EA01CE5EDC4F8881291790F435
:10041000421B51092FEF30E002C0359527954A95D0
:10042000E2F782230130110541F068F00230110536
:1004300089F06EC00130110519F42081822B0CC0A7
:100440000130110520F480952081822305C00230FF
:10045000110531F4208182278083A91708F458C040
:10046000A91BE058FF4FA83048F10230110559F49C
:10047000EF018A2F988190959883C058DF4F88505C
:100480008830C0F730C081E00130110509F080E00C
:100490008195EF019A2F8883C058DF4F985098308C
:1004A000D0F788EF8A0F86958695869590E8899F84
:1004B000E00DF11D1124E058FF4FA770AA2341F170
:1004C000B0E0A65FBC4F8C910130110529F038F0E7
:1004D00002301105D1F01CC09081892B18C0809585
:1004E0009081892314C088EF8A0F8695869586951A
:1004F00090E8899FE00DF11D1124E058FF4FA7708F
:1005000039F0B0E0A65FBC4F8C9190818927808341
:10051000DF91CF911F910F9108950F931F93CF9368
:10052000DF93DC01FB0155968C915597823081F069
:10053000833019F1813051F514968D919C91159766
:10054000BC01641B750BAB0141505109BF0181C057
:1005500014966D917C911597CB018E1B9F0BFC011E
:1005600016968D919C911797BC01641B750BAB017E
:1005700041505109E21BF30B09C016966D917C9115
:1005800017976E1B7F0B621B730B63C057FD1CC15B
:1005900016968D919C911797481759070CF014C126
:1005A000F7FF04C02E0F3F1FE0E0F0E014968D919E
:1005B0009C911597BF01620F731F861797071CF454
:1005C0009C012E1B3F0B121613060CF0FDC0CA0136
:1005D00057FD079663E0959587956A95E1F796959F
:1005E000982F882797958795E80FF91FE65FFE4FAC
:1005F0004770552781E090E001C0880F4A95EAF7DF
:10060000482F0130110541F088F00230110509F042
:10061000DBC02E0F3F1F15C02E0F3F1FE217F30741
:1006200009F4D2C08081842B8193F8CF80952E0F5E
:100630003F1FE217F30709F4C7C0908198239193F5
:10064000F8CFE217F30709F4BFC0808184278193B4
:10065000F8CF57FDB9C014968D919C911597481706
:1006600059070CF0B1C077FF04C0260F371F60E0B8
:1006700070E016968D919C911797FB01E20FF31F86
:100680008E179F071CF49C01261B370B12161306AE
:100690000CF09AC0A22F862F86958695869590E8B5
:1006A000899F400D511D1124FA01E65FFE4F6770CE
:1006B000A9F198E0961B492F50E0EA01CE5EDC4F8D
:1006C0008881291790F4421B51092FEF30E002C0B6
:1006D000359527954A95E2F782230130110541F0BF
:1006E00068F00230110589F06FC00130110519F46E
:1006F0002081822B0CC00130110520F480952081CF
:10070000822305C00230110531F4208182278083C5
:10071000A91708F459C0A91BE058FF4FA83048F1A9
:100720000230110559F4EF018A2F98819095988332
:10073000C058DF4F88508830C0F731C081E00130A9
:10074000110509F080E08195EF019A2F8883C05848
:10075000DF4F98509830D0F788EF8A0F86958695AE
:10076000869560E8869FE00DF11D1124E058FF4F4B
:10077000A770AA2349F1B0E0A65FBC4F8C9101306D
:10078000110529F038F002301105D9F01DC0908113
:10079000892B03C0809590818923808315C088EFC1
:1007A0008A0F86958695869570E8879FE00DF11DE6
:1007B0001124E058FF4FA77039F0B0E0A65FBC4F9E
:1007C0008C9190818927E9CFDF91CF911F910F9173
:1007D0000895FC0177FD9AC0808591856817790797
:1007E0000CF094C057FD92C0828593854817590735
:1007F0000CF08CC08589823009F07CC084819581A1
:10080000DC01A61BB70BBD01615071098681978180
:10081000FC01E41BF50BAF01415051090AC08130C6
:1008200041F484819581841B950BAB01BC0161501F
:1008300071092130310529F008F122303105E1F14B
:100840000895FA0157FD3796A3E0F595E795AA9527
:10085000E1F7F695FE2FEE27F795E7956E0F7F1FD0
:10086000FB01E65FFE4F4770552781E090E001C035
:10087000880F4A95EAF79081892B3AC0FA0157FD13
:10088000379623E0F595E7952A95E1F7F695FE2F43
:10089000EE27F795E7956E0F7F1FFB01E65FFE4F92
:1008A0004770552781E090E001C0880F4A95EAF72C
:1008B0008095908189231CC0FA0157FD379683E00B
:1008C000F595E7958A95E1F7F695FE2FEE27F795D2
:1008D000E7956E0F7F1FFB01E65FFE4F47705527C0
:1008E00081E090E001C0880F4A95EAF7908189275E
:1008F00080830895833009F092CF86819781861B8B
:10090000970BBA01AC014150510993CF0895089556
:10091000FC016370658B848195812681378161300C
:1009200039F0633029F091878087338722870895D3
:10093000318720879387828708952F923F924F9225
:100940005F926F927F928F929F92AF92BF92CF925F
:10095000DF92EF92FF920F931F93CF93DF93CDB768
:10096000DEB76B970FB6F894DEBF0FBECDBF9B8F7F
:100970008A8F1B012A0118870F83FE82ED82CA82AB
:10098000DC0158964D915C9159974115510509F03C
:10099000B7C018968D919C911997681779070CF03C
:1009A0009BC11A968D919C911B97481659060CF085
:1009B00093C1AC2CB12CCB01B6E0CB9E800D911D28
:1009C0001124181619060CF087C1C50133E0880FF1
:1009D000991F3A95E1F7840D951D181619060CF02C
:1009E0007BC1AA8DBB8D57968C91811103C0203B92
:1009F00008F02F5FAA8DBB8DED91FC9111970284B9
:100A0000F385E02DCD01298F0995298D30E0205205
:100A1000310945E0429FC001439F900D11246101BF
:100A200041011B82FC01E219F309FA87E98792016F
:100A3000285F3F4F3C872B873B81353049F0E98564
:100A4000FA85E80DF91DEC52FF4F4491498301C02E
:100A5000198232011201598150FF13C0AA8DBB8D3A
:100A6000ED91FC91BA81B13031F40484F585E02D2B
:100A70002F81388519C00684F785E02DEF80F88432
:100A80001EC0ED81FE812F813885E217F307F1F05A
:100A9000AA8DBB8DED91FC91BA81B13059F40484DB
:100AA000F585E02D2D813E81A301B4018A8D9B8DBA
:100AB00009950CC00684F785E02DED80FE80850148
:100AC0009501A101B6018A8D9B8D0995E981E69575
:100AD000E983FFEF6F1A7F0A2A0C3B1C2B853C85AC
:100AE0006216730609F0B7CF3B813F5F3B834FEF40
:100AF000841A940ACA0CDB1C363009F09DCFCAC098
:100B0000FA0134969491329765917491291BCB0127
:100B1000B7E02B9F800D911D1124FA01259134918E
:100B2000398B288BFC0165907490FC0132963491CE
:100B30003D83319644914D873296C49031961491FD
:100B40005A81523058F08C2C0C2C000C9908812FB3
:100B5000012E000C990B9C838B8304C01C821B828A
:100B6000812C912CAA8DBB8DED91FC911197028463
:100B7000F385E02DCD010995BA81AB2EB12C8A9C6D
:100B8000C0018B9C900D9A9C900D1124FC01E20DEC
:100B9000F31DFC87EB871982912C812CEC2DCC0C5A
:100BA000FF0B91012E0F3F1F3A87298761013D817D
:100BB000C30ED11CA6014E0F5F1F5E8B4D8BC20171
:100BC000810F911D17FD9A95988F8F8B5D858516E6
:100BD00008F060C0882D90E04B815C81480F591F60
:100BE0004A9D90014B9D300D5A9D300D1124D90125
:100BF000A40DB51DBF87AE87C984DA842B843C84DD
:100C0000B981E985BE1BBA8B2F89388D280F391F12
:100C10003C8B2B8B8A898C0D2D893E89C216D3067D
:100C200099F1877041F4C3010196E889F989E60DCD
:100C3000F71D94903C0197FE20C0AA8DBB8DED91CD
:100C4000FC91BA81B13061F40484F585E02D2F81E7
:100C500038854B895C89B6018A8D9B8D09950DC0BD
:100C60000684F785E02DEF80F884850195014E8597
:100C70005F85B1018A8D9B8D0995990CEFEFCE1A96
:100C8000DE0A2A0C3B1CC6CF39814D81340F3983D3
:100C900083949CCFAA8DBB8DED91FC911197068812
:100CA000F789E02DCD016B960FB6F894DEBF0FBE2D
:100CB000CDBFDF91CF911F910F91FF90EF90DF900B
:100CC000CF90BF90AF909F908F907F906F905F90EC
:100CD0004F903F902F9009946B960FB6F894DEBF1B
:100CE0000FBECDBFDF91CF911F910F91FF90EF907D
:100CF000DF90CF90BF90AF909F908F907F906F903C
:100D00005F904F903F902F900895AF92BF92CF92F7
:100D1000EF92FF920F931F93CF93DF93EC01262F57
:100D2000888D998D009709F042C06A3069F42C894A
:100D30008E859F8538E0239F800D911D11249F870C
:100D40008E871D861C86ACC06D3009F4A9C08E89C3
:100D50008823C1F03C898C859D8546E0349F800DB9
:100D6000911D112448855985841795075CF01D86CF
:100D70001C868E859F85E8E03E9F800D911D112485
:100D80009F878E87EA88FB88088919894E855F8549
:100D90006C857D85CC88CE010E949D042C898C8534
:100DA0009D85F6E02F9F800D911D112441C06A3072
:100DB00079F41D861C862C89FC013696E4918E857B
:100DC0009F852E9F800D911D11249F878E8768C05F
:100DD0006D3009F465C0AC014C5F5F4FFA0134918E
:100DE000631708F45DC03196E491E61708F458C023
:100DF000FA014491362F341BFC013296A590B49031
:100E0000F7E03F9FA00CB11C1124F50132963491FC
:100E10003196E491332311F0E1110DC0F5013496C0
:100E2000E4912C898C859D85E29F800D911D112474
:100E30009D878C8735C0F501359644915E89552391
:100E400011F16C89E32FF0E0E40FF11D47FDFA95F5
:100E50006E9FD0016F9FB00D11244C855D854A0FA8
:100E60005B1FE885F9854E175F076CF01D861C86B1
:100E7000FC013696E4918E859F856E9F800D911DB5
:100E800011249F878E87EA88FB88088919894E85F7
:100E90005F856C857D85CC88CE010E949D04BECF88
:100EA00081E090E0DF91CF911F910F91FF90EF9043
:100EB000CF90BF90AF9008956F927F928F929F9244
:100EC000AF92BF92CF92DF92EF92FF920F931F9358
:100ED000CF93DF93EC014B015A0169013801E8819E
:100EE000F9810284F385E02D0995E881F981028872
:100EF000F389E02D87019601A501B401CE01099582
:100F0000E881F981A501460D571D4150510902881C
:100F1000F389E02D9601B401CE010995E881F981AC
:100F20000088F189E02D9301A501B401CE01099556
:100F3000E881F981C80CD91CB6016150710900889B
:100F4000F189E02D9301A501CE010995E881F98190
:100F50000688F789E02DCE01DF91CF911F910F9187
:100F6000FF90EF90DF90CF90BF90AF909F908F90C9
:100F70007F906F900994AF92BF92CF92DF92EF92E1
:100F8000FF920F931F93CF93DF9300D000D0CDB784
:100F9000DEB75C016901DC01ED91FC91621773071A
:100FA00081F4048CF58DE02D041715071CF0CA019F
:100FB000980102C09A01C801281B390B2F5F3F4FCF
:100FC00014C04017510719F59B016C157D050CF4F1
:100FD0009601CB01C616D7060CF4C601281B390BA7
:100FE0002F5F3F4F068CF78DE02D8701C5010995D6
:100FF0000F900F900F900F90DF91CF911F910F9155
:10100000FF90EF90DF90CF90BF90AF900895028453
:10101000F385E02D4B835C8369837A830995D50141
:10102000ED91FC910488F589E02D96014B815C815E
:1010300069817A81C5010995D501ED91FC910688F8
:10104000F789E02DC5010F900F900F900F90DF9161
:10105000CF911F910F91FF90EF90DF90CF90BF90B5
:10106000AF900994EF92FF920F931F93DC01ED91E3
:10107000FC9111971A960D911C911B9718962D9122
:101080003C91199700A0F1A1E02D7B0140E050E0D8
:1010900060E070E009951F910F91FF90EF90089527
:1010A0004F925F926F927F928F929F92AF92BF9278
:1010B000CF92DF92EF92FF920F931F93CF93DF9324
:1010C00000D0CDB7DEB76C015A0139014801DC010F
:1010D000ED91FC910284F385E02D69837A83099573
:1010E0006981462E7A81572E640C751CD601ED91CC
:1010F000FC91461457046CF40088F189E02D8701B7
:101100009401A501B201C6010995BFEF4B1A5B0A14
:10111000EDCF0688F789E02DC6010F900F90DF9183
:10112000CF911F910F91FF90EF90DF90CF90BF90E4
:10113000AF909F908F907F906F905F904F900994A9
:10114000AF92BF92CF92DF92EF92FF920F931F93D5
:10115000CF93DF9300D000D0CDB7DEB75C0169013B
:10116000DC01ED91FC910284F385E02D4B835C83DF
:1011700069837A830995D501ED91FC9169817A8122
:101180009B012C0D3D1D215031090488F589E02D6E
:1011900078014B815C818A01C5010995D501ED91EA
:1011A000FC910688F789E02DC5010F900F900F90F4
:1011B0000F90DF91CF911F910F91FF90EF90DF90F3
:1011C000CF90BF90AF900994AF92BF92CF92DF9231
:1011D000EF92FF920F931F93CF93DF9300D000D035
:1011E000CDB7DEB75C016901DC01ED91FC910284B1
:1011F000F385E02D4B835C8369837A830995D50160
:10120000ED91FC914B815C81C40ED51EB1E0CB1AEF
:10121000D1080488F589E02D7801860169817A81F9
:101220009B01C5010995D501ED91FC910688F789CF
:10123000E02DC5010F900F900F900F90DF91CF918F
:101240001F910F91FF90EF90DF90CF90BF90AF90E4
:1012500009940895EF92FF920F931F93DC01ED9193
:10126000FC9100A0F1A1E02D09951F910F91FF9035
:10127000EF9008950F931F93DC01ED91FC91068C84
:10128000F78DE02D09951F910F9108950F931F93EE
:10129000DC01ED91FC91048CF58DE02D09951F91F9
:1012A0000F910895DC01ED91FC910084F185E02D12
:1012B000099408952F923F924F925F926F927F927E
:1012C0008F929F92AF92BF92CF92DF92EF92FF9256
:1012D0000F931F93CF93DF9300D01F92CDB7DEB74C
:1012E0004C017B836A836A01590117019801241B11
:1012F000350B37FF03C0319521953109C5014A816E
:101300005B81841B950B97FF03C091958195910993
:1013100051E059838217930714F019820BC09A2D5C
:101320008B2D5801092F182F9A818B81DB82CA825D
:10133000C92ED82E8A819B81A816B9065CF49C2DF3
:101340008D2D6801092F182F9A818B81BB82AA826B
:10135000A92EB82E2501AA81BB814A1A5B0A380141
:101360006C187D0877FE03C0719461947108720156
:1013700057FE03C0BFEFEB1AFB0AF594E794C016C3
:10138000D1061CF00FEF1FEF1FC001E010E01CC0E2
:10139000D401ED91FC91B9810484F585E02D910192
:1013A000BB23C1F04A815B81B601C4010995E618EF
:1013B000F708F7FE04C0C00ED11EE40CF51CEA814C
:1013C000FB813196FB83EA834A815B81A416B506D3
:1013D000FCF604C0A6016A817B81E7CF0F900F90D5
:1013E0000F90DF91CF911F910F91FF90EF90DF90C1
:1013F000CF90BF90AF909F908F907F906F905F90B5
:101400004F903F902F900895089580E090E00895C8
:101410004F925F926F927F928F929F92AF92BF9204
:10142000CF92DF92EF92FF92CF93DF9300D000D064
:10143000CDB7DEB76B017C014115510539F420E0D1
:1014400030E048EC52E40E943926ABC042305105EE
:1014500019F044305105C9F48DED9CEAA6E6B7E3D6
:1014600089839A83AB83BC8325E0422E21EC522EE4
:1014700021E6622E2BEB722E36E0832E3EE4932E75
:1014800039EBA32E3CE3B32E18C089E597E4ACEB0F
:10149000B3E389839A83AB83BC8383E7482E8FE7CA
:1014A000582E85E7682E89E3782E9BEE892E9924A5
:1014B0009A9493E9A92E9AE3B92E60910001709154
:1014C0000101809102019091030143505109423082
:1014D000510588F020E030E849E055E40E943926C3
:1014E000A70196010E94CC2720E030E849E055E4AE
:1014F0000E945F271EC0A70196010E94CC2720E012
:1015000030E040E85FE30E945F272DEC3CEC4CE0CC
:1015100050E40E94392620E030E040E85FE30E947A
:101520005F279B01AC0160E070E889E095E40E94D0
:10153000CC270E9481286B017C019B01AC01C30177
:10154000B2010E9439269B01AC01C501B4010E9481
:1015500060274B015C01A7019601C701B6010E94FB
:101560003926A70196010E9439269B01AC016981A9
:101570007A818B819C810E9439269B01AC01C50137
:10158000B4010E9460279B01AC0160E070E080E83C
:101590009FE30E94CC2723E333E948E853E40E9409
:1015A0005F270E943E287B0188E191E00E940F277F
:1015B000892BB9F0B701FF0C880B990B0E94DA2533
:1015C00026E636E646EE5FE30E94392620E030E06C
:1015D00040E052E40E9460270E943E28262F972F69
:1015E00002C02E2D9F2D822F0F900F900F900F90E5
:1015F000DF91CF91FF90EF90DF90CF90BF90AF90B1
:101600009F908F907F906F905F904F900895CF92B2
:10161000DF92EF92FF9280919E03811142C08091F0
:101620000801909109010197E1F586E591E00E949A
:101630000F27892BB1F58AE491E00E940F27892BAF
:1016400081F181E080939E0320E030E040E650E4A9
:101650006091BB037091BC038091BD039091BE0368
:101660000E9460276B017C0120E030E044E352E4FB
:101670000E94742818166CF480E090E0A4E3B2E4B1
:1016800080937A0390937B03A0937C03B0937D03B4
:1016900008C0C0927A03D0927B03E0927C03F09260
:1016A0007D03FF90EF90DF90CF9008950E942E1958
:1016B0002091C7033091C803CB01821B930B08957F
:1016C0000E942E196093C7037093C8038093C903C7
:1016D0009093CA0308958CE191E00E940F27AC011A
:1016E0006091A1047091A2048091A3049091A4043C
:1016F0000C94080A8AE191E00E940F27AC016091E6
:10170000A9047091AA048091AB049091AC040C944C
:10171000080A4F925F926F927F928F929F92AF9240
:10172000BF92CF92DF92EF92FF928090C10490908F
:10173000C204A090C304B090C40484ED90E00E9461
:101740000F27892B39F0C12CD12C90E8E92E9FEB83
:10175000F92E06C0C12CD12C80E8E82E8FE3F82E9C
:1017600020E030E04AEF53E46091B9047091BA048C
:101770008091BB049091BC040E9439262B013C014E
:1017800084E690E00E944E1B9B01AC01C301B201B4
:101790000E945F27A50194010E945F279B01AC0175
:1017A000C701B6010E9439266B017C0182ED90E0F1
:1017B0000E940F27BC0180E090E00E94D8259B0189
:1017C000AC01C701B6010E94CC276B017C0120E06F
:1017D00030E040E05FE30E94D32587FF0DC020E0AA
:1017E00030E040E05FEBC701B6010E947428181694
:1017F0001CF4C12CD12C7601C701B601FF90EF90EB
:10180000DF90CF90BF90AF909F908F907F906F9020
:101810005F904F900895CF92DF92EF92FF92CF9317
:10182000DF9382E00E94E612EC0186ED90E00E94D8
:101830000F27BC0180E090E00E94D82520E034E230
:1018400044E759E40E94CC276B017C01BE0180E093
:1018500090E00E94D82520E030E040E45EE30E9462
:1018600039260E943E28072E000C880B990B0E94F7
:10187000DA259B01AC01C701B6010E943926DF9130
:10188000CF91FF90EF90DF90CF900895CF92DF92AD
:10189000EF92FF9286ED90E00E940F27BC0180E05E
:1018A00090E00E94D82520E034E244E759E40E9409
:1018B000CC276B017C016091B1047091B2048091DE
:1018C000B3049091B4040E943E28072E000C880BAC
:1018D000990B0E94DA259B01AC01C701B6010E9459
:1018E0003926FF90EF90DF90CF900895CF92DF924E
:1018F000EF92FF920E94460C6B017C010E94890BC3
:101900009B01AC01C701B6010E943926FF90EF9000
:10191000DF90CF90089583E00E94E612BC0180E042
:1019200090E00E94D8252AE939E949E95CE30E9460
:1019300039260E943E28CB010895AF92BF92CF92E4
:10194000DF92EF92FF920F931F93CF93DF93EC01FF
:101950007B015A01690101301105A1F40E942E1981
:101960002091C3033091C4038B01021B130B0E940F
:101970002E196093C3037093C4038093C50390939F
:10198000C60319C002301105A1F40E942E1920913E
:10199000BF033091C0038B01021B130B0E942E1951
:1019A0006093BF037093C0038093C1039093C203FD
:1019B00002C000E010E0CE15DF0574F488EE93E07D
:1019C000B8010E940329C5010E940329C60FD71F31
:1019D000EC16FD0694F410C0EC16FD0674F488EEC7
:1019E00093E0B8010E940329C6010E940329C61B87
:1019F000D70BCE15DF050CF4E701CE01DF91CF91B7
:101A00001F910F91FF90EF90DF90CF90BF90AF901C
:101A10000895CF9380917E0390917F03873991053C
:101A20006CF40E94890BC1E020E030E048E453E40C
:101A30000E94742818166CF0C0E00BC00E94760C4F
:101A400020E030E04CE852E40E94D32587FFE9CF44
:101A5000C1E08C2FCF9108958F929F92AF92BF9249
:101A6000CF92DF92EF92FF92CF93DF93EC01C88089
:101A7000D980EA80FB809A01AB01C701B6010E94C0
:101A800039264B015C01A701960160E070E080E817
:101A90009FE30E945F272C813D814E815F810E94E0
:101AA00039269B01AC01C501B4010E9460276C83FB
:101AB0007D838E839F83DF91CF91FF90EF90DF90A6
:101AC000CF90BF90AF909F908F9008959C010A9700
:101AD0001CF489E690E002C080E090E0A9014A5041
:101AE00051094A35510510F48DE590E0A90144569D
:101AF00051094438534068F0283E43E034075CF015
:101B0000203137421CF089E390E0089585E490E0AD
:101B1000089581E590E00895EF92FF920F931F934F
:101B2000CF93DF9301978930910508F066C1C62FE6
:101B30008C5C9F4FFC010C941729209193033091EA
:101B40009403662329F0E1E0F0E0C9E0D0E004C0AE
:101B5000EFEFFFEFC0E0D0E0C90164E670E00E9463
:101B60000329CB016AE070E00E9403298C179D07CE
:101B700051F444E853E0E49FC001E59F900DF49FC9
:101B8000900D112446C044E61FC02091930330916C
:101B90009403662329F0E1E0F0E0C9E0D0E004C05E
:101BA000EFEFFFEFC0E0D0E00AE010E0C901B801BC
:101BB0000E940329CB01B8010E9403298C179D07BD
:101BC00011F44AE521C04AE04E9FC0014F9F900D9D
:101BD0001124280F391F22C02091930330919403C0
:101BE000662329F0E1E0F0E0C9E0D0E004C0EFEFC7
:101BF000FFEFC0E0D0E0C9016AE070E00E94032975
:101C00008C179D0749F449E04E9FC0014F9F900DEE
:101C10001124281B390B02C02E0F3F1F3093940351
:101C200020939303EAC080919303909194030E94C0
:101C30000D1A8C010E940F279C01CC2331F0E1E0AA
:101C4000F0E046E0E42EF12C04C0EFEFFFEFE12CD2
:101C5000F12CC0E1D7E2C901BE010E940329CB01EA
:101C60006AE070E00E9403298E159F0589F580EADD
:101C700095E1E89FB001E99F700DF89F700D112468
:101C8000B1C080919303909194030E940D1A8C012E
:101C90000E940F279C01CC2331F0E1E0F0E099E0B5
:101CA000E92EF12C04C0EFEFFFEFE12CF12CC8EE90
:101CB000D3E0C901BE010E940329CB016AE070E0B4
:101CC0000E9403298E159F0519F448E253E22CC0A7
:101CD000EC9FB001ED9F700DFC9F700D112482C030
:101CE00080919303909194030E940D1A8C010E949D
:101CF0000F279C01CC2329F0E1E0F0E0C9E0D0E01F
:101D000004C0EFEFFFEFC0E0D0E0C90164E670E08F
:101D10000E940329CB016AE070E00E9403298C171E
:101D20009D0751F444E853E0E49FC001E59F900D06
:101D3000F49F900D112451C084E626C08091930336
:101D4000909194030E940D1A8C010E940F279C0110
:101D5000CC2329F0E1E0F0E0C9E0D0E004C0EFEFEF
:101D6000FFEFC0E0D0E08AE0E82EF12CC901B70116
:101D70000E940329CB01B7010E9403298C179D07FC
:101D800011F44AE525C08AE08E9FB0018F9F700D47
:101D9000112428C080919303909194030E940D1AFE
:101DA0008C010E940F279C01CC2329F0E1E0F0E098
:101DB000C9E0D0E004C0EFEFFFEFC0E0D0E0C90120
:101DC0006AE070E00E9403298C179D0751F449E0F6
:101DD0004E9FC0014F9F900D1124B901681B790BD4
:101DE00003C0BF01620F731FC801DF91CF911F9124
:101DF0000F91FF90EF900C948614DF91CF911F917B
:101E00000F91FF90EF900895CF93DF93EC01413055
:101E1000510519F480E390E002C080E090E09093D7
:101E2000D7048093D60486E090E09093D904809301
:101E3000D804C03187E2D80748F565307105B1F59F
:101E400040E050E0BA018AEC94E00E940515C83EDB
:101E500083E0D807D8F440E050E0BA018AEC94E07F
:101E60000E940515C436D10588F440E050E0BA015F
:101E70008AEC94E00E940515CA30D10538F440E0A0
:101E800050E0BA018AEC94E00E940515AE0160E0D2
:101E900070E02AE08AEC94E00E94C61668E673E0DF
:101EA0008AEC94E0DF91CF910C94B116C83E83E0A8
:101EB000D807C0F2EBCF8091E2049091E304892B24
:101EC00049F08091D8049091D90406979093D90451
:101ED0008093D8041092E3041092E20482E080938D
:101EE000DE0481E090E09093DD048093DC04909325
:101EF000DB048093DA040895CF93809199038111D4
:101F000036C182E08093E5048CE38093E404109270
:101F1000BC008091E6048F3F09F4BDC061E0809170
:101F2000E8040E94B61861E08091EA040E94B618A5
:101F30008091EA04082E000C990BFC01ED52FE4F33
:101F4000E491F0E0EE0FFF1FE154FE4F2591349134
:101F50003093F1042093F004FC01E951FE4FE49129
:101F6000E093F6048091E804082E000C990BFC0124
:101F7000ED52FE4FE491F0E0EE0FFF1FE154FE4FF3
:101F8000259134913093F3042093F204FC01E9513C
:101F9000FE4FE491E093F7048091EB0481113EC081
:101FA00061E08091E6040E94B61861E08091E70448
:101FB0000E94B6188091E704082E000C990BFC01D2
:101FC000ED52FE4FE491F0E0EE0FFF1FE154FE4FA3
:101FD000259134913093EF042093EE04FC01E951F4
:101FE000FE4FE491E093F5048091E604082E000C86
:101FF000990BFC01ED52FE4FE491F0E0EE0FFF1F54
:10200000E154FE4F259134913093ED042093EC047C
:10201000FC01E951FE4FE491E093F4048091EB045C
:10202000882309F455C0CFB7F8948091CB03811170
:1020300027C0EDEDF1E08491E1EFF1E09491E82F1C
:10204000F0E0EE0FFF1FEB54FE4FA591B491EC9121
:10205000E92321F461E08AE00E94861861E08AE0C9
:102060000E94B6188CB580618CBD8CB580648CBD27
:1020700061E08DE00E94B61861E08BE00E94B61826
:102080008091CB038F5F8093CB03CFBF80E58CBD66
:1020900081E08DBD1DC0449A459A8091B9008E7F24
:1020A0008093B9008091B9008D7F8093B90088E456
:1020B0008093B80084E48093BC0080E28093B800F1
:1020C000449845988EE190E09093EF038093EE035F
:1020D0008EEA0E94D81385ED0E94D81380E80E94F2
:1020E000D81388EA0E94D8138FE10E94D81383ED99
:1020F0000E94D81380E00E94D81380E40E94D81375
:102100008DE80E94D81384E10E94D81380E20E94D7
:10211000D81380E00E94D81381EA0E94D81388EC7B
:102120000E94D8138AED0E94D81382E00E94D8132F
:1021300081E80E94D8138FEF0E94D81389ED0E9486
:10214000D81381EF0E94D8138BED0E94D81380E43E
:102150000E94D81384EA0E94D81386EA0E94D813FA
:102160008EE20E94D8138FEACF910C94D813CF91AE
:102170000895CF92DF92EF92FF9280919E03882381
:1021800011F1C0907A03D0907B03E0907C03F09033
:102190007D0320E030E040EC50E4C701B6010E942E
:1021A0007428181684F420E030E040E050E4C701C1
:1021B000B6010E945F2760937A0370937B0380933C
:1021C0007C0390937D03FF90EF90DF90CF90089574
:1021D00080913505E0913605E81BE09334058111C7
:1021E00003C0109234050895815080933505F0E0C6
:1021F000E453FC4F828108959091EB04992339F0C8
:102200008EBD00000DB407FEFDCF8EB5089528E009
:1022100030E040E8E091EE04F091EF0450819091BD
:10222000F504909595239083E091EC04F091ED04F2
:102230009091F404542F582319F05081952B03C02A
:102240005081909595239083E091EE04F091EF04F6
:1022500050819091F504952B90834695215031093A
:10226000C9F60895CF92DF92EF92FF92CF93DF935A
:102270000E942E196B017C0184E98093BC00C091FF
:10228000EE03D091EF039091BC00892F807194FFF1
:1022900018C02097C1F30E942E19DC01CB018C19C4
:1022A0009D09AE09BF09AE0160E070E08417950793
:1022B000A607B70720F31092BC0084E48093BC000B
:1022C00081E0DF91CF91FF90EF90DF90CF90089564
:1022D000CF92DF92EF92FF92CF93DF938093BB0078
:1022E0000E942E196B017C0184E88093BC00C09190
:1022F000EE03D091EF038091BC0087FD19C02097B9
:10230000D1F30E942E19DC01CB018C199D09AE0975
:10231000BF09AE0160E070E084179507A607B70714
:1023200030F31092BC0084E48093BC0081E019C0BB
:102330008091B900887F883299F08091B900C82FC8
:10234000C87F8091B900887F803319F40E943211D0
:1023500005C01092BC0084E48093BC008C2F01C0A7
:1023600080E0DF91CF91FF90EF90DF90CF900895C4
:10237000CF92DF92EF92FF92CF93DF938093BB00D7
:102380000E942E196B017C0184E88093BC00C091EF
:10239000EE03D091EF038091BC0087FD19C0209718
:1023A000D1F30E942E19DC01CB018C199D09AE09D5
:1023B000BF09AE0160E070E084179507A607B70774
:1023C00030F31092BC0084E48093BC0081E023C011
:1023D0008091B900887F883129F08091B900887F89
:1023E000803411F480E017C08091B900C82FC87FF5
:1023F0008091B900887F803229F08091B900887F70
:10240000883419F40E94321105C01092BC0084E493
:102410008093BC008C2FDF91CF91FF90EF90DF90E5
:10242000CF900895CF92DF92EF92FF92CF93DF93F8
:102430000E942E196B017C0184EA8093BC00C0913C
:10244000EE03D091EF038091BC0087FD19C0209767
:10245000D1F30E942E19DC01CB018C199D09AE0924
:10246000BF09AE0160E070E084179507A607B707C3
:1024700030F31092BC0084E48093BC0081E01CC067
:102480008091B900887F883029F08091B900887FD9
:10249000803111F480E010C08091B900887F8833CA
:1024A00041F48091B9001092BC0094E49093BC0078
:1024B00002C08091B900887FDF91CF91FF90EF90AB
:1024C000DF90CF9008951F93CF93DF93182FD62FCF
:1024D000C42F1092CC030E9412128093CC0381115E
:1024E00027C0812F880F0E94B8118093CC038823C6
:1024F00021F08130E9F482E01BC08D2F0E94681129
:102500008093CC03882321F0813091F483E010C0C4
:102510008C2F0E9468118093CC038111F5CF0E940B
:1025200032118093CC03882319F0813009F487E0BD
:10253000DF91CF911F910895CF92DF92EF92FF929A
:10254000CF93DF93C82F0E942E196B017C01CC23FF
:1025500011F084EC01C084E88093BC00C091EE03CC
:10256000D091EF038091BC0087FD19C02097D1F373
:102570000E942E19DC01CB018C199D09AE09BF09FF
:10258000AE0160E070E084179507A607B70730F347
:102590001092BC0084E48093BC0081E010C0809164
:1025A000B900887F883341F48091B9001092BC0053
:1025B00094E49093BC0002C08091B900887FDF91C1
:1025C000CF91FF90EF90DF90CF9008958F929F92E0
:1025D000AF92BF92CF92DF92EF92FF920F931F9331
:1025E000CF93DF93C091C804D091C904813059F0D2
:1025F00038F0823059F0833061F0C368D1600BC08D
:10260000C368D16408C0C368D16505C0C368D1661A
:1026100002C0C368D1671091C5041092CC030E9418
:1026200012128093CC03811122C0812F880F0E9447
:10263000B8118093CC0381111AC081E00E94681107
:102640008093CC03811113C0D0688D2F0E94681134
:102650008093CC0381110BC08C2F0E946811809352
:10266000CC03811104C00E9432118093CC03C0902E
:10267000C604D12CE12CF12C0E9409194B015C01FC
:10268000C114D104E104F104F1F00E940919DC0144
:10269000CB0188199909AA09BB09883E9340A10575
:1026A000B10570F321E0C21AD108E108F10848EE43
:1026B000840E43E0941EA11CB11CC114D104E1049A
:1026C000F10419F7DDCFC091C504109235051092C1
:1026D000340581E08093CD031092CC030E94121246
:1026E0008093CC03811144C0CC0F8C2F0E94B81171
:1026F0008093CC0381113CC00E9468118093CC036D
:10270000811136C00E9412128093CC03811130C017
:1027100081E08C0F0E94B8118093CC03811128C0F6
:102720000EEC13E0C0E08091CD03C8131AC080E026
:102730000E949C128093CC038835D1F48091BB0019
:10274000F80181938F0181E08C0F80933505809390
:102750003605C1E0823039F70E9432118093CC03F4
:1027600007C081E00E949C128093CC03803531F336
:102770000E94E810C82F0E94E8102C2F30E0322F62
:102780002227A901482BCA010090C70402C09695D0
:1027900087950A94E2F7DF91CF911F910F91FF90F7
:1027A000EF90DF90CF90BF90AF909F908F90089563
:1027B0009091E6049F3F49F1E091F004F091F1041B
:1027C00020819091F604922B9083E091F204F09195
:1027D000F30420819091F704909592239083E091E7
:1027E000F004F091F10420819091F60490959223E9
:1027F00090830E94FC10E091F004F091F10490812C
:102800008091F604892B80830895482F60E08091A1
:10281000E4040C94631280E092E0EAE0F1E0DF016E
:102820009C011D9221503040E1F708950F931F93B2
:10283000CF93DF9383ED0E94D81380E00E94D813DA
:1028400080E40E94D81381E20E94D81380E00E94A5
:10285000D8138FE70E94D81382E20E94D81380E039
:102860000E94D81383E00E94D8138091E6048F3F22
:1028700019F40AE011E042C0E091F004F091F10493
:1028800090818091F604892B8083E091F204F0918D
:10289000F30490818091F704892B8083E091F00408
:1028A000F091F10490818091F604809589238083D2
:1028B000CAE0D1E089910E94FC1083E0CA30D807B9
:1028C000C9F7E091F004F091F10490818091F60451
:1028D000892B808316C0F801EC0FFD1F408160E456
:1028E0008091E4040E9463122196C031D10599F7CA
:1028F000005F1F4F83E00A30180719F0C0E0D0E0F6
:10290000EACFDF91CF911F910F910895AF92BF92BF
:10291000CF92DF92EF92FF920F931F93CF93DF93AB
:1029200000D0CDB7DEB78C017A836983CE010196E2
:102930006C01580192E0A90EB11CE12CF12CC801E8
:102940000E940727F60161916F01861731F0C801D7
:102950000E941527FFEFEF1AFF0A0F5F1F4F0A159E
:102960001B0569F781E0EF2809F480E00F900F90D4
:10297000DF91CF911F910F91FF90EF90DF90CF905B
:10298000BF90AF900895AF92BF92CF92DF92EF9237
:10299000FF920F931F93CF93DF9300D000D0CDB75A
:1029A000DEB78C0149835A836B837C83CE01019609
:1029B0006C01580194E0A90EB11CE12CF12CC80166
:1029C0000E940727F60161916F01861731F0C80157
:1029D0000E941527FFEFEF1AFF0A0F5F1F4F0A151E
:1029E0001B0569F781E0EF2809F480E00F900F9054
:1029F0000F900F90DF91CF911F910F91FF90EF906B
:102A0000DF90CF90BF90AF900895CF92DF92EF927A
:102A1000FF920F931F93CF93DF9377FF1DC06A013F
:102A20007B01EC016DE20E94AA168C014427552718
:102A3000BA014C195D096E097F092AE0CE010E9496
:102A4000C616800F911FDF91CF911F910F91FF90BC
:102A5000EF90DF90CF9008952AE0DF91CF911F9102
:102A60000F91FF90EF90DF90CF900C94C616CF930C
:102A7000DF93AB01BC0121E080EF93E00E940F17D0
:102A8000EC016BE673E080EF93E00E94B1168C0FCF
:102A90009D1FDF91CF910895CF93DF93AC01990FE4
:102AA000660B770B80EF93E00E940515EC016BE657
:102AB00073E080EF93E00E94B1168C0F9D1FDF91B1
:102AC000CF910895CF93DF93AC0160E070E02AE0EE
:102AD00080EF93E00E94C616EC016BE673E080EF96
:102AE00093E00E94B1168C0F9D1FDF91CF91089546
:102AF000CF92DF92EF92FF920F931F93CF93DF93CA
:102B00006C017A018B01C0E0D0E0CE15DF0589F0C1
:102B1000D8016D918D01D601ED91FC910190F0816C
:102B2000E02DC6010995892B11F47E0102C0219682
:102B3000ECCFC701DF91CF911F910F91FF90EF90E4
:102B4000DF90CF900895FC01538D448D252F30E008
:102B5000842F90E0821B930B541710F0CF960895AA
:102B600001970895FC01918D828D981761F0828DF7
:102B7000DF01A80FB11D5D968C91928D9F5F9F73B1
:102B8000928F90E008958FEF9FEF0895FC01918D53
:102B9000828D981731F0828DE80FF11D858D90E0C0
:102BA00008958FEF9FEF0895FC01918D228D892F5D
:102BB00090E0805C9F4F821B91098F739927089545
:102BC00080EF93E00E94D41521E0892B09F420E0E6
:102BD000822F0895FC01848DDF01A80FB11DA35A37
:102BE000BF4F2C91848D90E001968F739927848F2D
:102BF000A689B7892C93A089B1898C9180648C9324
:102C0000938D848D981306C00288F389E02D80810E
:102C10008F7D80830895EF92FF920F931F93CF9340
:102C2000DF93EC0181E0888F9B8D8C8D981305C01C
:102C3000E889F989808185FD24C0F62E0B8D10E08E
:102C40000F5F1F4F0F731127E02E8C8DE8120CC001
:102C50000FB607FCFACFE889F989808185FFF5CFA7
:102C6000CE010E94EA15F1CF8B8DFE01E80FF11D18
:102C7000E35AFF4FF0820B8FEA89FB8980818062E3
:102C800007C0EE89FF896083E889F98980818064C3
:102C9000808381E090E0DF91CF911F910F91FF90B1
:102CA000EF900895CF93DF93EC01888D8823C9F0CE
:102CB000EA89FB89808185FD05C0A889B9898C9145
:102CC00086FD0FC00FB607FCF5CF808185FFF2CFE0
:102CD000A889B9898C9185FFEDCFCE010E94EA15B4
:102CE000E7CFDF91CF91089580E090E0892B29F024
:102CF0000E94E01581110C9400000895833081F04A
:102D000028F4813099F08230A1F008958730A9F03D
:102D10008830B9F08430D1F4809180008F7D03C079
:102D2000809180008F7780938000089584B58F779D
:102D300002C084B58F7D84BD08958091B0008F77E7
:102D400003C08091B0008F7D8093B00008950895F6
:102D50000E941D29DC01ED91FC910190F081E02D94
:102D600009946115710579F0FB0101900020E9F7E4
:102D70003197AF01461B570BDC01ED91FC910280AE
:102D8000F381E02D099480E090E008954F925F92E6
:102D90006F927F92EF92FF920F931F93CF93DF93E7
:102DA000CDB7DEB7A1970FB6F894DEBF0FBECDBF8B
:102DB0007C01FA01CB0119A2223008F42AE08E012D
:102DC0000F5D1F4F422E512C612C712CBF01A301AE
:102DD00092010E942E27F901CA01015011096A309F
:102DE00014F4605D01C0695CD8016C93232B242B23
:102DF000252B61F7B801C7010E94B116A1960FB645
:102E0000F894DEBF0FBECDBFDF91CF911F910F9120
:102E1000FF90EF907F906F905F904F9008954F924A
:102E20005F926F927F928F929F92AF92BF92CF925A
:102E3000DF92EF92FF92CF93DF93EC016A017B0167
:102E4000B22E9A01AB01C701B6010E94C92888239E
:102E500019F06DE673E027C026013701E89477F892
:102E60002FEF3FEF4FE75FE7C301B2010E94C92890
:102E700081110DC02FEF3FEF4FE75FE7C301B201B4
:102E80000E94D32518161CF461E773E00CC02FEFE5
:102E90003FEF4FE75FE4C701B6010E9474281816A0
:102EA0009CF465E773E0CE01DF91CF91FF90EF9046
:102EB000DF90CF90BF90AF909F908F907F906F905A
:102EC0005F904F900C94B1162FEF3FEF4FE75FEC00
:102ED000C701B6010E94D32587FDE3CF20E030E093
:102EE000A901C701B6010E94D32587FF0AC06DE280
:102EF000CE010E94AA164C01F7FAF094F7F8F0946C
:102F000002C0812C912CA12C60E070E080E09FE356
:102F1000AB1441F020E030E040E251E40E94CC27C5
:102F2000A394F6CF9B01AC01C701B6010E946027B4
:102F30002B013C010E9445286B017C010E94D82591
:102F40009B01AC01C301B2010E945F272B013C0130
:102F50002AE0B701A601CE010E94C6167C01E80C4A
:102F6000F91CBB2031F06EE2CE010E94AA16E80ED9
:102F7000F91EDB2CDD2029F120E030E040E251E4B5
:102F8000C301B2010E9439262B013C010E94452851
:102F90004B01A12CB12C2AE0B501A401CE010E9465
:102FA000C616E80EF91EC501B4010E94D8259B0182
:102FB000AC01C301B2010E945F272B013C01DA94EE
:102FC000D9CFC701DF91CF91FF90EF90DF90CF90E5
:102FD000BF90AF909F908F907F906F905F904F9039
:102FE00008950F931F93CF93DF93EC010E94B116C6
:102FF0008C0168E673E0CE010E94B116800F911F2C
:10300000DF91CF911F910F9108951F920F920FB6EC
:103010000F9211242F933F934F935F936F937F935E
:103020008F939F93AF93BF93EF93FF9380EF93E0C2
:103030000E94EA15FF91EF91BF91AF919F918F91FF
:103040007F916F915F914F913F912F910F900FBEA4
:103050000F901F9018951F920F920FB60F92112488
:103060002F938F939F93EF93FF93E0910004F09140
:1030700001048081E0910604F091070482FD12C0F2
:103080009081809109048F5F8F7320910A048217C9
:1030900051F0E0910904F0E0E051FC4F958F8093EE
:1030A000090401C08081FF91EF919F918F912F9131
:1030B0000F900FBE0F901F901895CF93DF93282F7E
:1030C00030E0F901E550FE4F8491F901E951FE4FDE
:1030D000D491F901ED52FE4FC491CC2391F08111AE
:1030E0000E947E16EC2FF0E0EE0FFF1FE753FE4F1D
:1030F000A591B491EC91ED2381E090E021F480E082
:1031000002C080E090E0DF91CF9108951F93CF93AC
:10311000DF93282F30E0F901E550FE4F8491F9014B
:10312000E951FE4FD491F901ED52FE4FC491CC23E9
:10313000C9F0162F81110E947E16EC2FF0E0EE0FE1
:10314000FF1FE154FE4FA591B4918FB7F894111170
:1031500005C09C91ED2FE095E92302C0EC91ED2B89
:10316000EC938FBFDF91CF911F910895CF93DF93A1
:1031700090E0FC01E951FE4F2491FC01ED52FE4F1D
:103180008491882361F190E0880F991FFC01EB5432
:10319000FE4FC591D491FC01E154FE4FA591B4912D
:1031A000611109C09FB7F894888120958223888394
:1031B000EC912E230BC0623061F49FB7F8943881F4
:1031C000822F809583238883EC912E2B2C939FBF95
:1031D00006C08FB7F894E8812E2B28838FBFDF912C
:1031E000CF9108958E3008F08E5087708064809360
:1031F0007C0080917A00806480937A0080917A00CC
:1032000086FDFCCF809178002091790090E0922B90
:1032100008953FB7F89480913E0590913F05A091A5
:103220004005B091410526B5A89B05C02F3F19F078
:103230000196A11DB11D3FBFBA2FA92F982F882736
:10324000820F911DA11DB11DBC01CD0142E0660F91
:10325000771F881F991F4A95D1F708952FB7F894C3
:1032600060913A0570913B0580913C0590913D0538
:103270002FBF08951F920F920FB60F9211242F9314
:103280003F938F939F93AF93BF9380913A05909113
:103290003B05A0913C05B0913D053091390523E0F7
:1032A000230F2D3720F40196A11DB11D05C026E87E
:1032B000230F0296A11DB11D2093390580933A0575
:1032C00090933B05A0933C05B0933D0580913E054E
:1032D00090913F05A0914005B09141050196A11D37
:1032E000B11D80933E0590933F05A0934005B09398
:1032F0004105BF91AF919F918F913F912F910F9079
:103300000FBE0F901F901895E9E6F0E02081880F1E
:10331000991F880F991F237F822B8083E99A089534
:103320001F920F920FB60F9211242F933F934F933A
:103330005F936F937F938F939F93AF93BF93EF931D
:10334000FF93E0910601F09107010995FF91EF913C
:10335000BF91AF919F918F917F916F915F914F91AD
:103360003F912F910F900FBE0F901F9018951F92B5
:103370000F920FB60F9211242F933F934F935F93A9
:103380006F937F938F939F93AF93BF93EF93FF932D
:10339000E0910401F09105010995FF91EF91BF9132
:1033A000AF919F918F917F916F915F914F913F91DD
:1033B0002F910F900FBE0F901F901895CF92DF9214
:1033C000EF92FF92C0907A03D0907B03E0907C0351
:1033D000F0907D0320E030E044E352E4C701B60101
:1033E0000E94D32587FF14C080919903811110C0DA
:1033F00020E030E040E050E4C701B6010E946027C1
:1034000060937A0370937B0380937C0390937D0396
:10341000FF90EF90DF90CF900895009719F08739D3
:10342000910514F088EC90E08C599F4F880F991FFC
:1034300008951092B7031092B8031092B903109236
:10344000BA0310928D0310928E0310928F03109284
:1034500090031092AF031092B0031092B103109238
:10346000B2031092AB031092AC031092AD03109212
:10347000AE03109287031092880310928903109272
:103480008A03109283031092840310928503109292
:10349000860310923805109237051092A3031092FC
:1034A000A4031092A5031092A6031092A7031092F2
:1034B000A8031092A9031092AA030C94AC1E4F9279
:1034C0005F926F927F928F929F92AF92BF92CF92B4
:1034D000DF92EF92FF920E940B0C6B017C018EEC4D
:1034E00090E00E940F27BC0180E090E00E94D82568
:1034F00020E030E040E251E40E94CC2720E030E0C0
:1035000040E050E40E9460270E943E28072E000CF5
:10351000880B990B0E94DA254B015C019B01AC01E1
:10352000C701B6010E945F276B017C0180ED90E02E
:103530000E940F27BC0180E090E00E94D82520E087
:1035400030E040E251E40E94CC27A50194010E94A2
:103550005F279B01AC01C701B6010E94CC272DEC6F
:103560003CEC4CE45DE30E9460276B017C0120E0B1
:1035700030E040E85FE30E94742818166CF020E009
:1035800030E0A901C701B6010E94D32587FF0AC018
:10359000C12CD12C760106C0C12CD12C80E8E82E9C
:1035A0008FE3F82E8CEC90E00E940F27BC0180E0A6
:1035B00090E00E94D8254B015C018AEC90E00E94CB
:1035C0000F27BC0180E090E00E94D82520E030E089
:1035D00048EC52E40E9439262B013C01A7019601D8
:1035E000C501B4010E9439269B01AC01C501B4019B
:1035F0000E945F2760939A0370939B0380939C03C0
:1036000090939D03A7019601C301B2010E94392640
:103610009B01AC01C301B2010E945F2760939F032D
:103620007093A0038093A1039093A203FF90EF9067
:10363000DF90CF90BF90AF909F908F907F906F90D2
:103640005F904F900C94AC1E1F920F920FB60F928A
:1036500011242F933F934F935F936F937F938F9397
:103660009F93AF93BF93EF93FF9361E070E080E788
:1036700090E00E9486140E94AC1EFF91EF91BF91D2
:10368000AF919F918F917F916F915F914F913F91FA
:103690002F910F900FBE0F901F901895CF93DF932F
:1036A00000D000D0CDB7DEB744E050E0BC01CE0181
:1036B00001960E94F72669817A818B819C810F9007
:1036C0000F900F900F90DF91CF91089580918B0311
:1036D00090918C03019690938C0380938B030895B3
:1036E000809191039091920301969093920380931D
:1036F000910308950F931F9380918203811110C04D
:103700000E942E1900914205109143052091440515
:1037100030914505601B710B7093810360938003AA
:1037200081E0809382030E942E196093420570937A
:10373000430580934405909345051F910F9108958B
:103740006BE370E380E090E00E94861440E050E07C
:10375000BA0184E090E00E94C31440E050E0BA0156
:1037600088E090E00E94C31440E050E0BA018CE091
:1037700090E00E94C31440E050E0BA0184E190E080
:103780000E94C31440E050E0BA0188E190E00E943A
:10379000C31440E050E0BA0180E190E00E94C314FD
:1037A00040E050E0BA018CE190E00E94C31440E098
:1037B00050E0BA018CE390E00E94C31440E050E076
:1037C000BA0180E290E00E94C31440E050E0BA01E8
:1037D00084E290E00E94C31440E050E0BA0188E225
:1037E00090E00E94C31440E050E0BA018CE290E007
:1037F0000E94C31440E050E06EEB72E480E390E07E
:103800000E94C31440E050E0BA0184E390E00E94BB
:10381000C31440E050E0BA0188E390E00E94C31472
:1038200040E050E0BA0180E490E00E94C31440E020
:1038300050E0BA0184E690E00E94C31460E070E0BA
:1038400080E790E00E94861463E070E088EC90E0EE
:103850000E94861460EC70E08AEC90E00E9486146E
:103860006AE574E08CEC90E00E94861460EE71E0F2
:103870008EEC90E00E94861469E972E080ED90E0A1
:103880000E9486146AE070E082ED90E00E94861447
:1038900061E070E084ED90E00E94861462E271E8DD
:1038A00086ED90E00E94861460E070E088ED90E084
:1038B0000E94861462E070E08AED90E00E94861417
:1038C00065E570E082EE90E00E9486146EE571E09E
:1038D00084EE90E00E9486146AE570E086EE90E047
:1038E0000E94861468E671E088EE90E00E948614DB
:1038F00061E070E08AEE90E00E94861462EC71E074
:103900008CEE90E00E94861460E070E08AEF90E018
:103910000E94861463E778E08CEF90E00E948614A2
:103920006EE270E08EEF90E00E9486146AE070E034
:1039300080E091E00E94861460E070E08CE091E00D
:103940000E94861460E070E08EE091E00E94861490
:1039500060E070E088E191E00E94861460E070E031
:103960008AE191E00E94861460E070E08CE191E0D1
:103970000E9486146CE870E08EE191E00E9486144B
:103980006CE370E080E291E00E94861466E970E0EA
:103990008CE291E00E94861460E570E08EE291E096
:1039A0000E94861462E370E080E391E00E94861436
:1039B00060E070E082E391E00E94861460E070E0D5
:1039C00084E391E00E94861460E070E086E391E079
:1039D0000E94861460E070E088E391E00E94861403
:1039E00061E070E08EE391E00E94861468EC70E084
:1039F00080E491E00E94861468E270E082E491E045
:103A00000E94861460EF70E084E491E00E948614C6
:103A100064E175E086E491E00E9486146CE271E056
:103A200088E491E00E94861468E270E08AE491E004
:103A30000E94861461E070E084E591E00E948614A3
:103A400061E070E086E591E00E94861469E170E033
:103A500088E591E00E9486146AEF70E08AE591E0C3
:103A60000E9486146CE070E08CE591E00E94861460
:103A700064E670E08EE591E00E9486146FEA70E0E3
:103A800080E691E00E9486146AEF70E082E691E0A1
:103A90000E9486146EE571E084E691E00E9486142F
:103AA00068E572E086E691E00E94861464E170E0C9
:103AB00088E691E00E94861469E170E08AE691E070
:103AC0000E94861469E170E08CE691E00E94861401
:103AD0006EE170E08EE691E00E94861466E270E08E
:103AE00080E791E00E94861460E070E082E791E058
:103AF0000E94861460E070E084E791E00E948614E2
:103B000060E070E086E791E00E94861460E070E07B
:103B100088E791E00E94861460E070E08AE791E017
:103B20000E94861460E070E08CE791E00E948614A9
:103B300060E070E08EE791E00E94861460E070E043
:103B400080E891E00E94861460E070E082E891E0F5
:103B50000E94861460E070E084E891E00E94861480
:103B60006AE070E086E891E00E9486146AE070E006
:103B700088E891E00E9486146AE070E08AE891E0AB
:103B80000E9486146AE070E08CE891E00E9486143E
:103B90006AE070E08EE891E00E9486146CE271E0C9
:103BA00080E991E00E9486146CE271E082E991E084
:103BB0000E9486146CE271E084E991E00E94861410
:103BC00060E971E086E991E00E94861464EF71E09B
:103BD00088E991E00E94861464EF71E08AE991E03F
:103BE0000E94861464EF71E08CE991E00E948614D3
:103BF0006EEE72E08EE991E00E94861460E273E05E
:103C000080EA91E00E94861468EE73E082EA91E017
:103C10000E9486146CEA7DE084EA91E00E9486149A
:103C20006CEA7DE086EA91E00E9486146CEA7DE011
:103C300088EA91E00E9486146CEA7DE08AEA91E0CD
:103C40000E9486146CEA7DE08CEA91E00E94861462
:103C50006AE070E08EEA91E00E9486146AE070E00B
:103C600080EB91E00E9486146AE070E082EB91E0C4
:103C70000E94861466E170E084EB91E00E94861455
:103C80006EE170E086EB91E00E94861468E873E1D3
:103C900088EB91E00E9486146AEF70E08AEB91E075
:103CA0000E94861468EE73E08CEC91E00E9486140A
:103CB00066E470E08EEC91E00E9486146AE570E0A4
:103CC00080ED91E00E94861464E670E082ED91E060
:103CD0000E94861464E670E084ED91E00E948614F0
:103CE00061E070E086ED91E00E94861460E070E093
:103CF00088ED91E00E94861460E070E08AED91E02A
:103D00000E94861460E070E08CED91E00E948614C1
:103D100060E070E08EED91E00E94861468EE73E042
:103D200080EE91E00E94861468EB7BE082EE91E0E9
:103D30000E94861468EB7BE084EE91E00E9486147A
:103D400068EB7BE086EE91E00E94861468EB7BE0F6
:103D500088EE91E00C9486144091B3035091B40323
:103D60006091B5037091B60384E090E00E94C314A3
:103D700040919A0350919B0360919C0370919D0325
:103D800088E090E00E94C3144091AF035091B003CB
:103D90006091B1037091B2038CE090E00E94C31473
:103DA0004091AB035091AC036091AD037091AE03B1
:103DB00084E190E00E94C3144091B7035091B8038E
:103DC0006091B9037091BA0388E190E00E94C31436
:103DD00040918703509188036091890370918A0311
:103DE00080E190E00E94C3144091A3035091A4038A
:103DF0006091A5037091A6038CE190E00E94C3142A
:103E00004091A7035091A8036091A9037091AA0360
:103E10008CE390E00E94C31440919F035091A00353
:103E20006091A1037091A20380E290E00E94C3140C
:103E300040918303509184036091850370918603C0
:103E400084E290E00E94C31440918D0350918E0350
:103E500060918F037091900388E290E00E94C314F8
:103E60004091950350919603609197037091980348
:103E70008CE290E00E94C3140E94890B20E030E0A5
:103E800040EC5FE30E94D32587FF08C00E940B0C23
:103E9000AB01BC0180E390E00C94C31408954F92F1
:103EA0005F926F927F928F929F92AF92BF92CF92CA
:103EB000DF92EF92FF92CF93DF938CEC90E00E9421
:103EC0000F27BC0180E090E00E94D82520919A0342
:103ED00030919B0340919C0350919D030E945F276A
:103EE0006B017C0180908D0390908E03A0908F03D6
:103EF000B0909003A50194016091830370918403B5
:103F000080918503909186030E94CC270E943E28D1
:103F1000EB01072E000C880B990B0E94DA252B0170
:103F20003C01E89477F82FEF3FEF4FE75FE7C301DD
:103F3000B2010E94C92881110CC02FEF3FEF4FE75B
:103F40005FE7C301B2010E94D325181614F4C0E044
:103F5000D0E0BE01DD0F880B990B0E94DA259B0192
:103F6000AC01C701B6010E94CC276B017C0120E0A7
:103F700030E040E850E4C501B4010E9474281816EE
:103F8000D4F4C701B6010E943E28709338056093AF
:103F9000370510928D0310928E0310928F031092AA
:103FA0009003109283031092840310928503109261
:103FB00086030E94AC1EC0913705D09138051C16AF
:103FC0001D06C4F420E030E040E85FE360918D031B
:103FD00070918E0380918F03909190030E94D3255E
:103FE00087FF08C0BE01DD0F880B990B0E94DA2500
:103FF0006B017C0146015701E894B7F82FEF3FEFC2
:104000004FE75FE7C501B4010E94C92881110AC0CA
:104010002FEF3FEF4FE75FE7C501B4010E94D325C3
:104020001816C4F020E030EC49E754E4C701B601AB
:104030000E947428181674F020E030E040E450E448
:10404000C701B6010E94D32587FF0BC0C12CD12C1C
:10405000760107C0C12C80ECD82E89E7E82E84E4D5
:10406000F82EC701B6010E943E28CB01DF91CF9107
:10407000FF90EF90DF90CF90BF90AF909F908F9088
:104080007F906F905F904F9008958F929F92AF9224
:10409000BF92CF92DF92EF92FF922091B7033091BF
:1040A000B8034091B9035091BA03609187037091AE
:1040B00088038091890390918A030E94CC276B0129
:1040C0007C019B01AC010E94C928811118C04601E6
:1040D0005701E894B7F82FEF3FEF4FE75FE7C501CF
:1040E000B4010E94C92881110DC02FEF3FEF4FE7A7
:1040F0005FE7C501B4010E94D32518161CF4C12C3A
:10410000D12C7601C701B601FF90EF90DF90CF90E0
:10411000BF90AF909F908F900895CF92DF92EF92D3
:10412000FF92C0909503D0909603E0909703F09093
:1041300098038AEC90E00E940F27BC0180E090E099
:104140000E94D82520E030E040E251E40E94CC27D4
:104150009B01AC01C701B6010E94CC270E943E28FA
:10416000CB01FF90EF90DF90CF900895CF92DF9238
:10417000EF92FF928AEC90E00E940F27BC0180E052
:1041800090E00E94D82520E030E048EC52E40E9404
:1041900039266B017C0120919F033091A00340914F
:1041A000A1035091A2030E945F27A70196010E94DC
:1041B000CC2720E030E048EC52E40E9439260E94EF
:1041C0003E28CB0177FF02C080E090E0FF90EF90A7
:1041D000DF90CF9008958F929F92AF92BF92CF922F
:1041E000DF92EF92FF922091AB033091AC034091AC
:1041F000AD035091AE036091B7037091B803809105
:10420000B9039091BA030E94CC2720E030E040E748
:1042100052E40E9439266B017C014B015C01E89459
:10422000B7F82FEF3FEF4FE75FE7C501B4010E94FA
:10423000C92881110AC02FEF3FEF4FE75FE7C501A3
:10424000B4010E94D325181644F0A7019601C701B6
:10425000B6010E94C928882319F0C12CD12C7601FF
:10426000C701B601FF90EF90DF90CF90BF90AF9065
:104270009F908F900895CF92DF92EF92FF92CF930D
:10428000DF936B017C0120E030E040E251E40E94CA
:10429000D32587FF03C0C1E5D0E002C0C0E0D0E075
:1042A00020E030E040E251E4C701B6010E947428EA
:1042B00087FD0CC020E030E048EC52E4C701B601B5
:1042C0000E94D32587FF02C0C5E4D0E020E030E0A3
:1042D00048EC52E4C701B6010E94742887FD0CC067
:1042E00020E030E04AE754E4C701B6010E94D3253C
:1042F00087FF02C0C9E3D0E020E030E04AE754E4A1
:10430000C701B6010E94742887FD02C0CDE2D0E04B
:10431000CE01DF91CF91FF90EF90DF90CF90089585
:104320000F931F930E942E196093F8037093F90363
:104330008093FA039093FB03E091F003F091F10373
:104340000484F585E02D80EF93E0099597FF1FC069
:104350000E942E190091F8031091F9032091FA039D
:104360003091FB03DC01CB01801B910BA20BB30B43
:104370000091F4031091F5032091F6033091F703B7
:1043800080179107A207B307B8F28FEF9FEF1F9135
:104390000F910895CF93DF93EC0161E085E00E94D7
:1043A000B618209711F460E004C0CF3FD10531F476
:1043B00061E085E0DF91CF910C948618E0E0F2E0B7
:1043C000E491E330F9F048F4E130B9F0E230A1F5DE
:1043D00084B5806284BDC8BD34C0E730E9F0E83000
:1043E00019F1E43049F5809180008062809380006B
:1043F000D0938B00C0938A0024C084B5806884BDAC
:10440000C7BD1FC080918000806880938000D093DA
:104410008900C093880015C08091B00080688093A7
:10442000B000C093B3000DC08091B0008062809353
:10443000B000C093B40005C0C038D1050CF0B8CFAF
:10444000B2CFDF91CF910895FF920F931F93CF9337
:10445000DF9300D000D0CDB7DEB70E949021FC01E1
:1044600097FD11C08D32910591F0C0970A9778F0B1
:10447000E091F003F091F1030284F385E02D80EFE9
:1044800093E00995EACF60E070E0CB014CC020E0FA
:1044900030E0A901F12CE130F105F1F0ED32F10548
:1044A000C9F0CF01C0970A97B8F4AAE0B0E00E9423
:1044B00023278F01FF0F220B330BDC01CB01800F71
:1044C000911FA21FB31F9C01AD0120533109410967
:1044D000510902C0FF24F394E091F003F091F1033D
:1044E0000284F385E02D80EF93E029833A834B83A8
:1044F0005C8309950E949021FC01C09729813A8133
:104500004B815C810A9738F2E130F10521F2FF20FE
:1045100041F066277727CB01621B730B840B950B49
:1045200002C0CA01B9010F900F900F900F90DF9158
:10453000CF911F910F91FF900895CF93DF93242F78
:10454000AB01BC018AEC94E00E940F17EC0168E615
:1045500073E08AEC94E00E94B1168C0F9D1FDF91EE
:10456000CF910895CF93DF93AC01990F660B770B32
:104570008AEC94E00E940515EC0168E673E08AEC91
:1045800094E00E94B1168C0F9D1FDF91CF9108958A
:10459000789484B5826084BD84B5816084BD85B51E
:1045A000826085BD85B5816085BD80916E0081602A
:1045B00080936E00109281008091810082608093D0
:1045C00081008091810081608093810080918000D2
:1045D0008160809380008091B10084608093B100FD
:1045E0008091B00081608093B00080917A008460F7
:1045F00080937A0080917A00826080937A00809123
:104600007A00816080937A0080917A00806880933C
:104610007A001092C100E0910004F091010482E060
:104620008083E091FC03F091FD031082E091FE0392
:10463000F091FF038FEC808310920804E091040452
:10464000F091050486E08083E0910204F091030478
:10465000808180618083E0910204F0910304808175
:1046600088608083E0910204F09103048081806877
:104670008083E0910204F091030480818F7D808328
:1046800082E390E0A0E0B0E08093F4039093F50320
:10469000A093F603B093F70361E085E00E94B6189B
:1046A00080E090E00E94CA2162E086E00E94B61895
:1046B00062E087E00E94B61862E088E00E94B618C7
:1046C0008EEF90E00E940F27029718F086E69BE19C
:1046D00002C08AE79BE1909307018093060182E084
:1046E00090E00E94841962E080E10E94B61862E0C6
:1046F00081E10E94B61862E084E10E94B61862E08F
:1047000085E10E94B61862E084E00E94B61862E07B
:1047100089E00E94B61862E08AE00E94B61862E062
:104720008BE00E94B61862E08CE00E94B61862E04E
:104730008DE00E94B6180E947C0F0E94161480E043
:1047400090E00E940F278B33904309F0B6C084E0BD
:1047500090E00E944E1B6093B3037093B403809368
:10476000B5039093B60388E090E00E944E1B6093DF
:104770009A0370939B0380939C0390939D038CE01A
:1047800090E00E944E1B6093AF037093B003809340
:10479000B1039093B20384E190E00E944E1B6093BA
:1047A000AB037093AC038093AD039093AE0388E1A9
:1047B00090E00E944E1B6093B7037093B803809300
:1047C000B9039093BA0380E190E00E944E1B60937E
:1047D0008703709388038093890390938A038CE105
:1047E00090E00E944E1B6093A3037093A4038093F8
:1047F000A5039093A6038CE390E00E944E1B609368
:10480000A7037093A8038093A9039093AA0380E25F
:1048100090E00E944E1B60939F037093A0038093CF
:10482000A1039093A20384E290E00E944E1B609348
:10483000830370938403809385039093860388E2B7
:1048400090E00E944E1B60938D0370938E038093C3
:104850008F03909390038CE290E00E944E1B609334
:1048600095037093960380939703909398030E9407
:104870000B141092E3041092E20482E08093DE04B1
:1048800081E090E09093DD048093DC049093DB045E
:104890008093DA048BE090E09093D7048093D60461
:1048A0001092D9041092D80468E573E08AEC94E081
:1048B0000E94F1170E941614FFCFC2E0D0E063E01F
:1048C00079EDCE010E9486142296C11582E0D807A8
:1048D000B1F70E94A01B0E940B141092E3041092E7
:1048E000E20482E08093DE0481E090E09093DD04B6
:1048F0008093DC049093DB048093DA048BE090E0F7
:104900009093D7048093D6041092D9041092D804BF
:1049100060E673E08AEC94E00E94F1170E9416149E
:10492000FFCF8F929F92AF92BF92CF92DF92EF9282
:10493000FF921F93CF93DF93E0EFF3E01382128295
:1049400088EE93E0A0E0B0E084839583A683B783EC
:104950008EE193E09183808385EC90E09587848756
:1049600084EC90E09787868780EC90E0918B808B39
:1049700081EC90E0938B828B82EC90E0958B848B22
:1049800086EC90E0978B868B118E128E138E148E90
:1049900080E491E00E940F27BC01C4E0D5E08CEFD9
:1049A00094E0998B888B80E095E09F878E8788EFD5
:1049B00094E09B8B8A8B11E01CA780E090E0A0E242
:1049C000B2E48CA39DA3AEA3BFA3072E000C880B5B
:1049D000990B0E94DA2568A779A78AA79BA78BE481
:1049E00090E0A0E0B0E088A399A3AAA3BBA381E0D4
:1049F00090E09D878C871DA78DECC82E8CECD82E5F
:104A0000ED2C8DE3F82EC882D982EA82FB8280E900
:104A100092ECA5EFBBE38C839D83AE83BF838AEAD0
:104A20009AEAAAEABFE388879987AA87BB870E9488
:104A30002E1988A099A0AAA0BBA0DC01CB018819DF
:104A40009909AA09BB098C8B9D8BAE8BBF8BEAECB5
:104A5000F4E01382128220E830E03583248380E280
:104A600090E0978386833187208793878287158A92
:104A70001586148617861686148B8FEF9FEF938BFF
:104A8000828B918B808B168B178A118E108E80E310
:104A900093E0918380838FEF848F80A3868F858FAF
:104AA00084E0878FE5ECF4E088E48083148213824D
:104AB00088E081831282EDEBF4E0C082D182E28251
:104AC000F38280E090E0ABE1B5E484839583A68334
:104AD000B783E5EBF4E0C082D182E282F38280E02A
:104AE00090E0A0EAB0E484839583A683B783EDEADF
:104AF000F4E08DEC9CECACE4BEE380839183A28374
:104B0000B38340E050E06FE275E4448355836683ED
:104B10007783E5EAF4E02FE8C22E22ECD22E25EFCF
:104B2000E22E2CE3F22EC082D182E282F3824AE9A5
:104B300059E969E97EE34483558366837783EDE928
:104B4000F4E0C082D182E282F3824483558366839B
:104B50007783E5E9F4E080839183A283B3831482B1
:104B6000158216821782EDE8F4E08DEC9CECACEC3B
:104B7000BEE380839183A283B3831482158216825D
:104B8000178284E690E09093330580933205DF919D
:104B9000CF911F91FF90EF90DF90CF90BF90AF909B
:104BA0009F908F9008950E94152608F481E0089543
:104BB000E89409C097FB3EF49095809570956195B7
:104BC0007F4F8F4F9F4F9923A9F0F92F96E9BB276D
:104BD0009395F695879577956795B795F111F8CFE9
:104BE000FAF4BB0F11F460FF1BC06F5F7F4F8F4F54
:104BF0009F4F16C0882311F096E911C0772321F04A
:104C00009EE8872F762F05C0662371F096E8862FE1
:104C100070E060E02AF09A95660F771F881FDAF738
:104C2000880F9695879597F90895990F0008550F65
:104C3000AA0BE0E8FEEF16161706E807F907C0F022
:104C400012161306E407F50798F0621B730B840B2A
:104C5000950B39F40A2661F0232B242B252B21F404
:104C600008950A2609F4A140A6958FEF811D811DA4
:104C700008950E944C260C94BD260E94AF2638F061
:104C80000E94B62620F0952311F00C94A6260C94D1
:104C9000AC2611240C94F1260E94CE2670F3959F29
:104CA000C1F3950F50E0551F629FF001729FBB2723
:104CB000F00DB11D639FAA27F00DB11DAA1F649FBF
:104CC0006627B00DA11D661F829F2227B00DA11D72
:104CD000621F739FB00DA11D621F839FA00D611DF8
:104CE000221F749F3327A00D611D231F849F600D19
:104CF000211D822F762F6A2F11249F5750409AF042
:104D0000F1F088234AF0EE0FFF1FBB1F661F771FCD
:104D1000881F91505040A9F79E3F510580F00C9498
:104D2000A6260C94F1265F3FE4F3983ED4F38695D3
:104D300077956795B795F795E7959F5FC1F7FE2B38
:104D4000880F911D9695879597F9089597F99F6714
:104D500080E870E060E008959FEF80EC0895002403
:104D60000A941616170618060906089500240A94D0
:104D700012161306140605060895092E0394000C56
:104D800011F4882352F0BB0F40F4BF2B11F460FFE5
:104D900004C06F5F7F4F8F4F9F4F089557FD90580E
:104DA000440F551F59F05F3F71F04795880F97FBEF
:104DB000991F61F09F3F79F08795089512161306A9
:104DC0001406551FF2CF4695F1DF08C016161706D8
:104DD0001806991FF1CF869571056105089408950D
:104DE000E894BB2766277727CB0197F90895DC0164
:104DF000CB01FC01F999FECF06C0F2BDE1BDF89AE6
:104E0000319600B40D9241505040B8F70895F99989
:104E1000FECF92BD81BDF89A992780B50895A8E18B
:104E2000B0E042E050E00C94F926262FF999FECF2D
:104E30001FBA92BD81BD20BD0FB6F894FA9AF99AB7
:104E40000FBE019608950E945027A59F900DB49F14
:104E5000900DA49F800D911D11240895A1E21A2E9A
:104E6000AA1BBB1BFD010DC0AA1FBB1FEE1FFF1F0E
:104E7000A217B307E407F50720F0A21BB30BE40B5E
:104E8000F50B661F771F881F991F1A9469F76095A5
:104E90007095809590959B01AC01BD01CF0108955F
:104EA000A29FB001B39FC001A39F700D811D11246B
:104EB000911DB29F700D811D1124911D08955058B0
:104EC000BB27AA270E9477270C94BD260E94AF26F5
:104ED00038F00E94B62620F039F49F3F19F426F4EA
:104EE0000C94AC260EF4E095E7FB0C94A626E92F73
:104EF0000E94CE2658F3BA176207730784079507F6
:104F000020F079F4A6F50C94F0260EF4E0950B2E23
:104F1000BA2FA02D0B01B90190010C01CA01A0010B
:104F20001124FF27591B99F0593F50F4503E68F166
:104F30001A16F040A22F232F342F4427585FF3CFA7
:104F4000469537952795A795F0405395C9F77EF478
:104F50001F16BA0B620B730B840BBAF09150A1F0C1
:104F6000FF0FBB1F661F771F881FC2F70EC0BA0F47
:104F7000621F731F841F48F4879577956795B795CF
:104F8000F7959E3F08F0B0CF9395880F08F09927CA
:104F9000EE0F9795879508950E94E0270C94BD2603
:104FA0000E94B62658F00E94AF2640F029F45F3FD9
:104FB00029F00C94A62651110C94F1260C94AC26E1
:104FC0000E94CE2668F39923B1F3552391F3951BE4
:104FD000550BBB27AA2762177307840738F09F5F1A
:104FE0005F4F220F331F441FAA1FA9F335D00E2E87
:104FF0003AF0E0E832D091505040E695001CCAF7F4
:105000002BD0FE2F29D0660F771F881FBB1F2617B6
:1050100037074807AB07B0E809F0BB0B802DBF018D
:10502000FF2793585F4F3AF09E3F510578F00C945C
:10503000A6260C94F1265F3FE4F3983ED4F38695C0
:1050400077956795B795F7959F5FC9F7880F911D7D
:105050009695879597F90895E1E0660F771F881F69
:10506000BB1F621773078407BA0720F0621B730B1C
:10507000840BBA0BEE1F88F7E09508950E9445282F
:105080006894B1110C94F12608950E94D62688F0F8
:105090009F5798F0B92F9927B751B0F0E1F0660FFC
:1050A000771F881F991F1AF0BA95C9F714C0B1303D
:1050B00091F00E94F026B1E008950C94F026672F3D
:1050C000782F8827B85F39F0B93FCCF3869577956C
:1050D0006795B395D9F73EF4909580957095619555
:1050E0007F4F8F4F9F4F08950E94152608F48FEF32
:1050F000089516F00C94CE280C94AC2668940C9469
:10510000A6260E94D626A8F39923C1F3AEF3DF9317
:10511000CF931F930F93FF92C92FDD2788232AF087
:105120002197660F771F881FDAF720E030E040E80C
:105130005FEB9FE3883920F0803E38F021968F772F
:105140000E946027EAE7F0E004C00E946027E7EAD7
:10515000F0E00E94DC288B01BE01EC01FB2E6F57B2
:1051600071097595771F880B990B0E94DA2528E144
:1051700032E741E35FE30E944C26AF2D9801AE0178
:10518000FF900F911F91CF91DF910E9477270C9490
:10519000BD260E941526880B990B08959F3F31F07C
:1051A000915020F4879577956795B795880F911D55
:1051B0009695879597F90895DF93CF931F930F9353
:1051C000FF92EF92DF927B018C01689406C0DA2E89
:1051D000EF010E944C26FE01E894A591259135919E
:1051E00045915591A6F3EF010E947727FE019701A3
:1051F000A801DA9469F7DF90EF90FF900F911F916B
:10520000CF91DF910895AA1BBB1B51E107C0AA1FD4
:10521000BB1FA617B70710F0A61BB70B881F991F57
:105220005A95A9F780959095BC01CD010895EE0F90
:10523000FF1F0590F491E02D099481E090E0F8942F
:085240000C942229F894FFCF21
:105248000000A040A716A7160100000000000000FB
:105258000000000000000000000000000000000046
:105268000000000000000000000000000000000036
:105278000000000000000000000000000000000026
:105288000000000000000000000000000000000016
:105298000000000000000000000000000000000006
:1052A80000000000000000000000000000000000F6
:1052B80000000000000000000000000000000000E6
:1052C800000000000000000000000000F0F8D8D83E
:1052D800F8F00000FEFE1018F8F00000F6F60000E6
:1052E800FEFEC0B0180800F0F8D8D8F8F00000F0BA
:1052F800F81818700000F0F81818F8F00000F8F81E
:105308001018F8F01018F8F00000F8F81018F8F075
:105318000000F8F80000F8F80030FCFC303000F02D
:10532800F8D8D8F8F00000F8F8101800000000F0DD
:10533800F81818700000F0F81818F8F00000F8F8DD
:105348001018F8F01018F8F0000000000F1F1818D7
:105358001E0E00001F1F08181F0F00001F1F00004F
:105368001F1F00071E10000F1F18181E0E00000F29
:105378001F18180E00000F1F18181F0F00001F1FFE
:1053880000001F1F00001F1F00003F3F08181F0FCD
:1053980000000F1F18081F1F00001F1F1818000FFC
:1053A8001F18181E0E00001F1F0000181800000FFD
:1053B8001F18180E00000F1F18181F0F00001F1FBE
:1053C80000001F1F00001F1F000000000000000059
:1053D80000000000000000000000000000000000C5
:1053E80000000000000000000000000000000000B5
:1053F80000000000000000000000000000000000A5
:105408000000000000000000000000000000000094
:105418000000000000000000000000000000000084
:105428000000000000000000000000000000000074
:105438000000000000000000000000000000000064
:1054480000000000000000000000000103070F1F1B
:105458003F7F0080C0E0F0F8FCFE000000000B1663
:105468007815A3155216D415B215C61500000000FC
:1054780085067815050A040AE903590952092A0913
:1054880046093A095A0929098804870433018D0213
:1054980050083208BB075C074C42414420424B008D
:1054A800493F493B20424B000D0A003B006E616EAC
:0A54B80000696E66006F7666000062
:00000001FF
