:100000000C948B010C94C9060C94A2060C94B301B9
:100010000C94B3010C94B3010C94E5080C94B30157
:100020000C94B3010C94B3010C94B3010C94B30180
:100030000C94B3010C94B3010C94B3010C94B30170
:100040000C944C060C94B3010C9417050C94F10419
:100050000C94B3010C94B3010C94B3010C94B30150
:100060000C94B3010C94B30171228C22B322C022F0
:10007000C322C622E022E322E92231031B030E033E
:100080008E036903480331031B030E0308000000BD
:10009000BE922449123EABAAAA2ABECDCCCC4C3E7D
:1000A00000000080BEABAAAAAA3E00000000BF006C
:1000B0000000803F0000000000084178D3BB438768
:1000C000D1133D190E3CC3BD4282AD2B3E68EC827C
:1000D00076BED98FE1A93E4C80EFFFBE01C4FF7F01
:1000E0003F000000000000000A0E0D01F2120003A4
:1000F0000E0D05F21800090E0D01F228000A0E0D72
:1001000001F23A000B0E0D01F24E000A0E0D01F243
:1001100060000A0E0D01F27200090E0D01F282005C
:100120000A0E0D01F294000A0E0D01F21E1FE73BAC
:1001300087E1F87FDFF7E1F87E1DCE7F87807FFFC4
:10014000FFFFFF807E7FB1E070381C1C1C1C1C1C54
:100150001C0FFFFC7F1FE43C0701C7C1F00E01C06C
:10016000701F0FFF9FC00780F03E0FC1B8771CE3E0
:100170001CE39FFFFF81C03807007F9FE701C07F1E
:100180001FE4380701C0701E0EFF9F801F8FE7031A
:1001900080EF3FEF3FC7E1F87F1DCF7F87C0FFFFB4
:1001A000C0E0E07038381C1C0E07070383803E1F38
:1001B000CE3B8EE38FC3F1CEE1F87E1FCF7F8FC0A1
:1001C0003E1FEF3B87E1F87F3DFF3DC070390E7F5A
:1001D0001F802C01E600303A1000000000240027A8
:1001E000002A0000000000250028002B000000006D
:1001F000002300260029000404040404040404026B
:1002000002020202020303030303030102040810B3
:100210002040800102040810200102040810200080
:100220000000000000005F000000447D40007F10DF
:100230002844007C04780478FC1824241804043F23
:1002400044247F0804047863140814633F4040404A
:100250003F2A1C7F1C2A3F4038403F0080703000FE
:100260000808080808000060600020100804023E2A
:100270005149453E00427F4000724949494621416B
:10028000494D331814127F1027454545393C4A49DA
:100290004931412111090736494949364649492919
:1002A0001E1F2040201F03017F01032649494932B8
:1002B0007F091929467F090909067F0408107F7FF5
:1002C000021C027F7C1211127C3E4141413E3E41A4
:1002D0004141227F4141413E7F494949417F0909CE
:1002E00009013E414151737F0808087F00417F4169
:1002F0000004020102047F081422417F4040404074
:1003000000000008000201000003040700000000D4
:1003100000000000613811241FBECFEFD8E0DEBF1F
:10032000CDBF13E0A0E0B1E0E6EAFAE702C0059035
:100330000D92A03CB107D9F725E0A0ECB3E001C0D5
:100340001D92AF3CB207E1F711E0CBE8D1E004C069
:100350002197FE010E94463DCA38D107C9F70E9485
:1003600057200C94513D0C940000CF92DF92EF92F5
:10037000FF920F931F93CF93DF936C017A018B0150
:10038000C0E0D0E0CE15DF0589F0D8016D918D0178
:10039000D601ED91FC910190F081E02DC601099507
:1003A000892B11F47E0102C02196ECCFC701DF91A9
:1003B000CF911F910F91FF90EF90DF90CF90089514
:1003C000FC01538D448D252F30E0842F90E0821B5B
:1003D000930B541710F0CF96089501970895FC01E0
:1003E000918D828D981761F0828DDF01A80FB11D6C
:1003F0005D968C91928D9F5F9F73928F90E0089590
:100400008FEF9FEF0895FC01918D828D981731F049
:10041000828DE80FF11D858D90E008958FEF9FEF9D
:100420000895FC01918D228D892F90E0805C9F4F73
:10043000821B91098F739927089588E794E00E94A1
:10044000110221E0892B09F420E0822F0895FC019C
:10045000848DDF01A80FB11DA35ABF4F2C91848D4D
:1004600090E001968F739927848FA689B7892C9382
:10047000A089B1898C9180648C93938D848D98131D
:1004800006C00288F389E02D80818F7D80830895E6
:10049000EF92FF920F931F93CF93DF93EC0181E0D4
:1004A000888F9B8D8C8D981305C0E889F989808190
:1004B00085FD24C0F62E0B8D10E00F5F1F4F0F73CC
:1004C0001127E02E8C8DE8120CC00FB607FCFACF76
:1004D000E889F989808185FFF5CFCE010E94270246
:1004E000F1CF8B8DFE01E80FF11DE35AFF4FF08233
:1004F0000B8FEA89FB898081806207C0EE89FF89C2
:100500006083E889F98980818064808381E090E05C
:10051000DF91CF911F910F91FF90EF900895CF93AE
:10052000DF93EC01888D8823C9F0EA89FB898081FB
:1005300085FD05C0A889B9898C9186FD0FC00FB6CD
:1005400007FCF5CF808185FFF2CFA889B9898C910E
:1005500085FFEDCFCE010E942702E7CFDF91CF913B
:10056000089580E090E0892B29F00E941D028111FE
:100570000C9400000895833081F028F4813099F0C4
:100580008230A1F008958730A9F08830B9F0843026
:10059000D1F4809180008F7D03C0809180008F779F
:1005A00080938000089584B58F7702C084B58F7DD5
:1005B00084BD08958091B0008F7703C08091B00012
:1005C0008F7D8093B000089508958091D30390911A
:1005D000D40301969093D4038093D303089580911C
:1005E000D9039091DA0301969093DA038093D903AB
:1005F00008950F931F93CF93DF939C01611162C005
:10060000CFEFDFEF00E010E0FA013197E930F105BC
:1006100008F084C0E35CFF4F0C94463DC9016AE0DA
:1006200070E00E941E3D8017910711F449E011C04F
:100630002C0F3D1F73C0EAE0F0E0C901BF010E942A
:100640001E3DCB01BF010E941E3D8017910739F46A
:100650004AE54C9FC0014D9F900D112430C04AE0E7
:1006600011C0C90164E670E00E941E3DCB016AE042
:1006700070E00E941E3D8017910719F444E853E092
:1006800017C044E64C9FC0014D9F900D112440C0FF
:10069000E8EEF3E0C901BF010E941E3DCB016AE014
:1006A00070E00E941E3D8017910759F548E253E221
:1006B000C49FC001C59F900DD49F900D1124281B8D
:1006C000390B2CC0C1E0D0E04530510521F506E0E2
:1006D00010E0E0E1F7E2C901BF010E941E3DCB013D
:1006E0006AE070E00E941E3D8017910751F440EAD5
:1006F00055E1C49FC001C59F900DD49F900D11245A
:1007000007C0CE9FC001CF9F900DDE9F900D11249A
:10071000280F391F03C009E010E076CFC901DF912F
:10072000CF911F910F9108950E944C3DDC01ED91F6
:10073000FC910190F081E02D09946115710579F02B
:10074000FB0101900020E9F73197AF01461B570BE1
:10075000DC01ED91FC910280F381E02D099480E0B1
:1007600090E008954F925F926F927F92EF92FF9286
:100770000F931F93CF93DF93CDB7DEB7A1970FB63B
:10078000F894DEBF0FBECDBF7C01FA01CB0119A2E8
:10079000223008F42AE08E010F5D1F4F422E512CAB
:1007A000612C712CBF01A30192010E94393BF90118
:1007B000CA01015011096A3014F4605D01C0695C1E
:1007C000D8016C93232B242B252B61F7B801C7018B
:1007D0000E949D03A1960FB6F894DEBF0FBECDBF59
:1007E000DF91CF911F910F91FF90EF907F906F90CD
:1007F0005F904F9008954F925F926F927F928F9289
:100800009F92AF92BF92CF92DF92EF92FF92CF93DF
:10081000DF93EC016A017B01B22E9A01AB01C701A3
:10082000B6010E94D43C882319F064EB73E027C022
:1008300026013701E89477F82FEF3FEF4FE75FE7A6
:10084000C301B2010E94D43C81110DC02FEF3FEFD4
:100850004FE75FE7C301B2010E94BF3918161CF4CD
:1008600068EB73E00CC02FEF3FEF4FE75FE4C70189
:10087000B6010E947F3C18169CF46CEB73E0CE012D
:10088000DF91CF91FF90EF90DF90CF90BF90AF902E
:100890009F908F907F906F905F904F900C949D03EE
:1008A0002FEF3FEF4FE75FECC701B6010E94BF3962
:1008B00087FDE3CF20E030E0A901C701B6010E9427
:1008C000BF3987FF0AC06DE2CE010E9496034C013A
:1008D000F7FAF094F7F8F09402C0812C912CA12C37
:1008E00060E070E080E09FE3AB1441F020E030E096
:1008F00040E251E40E94D73BA394F6CF9B01AC01A8
:10090000C701B6010E946B3B2B013C010E94503C89
:100910006B017C010E94C4399B01AC01C301B2018F
:100920000E946A3B2B013C012AE0B701A601CE01DF
:100930000E94B2037C01E80CF91CBB2031F06EE28E
:10094000CE010E949603E80EF91EDB2CDD2029F172
:1009500020E030E040E251E4C301B2010E94253AB8
:100960002B013C010E94503C4B01A12CB12C2AE0F0
:10097000B501A401CE010E94B203E80EF91EC50123
:10098000B4010E94C4399B01AC01C301B2010E94B1
:100990006A3B2B013C01DA94D9CFC701DF91CF919B
:1009A000FF90EF90DF90CF90BF90AF909F908F908F
:1009B0007F906F905F904F9008950F931F93CF9308
:1009C000DF93EC010E949D038C0162E773E0CE018E
:1009D0000E949D03800F911FDF91CF911F910F9176
:1009E00008951F920F920FB60F9211242F933F93E9
:1009F0004F935F936F937F938F939F93AF93BF9327
:100A0000EF93FF9388E794E00E942702FF91EF9114
:100A1000BF91AF919F918F917F916F915F914F9116
:100A20003F912F910F900FBE0F901F9018951F921E
:100A30000F920FB60F9211242F938F939F93EF93E2
:100A4000FF93E0918804F09189048081E0918E0405
:100A5000F0918F0482FD12C09081809191048F5F8C
:100A60008F7320919204821751F0E0919104F0E08D
:100A7000E858FB4F958F8093910401C08081FF91CE
:100A8000EF919F918F912F910F900FBE0F901F901C
:100A90001895CF93DF93282F30E0F901E050FD4FF8
:100AA0008491F901E55FFD4FD491F901E950FE4FC2
:100AB000C491CC2391F081110E94BB02EC2FF0E095
:100AC000EE0FFF1FE351FE4FA591B491EC91ED2382
:100AD00081E090E021F480E002C080E090E0DF91CE
:100AE000CF9108951F93CF93DF93282F30E0F90122
:100AF000E050FD4F8491F901E55FFD4FD491F9017C
:100B0000E950FE4FC491CC23C9F0162F81110E94E9
:100B1000BB02EC2FF0E0EE0FFF1FED51FE4FA59151
:100B2000B4918FB7F894111105C09C91ED2FE09509
:100B3000E92302C0EC91ED2BEC938FBFDF91CF91B5
:100B40001F910895CF93DF9390E0FC01E55FFD4F87
:100B50002491FC01E950FE4F8491882361F190E0DB
:100B6000880F991FFC01E752FE4FC591D491FC01FB
:100B7000ED51FE4FA591B491611109C09FB7F89452
:100B80008881209582238883EC912E230BC06230CC
:100B900061F49FB7F8943881822F809583238883EE
:100BA000EC912E2B2C939FBF06C08FB7F894E88151
:100BB0002E2B28838FBFDF91CF9108958E3008F0C0
:100BC0008E508770806480937C0080917A0080646E
:100BD00080937A0080917A0086FDFCCF8091780026
:100BE0002091790090E0922B08953FB7F89480917E
:100BF000430490914404A0914504B091460426B565
:100C0000A89B05C02F3F19F00196A11DB11D3FBF44
:100C1000BA2FA92F982F8827820F911DA11DB11DD2
:100C2000BC01CD0142E0660F771F881F991F4A95CE
:100C3000D1F708952FB7F89460913F047091400464
:100C400080914104909142042FBF08950F931F9308
:100C50008091C603811110C00E941A0600913804C9
:100C60001091390420913A0430913B04601B710BC0
:100C70007093C5036093C40381E08093C6030E9410
:100C80001A06609338047093390480933A04909361
:100C90003B041F910F9108951F920F920FB60F9270
:100CA00011242F933F938F939F93AF93BF93809182
:100CB0003F0490914004A0914104B09142043091CE
:100CC0003E0423E0230F2D3720F40196A11DB11D12
:100CD00005C026E8230F0296A11DB11D20933E04F6
:100CE00080933F0490934004A0934104B093420446
:100CF0008091430490914404A0914504B09146042E
:100D00000196A11DB11D8093430490934404A093C8
:100D10004504B0934604BF91AF919F918F913F914D
:100D20002F910F900FBE0F901F901895E9E6F0E0FD
:100D30002081880F991F880F991F237F822B808322
:100D4000E99A08951F920F920FB60F9211242F93D4
:100D50003F934F935F936F937F938F939F93AF9343
:100D6000BF93EF93FF93E0910C01F0910D01099572
:100D7000FF91EF91BF91AF919F918F917F916F9173
:100D80005F914F913F912F910F900FBE0F901F9049
:100D900018951F920F920FB60F9211242F933F9325
:100DA0004F935F936F937F938F939F93AF93BF9373
:100DB000EF93FF93E0910A01F0910B010995FF91E8
:100DC000EF91BF91AF919F918F917F916F915F91C3
:100DD0004F913F912F910F900FBE0F901F9018953C
:100DE000CF92DF92EF92FF92C090C003D090C103E8
:100DF000E090C203F090C30320E030E044E352E40B
:100E0000C701B6010E94BF3987FF14C08091DD037E
:100E1000811110C020E030E040E050E4C701B6018D
:100E20000E946B3B6093C0037093C1038093C20325
:100E30009093C303FF90EF90DF90CF900895CF93EE
:100E4000DF9300D000D0CDB7DEB744E050E0BC0166
:100E5000CE0101960E94E33A69817A818B819C815F
:100E60000F900F900F900F90DF91CF9108954091C8
:100E7000F7035091F8036091F9037091FA0384E04D
:100E800090E00E94EF164091DE035091DF036091E5
:100E9000E0037091E10388E090E00E94EF1640913A
:100EA000F3035091F4036091F5037091F6038CE025
:100EB00090E00E94EF164091EF035091F003609193
:100EC000F1037091F20384E190E00E94EF164091EB
:100ED000FB035091FC036091FD037091FE0388E1D8
:100EE00090E00E94EF164091CB035091CC036091AB
:100EF000CD037091CE0380E190E00E94EF16409107
:100F0000E7035091E8036091E9037091EA038CE1F3
:100F100090E00E94EF164091EB035091EC0360913A
:100F2000ED037091EE038CE390E00E94EF16409188
:100F3000E3035091E4036091E5037091E60380E2DE
:100F400090E00E94EF164091C7035091C803609152
:100F5000C9037091CA0384E290E00E94EF164091A9
:100F6000D5035091D6036091D7037091D80388E2DE
:100F700090E00E94EF164091CF035091D003609112
:100F8000D1037091D2038CE290E00E94EF160E9490
:100F9000031120E030E040EC5FE30E94BF3987FF9F
:100FA00008C00E948511AB01BC0180E390E00C9465
:100FB000EF1608951092FB031092FC031092FD03AC
:100FC0001092FE031092D5031092D6031092D7030D
:100FD0001092D8031092F3031092F4031092F503C9
:100FE0001092F6031092EF031092F0031092F103A7
:100FF0001092F2031092CB031092CC031092CD0307
:101000001092CE031092C7031092C8031092C90326
:101010001092CA0310923D0410923C041092E70310
:101020001092E8031092E9031092EA031092EB0386
:101030001092EC031092ED031092EE030C9437071C
:101040004F925F926F927F928F929F92AF92BF92D8
:10105000CF92DF92EF92FF920E9485116B017C018B
:101060008EEC90E00E94FB3ABC0180E090E00E9490
:10107000C43920E030E040E251E40E94D73B20E058
:1010800030E040E050E40E946B3B0E94493C072E58
:10109000000C880B990B0E94C6394B015C019B0127
:1010A000AC01C701B6010E946A3B6B017C0180ED77
:1010B00090E00E94FB3ABC0180E090E00E94C439BD
:1010C00020E030E040E251E40E94D73BA5019401CA
:1010D0000E946A3B9B01AC01C701B6010E94D73B4D
:1010E0002DEC3CEC4CE45DE30E946B3B6B017C011E
:1010F00020E030E040E85FE30E947F3C18166CF08F
:1011000020E030E0A901C701B6010E94BF3987FF86
:101110000AC0C12CD12C760106C0C12CD12C80E88C
:10112000E82E8FE3F82E8CEC90E00E94FB3ABC0195
:1011300080E090E00E94C4394B015C018AEC90E0B1
:101140000E94FB3ABC0180E090E00E94C43920E09C
:1011500030E048EC52E40E94253A2B013C01A70103
:101160009601C501B4010E94253A9B01AC01C5015D
:10117000B4010E946A3B6093DE037093DF038093A7
:10118000E0039093E103A7019601C301B2010E941D
:10119000253A9B01AC01C301B2010E946A3B6093F6
:1011A000E3037093E4038093E5039093E603FF90D9
:1011B000EF90DF90CF90BF90AF909F908F907F90F7
:1011C0006F905F904F900C9437071F920F920FB65D
:1011D0000F9211242F933F934F935F936F937F93BD
:1011E0008F939F93AF93BF93EF93FF9361E070E072
:1011F00080E790E00E94B2160E943707FF91EF91BE
:10120000BF91AF919F918F917F916F915F914F911E
:101210003F912F910F900FBE0F901F9018954F92F6
:101220005F926F927F928F929F92AF92BF92CF9276
:10123000DF92EF92FF92CF93DF938CEC90E00E94CD
:10124000FB3ABC0180E090E00E94C4392091DE03AB
:101250003091DF034091E0035091E1030E946A3B2B
:101260006B017C018090D5039090D603A090D703AA
:10127000B090D803A50194016091C7037091C80391
:101280008091C9039091CA030E94D73B0E94493CB8
:10129000EB01072E000C880B990B0E94C6392B011D
:1012A0003C01E89477F82FEF3FEF4FE75FE7C3018A
:1012B000B2010E94D43C81110CC02FEF3FEF4FE7E9
:1012C0005FE7C301B2010E94BF39181614F4C0E0F1
:1012D000D0E0BE01DD0F880B990B0E94C6399B013F
:1012E000AC01C701B6010E94D73B6B017C0120E035
:1012F00030E040E850E4C501B4010E947F3C18167C
:10130000D4F4C701B6010E94493C70933D04609338
:101310003C041092D5031092D6031092D70310927A
:10132000D8031092C7031092C8031092C9031092F9
:10133000CA030E943707C0913C04D0913D041C169B
:101340001D06C4F420E030E040E85FE36091D5037F
:101350007091D6038091D7039091D8030E94BF3932
:1013600087FF08C0BE01DD0F880B990B0E94C639AC
:101370006B017C0146015701E894B7F82FEF3FEF6E
:101380004FE75FE7C501B4010E94D43C81110AC058
:101390002FEF3FEF4FE75FE7C501B4010E94BF3970
:1013A0001816C4F020E030EC49E754E4C701B60158
:1013B0000E947F3C181674F020E030E040E450E4D6
:1013C000C701B6010E94BF3987FF0BC0C12CD12CC9
:1013D000760107C0C12C80ECD82E89E7E82E84E482
:1013E000F82EC701B6010E94493CCB01DF91CF9195
:1013F000FF90EF90DF90CF90BF90AF909F908F9035
:101400007F906F905F904F9008958F929F92AF92D0
:10141000BF92CF92DF92EF92FF922091FB03309127
:10142000FC034091FD035091FE036091CB0370914A
:10143000CC038091CD039091CE030E94D73B6B01EA
:101440007C019B01AC010E94D43C811118C0460173
:101450005701E894B7F82FEF3FEF4FE75FE7C5017B
:10146000B4010E94D43C81110DC02FEF3FEF4FE734
:101470005FE7C501B4010E94BF3918161CF4C12CE6
:10148000D12C7601C701B601FF90EF90DF90CF908D
:10149000BF90AF909F908F900895CF92DF92EF9280
:1014A000FF92C090CF03D090D003E090D103F09092
:1014B000D2038AEC90E00E94FB3ABC0180E090E00D
:1014C0000E94C43920E030E040E251E40E94D73B62
:1014D0009B01AC01C701B6010E94D73B0E94493C69
:1014E000CB01FF90EF90DF90CF900895CF92DF92E5
:1014F000EF92FF928AEC90E00E94FB3ABC0180E000
:1015000090E00E94C43920E030E048EC52E40E94B0
:10151000253A6B017C012091E3033091E403409173
:10152000E5035091E6030E946A3BA70196010E94E1
:10153000D73B20E030E048EC52E40E94253A0E947C
:10154000493CCB0177FF02C080E090E0FF90EF9034
:10155000DF90CF9008958F929F92AF92BF92CF92DB
:10156000DF92EF92FF922091EF033091F0034091D0
:10157000F1035091F2036091FB037091FC038091A1
:10158000FD039091FE030E94D73B20E030E040E74E
:1015900052E40E94253A6B017C014B015C01E89406
:1015A000B7F82FEF3FEF4FE75FE7C501B4010E94A7
:1015B000D43C81110AC02FEF3FEF4FE75FE7C50131
:1015C000B4010E94BF39181644F0A7019601C70163
:1015D000B6010E94D43C882319F0C12CD12C76018D
:1015E000C701B601FF90EF90DF90CF90BF90AF9012
:1015F0009F908F900895CF93DF9388EC90E00E94A6
:10160000FB3A82559F4F880F991F0E94FB3AEC01CD
:101610008CEB91E00E94FB3A892B91F0659784F462
:1016200020E030E040E450E46091190570911A0523
:1016300080911B0590911C050E947F3C181614F4A4
:10164000C1E012C0C1E020E030E040E251E460912E
:1016500021057091220580912305909124050E9417
:101660007F3C18160CF0C0E08C2FDF91CF910895CD
:10167000CF92DF92EF92FF92CF93DF9388EC90E0CE
:101680000E94FB3A88549F4F880F991F0E94FB3A93
:10169000EC018CEB91E00E94FB3A892BC9F1C090E0
:1016A0002105D0902205E0902305F09024058EEBD3
:1016B00091E00E94FB3ABC0180E090E00E94C439B6
:1016C0009B01AC01C701B6010E947F3C181604F5CE
:1016D000C090FF03D0900004E0900104F090020459
:1016E00020E030E040EA50E4C701B6010E94BF3973
:1016F00087FF0EC0BE01DD0F880B990B0E94C63913
:101700009B01AC01C1E0C701B6010E947F3C87FD8F
:10171000C0E08C2FDF91CF91FF90EF90DF90CF90C2
:101720000895CF92DF92EF92FF92CF93DF936B01F8
:101730007C0120E030E040E251E40E94BF3987FFA5
:1017400003C0C1E5D0E002C0C0E0D0E020E030E05E
:1017500040E251E4C701B6010E947F3C87FD0CC006
:1017600020E030E048EC52E4C701B6010E94BF39E6
:1017700087FF02C0C5E4D0E020E030E048EC52E44E
:10178000C701B6010E947F3C87FD0CC020E030E01D
:101790004AE754E4C701B6010E94BF3987FF02C07F
:1017A000C9E3D0E020E030E04AE754E4C701B601E5
:1017B0000E947F3C87FD02C0CDE2D0E0CE01DF91E8
:1017C000CF91FF90EF90DF90CF9008959C010A9702
:1017D0001CF489E690E002C080E090E0A9014A5044
:1017E00051094A35510510F48DE590E0A9014456A0
:1017F00051094438534068F0283E43E034075CF018
:10180000203137421CF089E390E0089585E490E0B0
:10181000089581E590E008950F931F93CF93DF9390
:1018200000D01F92CDB7DEB7AC018091DB03909161
:10183000DC03009719F0873991051CF028EC30E0A3
:1018400001C09C014430510574F40E94F902909348
:10185000DC038093DB030F900F900F90DF91CF910B
:101860001F910F91089589010C591F4F000F111FEF
:10187000C80149835A836B830E94FB3A49815A818C
:101880006B810E94F902BC01C8010F900F900F906C
:10189000DF91CF911F910F910C94B2160F931F936C
:1018A000CF93DF93DC0155968C915597823071F080
:1018B000833009F1813009F08CC01496ED91FC91D0
:1018C0001597E41BF50BE21BF30B20C01496ED916A
:1018D000FC911597CF01861B970BBC0161507109D4
:1018E0001696ED91FC911797CF01841B950BAC01D7
:1018F000421B530B6EC01696ED91FC911797CF01CA
:10190000861B970BBC0161507109FA0177FD1BC161
:1019100016968D919C911797681779070CF013C153
:10192000F7FF04C02E0F3F1FE0E0F0E014968D910A
:101930009C911597AF01420F531F841795071CF414
:101940009C012E1B3F0B121613060CF0FCC0CB01A2
:1019500077FD079643E0959587954A95E1F796952B
:10196000982F882797958795E80FF91FEB5EFE4F14
:101970006770772781E090E001C0880F6A95EAF7E9
:10198000482F0130110541F088F00230110509F0AF
:10199000DAC02E0F3F1F15C02E0F3F1FE217F307AF
:1019A00009F4D1C08081842B8193F8CF80952E0FCC
:1019B0003F1FE217F30709F4C6C090819823919363
:1019C000F8CFE217F30709F4BEC080818427819322
:1019D000F8CF77FDB8C014968D919C911597681734
:1019E00079070CF0B0C057FF04C0240F351F40E04A
:1019F00050E016968D919C911797FA01E20FF31F14
:101A00008E179F071CF49C01241B350B121613061E
:101A10000CF099C0A22F842F86958695869590E824
:101A2000899F600D711D1124FB01EB5EFE4F477015
:101A3000A9F198E0941B492F50E0EA01C35EDC4F06
:101A40008881291790F4421B51092FEF30E002C022
:101A5000359527954A95E2F782230130110541F02B
:101A600068F00230110589F06EC00130110519F4DB
:101A70002081822B0CC00130110520F4809520813B
:101A8000822305C00230110531F420818227808332
:101A9000A91708F458C0A91BE058FF4FA83048F117
:101AA0000230110559F4EF018A2F9881909598839F
:101AB000C058DF4F88508830C0F730C081E0013017
:101AC000110509F080E08195EF019A2F8883C058B5
:101AD000DF4F98509830D0F788EF8A0F869586951B
:101AE000869590E8899FE00DF11D1124E058FF4F85
:101AF000A770AA2341F1B0E0AB5EBC4F8C910130DE
:101B0000110529F038F002301105D1F01CC0908188
:101B1000892B18C080959081892314C088EF8A0F83
:101B200086958695869590E8899FE00DF11D112494
:101B3000E058FF4FA77039F0B0E0AB5EBC4F8C911E
:101B4000908189278083DF91CF911F910F91089514
:101B50004F925F926F927F928F929F92AF92BF92BD
:101B6000CF92DF92EF92FF92CF93DF9300D000D01D
:101B7000CDB7DEB76B017C014115510539F420E08A
:101B800030E048EC52E40E94253AB1C042305105A1
:101B900019F044305105C9F48DED9CEAA6E6B7E38F
:101BA00089839A83AB83BC8325E0422E21EC522E9D
:101BB00021E6622E2BEB722E36E0832E3EE4932E2E
:101BC00039EBA32E3CE3B32E18C089E597E4ACEBC8
:101BD000B3E389839A83AB83BC8383E7482E8FE783
:101BE000582E85E7682E89E3782E9BEE892E99245E
:101BF0009A9493E9A92E9AE3B92E60910401709109
:101C0000050180910601909107014350510942302E
:101C10005105B8F02FE135E84BE25FE30E946A3BE3
:101C200020E030E849E055E40E94253AA7019601FA
:101C30000E94D73B20E030E849E055E40E946A3B2F
:101C40001EC0A70196010E94D73B20E030E040E88B
:101C50005FE30E946A3B2DEC3CEC4CE050E40E94B8
:101C6000253A20E030E040E85FE30E946A3B9B01B8
:101C7000AC0160E070E889E095E40E94D73B0E94E7
:101C80008C3C6B017C019B01AC01C301B2010E9441
:101C9000253A9B01AC01C501B4010E946B3B4B018D
:101CA0005C01A7019601C701B6010E94253AA70170
:101CB00096010E94253A9B01AC0169817A818B8152
:101CC0009C810E94253A9B01AC01C501B4010E9490
:101CD0006B3B9B01AC0160E070E080E89FE30E94F9
:101CE000D73B23E333E948E853E40E946A3B0E9470
:101CF000493C7B0188E191E00E94FB3A892BB9F0D5
:101D0000B701FF0C880B990B0E94C63926E636E610
:101D100046EE5FE30E94253A20E030E040E052E4E6
:101D20000E946B3B0E94493C262F972F02C02E2D0C
:101D30009F2D822F0F900F900F900F90DF91CF91DA
:101D4000FF90EF90DF90CF90BF90AF909F908F90DB
:101D50007F906F905F904F900895CF93DF93EC0149
:101D60004130510519F480E390E002C080E090E03A
:101D700090936F0580936E0586E090E090937105D7
:101D800080937005C03187E2D80748F5653071054A
:101D9000B1F540E050E0BA0182E695E00E943117CB
:101DA000C83E83E0D807D8F440E050E0BA0182E6AC
:101DB00095E00E943117C436D10588F440E050E028
:101DC000BA0182E695E00E943117CA30D10538F495
:101DD00040E050E0BA0182E695E00E943117AE0182
:101DE00060E070E02AE082E695E00E94B20362E7DC
:101DF00073E082E695E0DF91CF910C949D03C83E9D
:101E000083E0D807C0F2EBCF80917A0590917B05F3
:101E1000892B49F0809170059091710506979093F8
:101E200071058093700510927B0510927A0582E00F
:101E30008093760581E090E090937505809374051A
:101E400090937305809372050895CF938091DD037D
:101E5000811126C182E080937D058CE380937C050F
:101E60001092BC0080917E058F3F09F4BDC061E0F7
:101E7000809180050E94A20561E0809182050E9408
:101E8000A20580918205082E000C990BFC01E950F7
:101E9000FE4FE491F0E0EE0FFF1FED51FE4F259154
:101EA00034913093890520938805FC01E55FFD4F4F
:101EB000E491E0938E0580918005082E000C990B2B
:101EC000FC01E950FE4FE491F0E0EE0FFF1FED51F1
:101ED000FE4F2591349130938B0520938A05FC01A8
:101EE000E55FFD4FE491E0938F05809183058111BB
:101EF0003EC061E080917E050E94A20561E0809174
:101F00007F050E94A20580917F05082E000C990B89
:101F1000FC01E950FE4FE491F0E0EE0FFF1FED51A0
:101F2000FE4F259134913093870520938605FC015F
:101F3000E55FFD4FE491E0938D0580917E05082ECD
:101F4000000C990BFC01E950FE4FE491F0E0EE0F1C
:101F5000FF1FED51FE4F259134913093850520935D
:101F60008405FC01E55FFD4FE491E0938C058091D1
:101F70008305882309F445C0CFB7F89480915304B2
:101F8000811127C0E1E0F2E08491E5E1F2E0949173
:101F9000E82FF0E0EE0FFF1FE752FE4FA591B4913E
:101FA000EC91E92321F461E08AE00E94720561E08E
:101FB0008AE00E94A2058CB580618CBD8CB58064DE
:101FC0008CBD61E08DE00E94A20561E08BE00E9483
:101FD000A205809153048F5F80935304CFBF80E5A7
:101FE0008CBD81E08DBD0DC00E94FE1580E2809306
:101FF000B800449845988EE190E0909377048093E0
:1020000076048EEA0E940F1685ED0E940F1680E876
:102010000E940F1688EA0E940F168FE10E940F1689
:1020200083ED0E940F1680E00E940F1680E40E944C
:102030000F168DE80E940F1684E10E940F1680E2B1
:102040000E940F1680E00E940F1681EA0E940F1670
:1020500088EC0E940F168AED0E940F1682E00E9403
:102060000F1681E80E940F168FEF0E940F1689ED60
:102070000E940F1681EF0E940F168BED0E940F1623
:1020800080E40E940F1684EA0E940F1686EA0E94DE
:102090000F168EE20E940F168FEACF910C940F1646
:1020A000CF910895CF92DF92EF92FF928091E20359
:1020B000882311F1C090C003D090C103E090C20307
:1020C000F090C30320E030E040EC50E4C701B601DB
:1020D0000E947F3C181684F420E030E040E050E499
:1020E000C701B6010E946A3B6093C0037093C103AD
:1020F0008093C2039093C303FF90EF90DF90CF9043
:102100000895CF92DF92EF92FF928091E2038111C6
:1021100042C080911201909113010197E1F586E58B
:1021200091E00E94FB3A892BB1F58AE491E00E948C
:10213000FB3A892B81F181E08093E20320E030E0DB
:1021400040E650E46091FF03709100048091010427
:10215000909102040E946B3B6B017C0120E030E017
:1021600044E352E40E947F3C18166CF480E090E057
:10217000A4E3B2E48093C0039093C103A093C2038D
:10218000B093C30308C0C092C003D092C103E092D1
:10219000C203F092C303FF90EF90DF90CF900895B9
:1021A0000E941A0620914F0430915004CB01821BEB
:1021B000930B08950E941A0660934F047093500485
:1021C000809351049093520408958CE191E00E9411
:1021D000FB3AAC016091390570913A0580913B055D
:1021E00090913C050C94A80D8AE191E00E94FB3A85
:1021F000AC01609141057091420580914305909139
:1022000044050C94A80D4F925F926F927F928F922B
:102210009F92AF92BF92CF92DF92EF92FF92809007
:10222000590590905A05A0905B05B0905C0584ED2F
:1022300090E00E94FB3A892B39F0C12CD12C90E818
:10224000E92E9FEBF92E06C0C12CD12C80E8E82E98
:102250008FE3F82E20E030E04AEF53E4609151051F
:102260007091520580915305909154050E94253A32
:102270002B013C0184E690E00E941F079B01AC010A
:10228000C301B2010E946A3BA50194010E946A3B0E
:102290009B01AC01C701B6010E94253A6B017C018C
:1022A00082ED90E00E94FB3ABC0180E090E00E9449
:1022B000C4399B01AC01C701B6010E94D73B6B0139
:1022C0007C0120E030E040E05FE30E94BF3987FFFF
:1022D0000DC020E030E040E05FEBC701B6010E9496
:1022E0007F3C18161CF4C12CD12C7601C701B60115
:1022F000FF90EF90DF90CF90BF90AF909F908F9026
:102300007F906F905F904F900895CF92DF92EF9201
:10231000FF92CF93DF9382E00E940C15EC0186EDD3
:1023200090E00E94FB3ABC0180E090E00E94C4393A
:1023300020E034E244E759E40E94D73B6B017C0182
:10234000BE0180E090E00E94C43920E030E040E42B
:102350005EE30E94253A0E94493C072E000C880B40
:10236000990B0E94C6399B01AC01C701B6010E94BE
:10237000253ADF91CF91FF90EF90DF90CF900895B5
:10238000CF92DF92EF92FF9286ED90E00E94FB3AAF
:10239000BC0180E090E00E94C43920E034E244E7D0
:1023A00059E40E94D73B6B017C0160914905709113
:1023B0004A0580914B0590914C050E94493C072E9F
:1023C000000C880B990B0E94C6399B01AC01C70118
:1023D000B6010E94253AFF90EF90DF90CF900895CC
:1023E000CF92DF92EF92FF920E94C0116B017C01AD
:1023F0000E9403119B01AC01C701B6010E94253A5E
:10240000FF90EF90DF90CF90089583E00E940C152D
:10241000BC0180E090E00E94C4392AE939E949E929
:102420005CE30E94253A0E94493CCB0108958F92BB
:102430009F92AF92BF92CF92DF92EF92FF920F9353
:102440001F93FA0169018617970734F09C0148171A
:1024500059071CF49A0101C09B010D2C000CEE08D9
:10246000FF084B01770FAA08BB08C901330FAA0B5D
:10247000BB0B9C01AD01281939094A095B09C80148
:10248000110FAA0BBB0BBC01CD016C197D098E0984
:102490009F090E940E3D8F01FF0F220B330BA901F4
:1024A0009801281939094A095B090E940F3BDA0192
:1024B000C9018C0D9D1DAE1DBF1D1F910F91FF9079
:1024C000EF90DF90CF90BF90AF909F908F90089546
:1024D000AF92BF92CF92DF92EF92FF920F931F9332
:1024E000CF93DF93EC017B015A01690101301105A3
:1024F000A1F40E941A0620914B0430914C048B01E8
:10250000021B130B0E941A0660934B0470934C0439
:1025100080934D0490934E0419C002301105A1F42C
:102520000E941A0620914704309148048B01021B37
:10253000130B0E941A06609347047093480480931B
:10254000490490934A0402C000E010E0CE15DF0574
:1025500074F488EE93E0B8010E941E3DC5010E940C
:102560001E3DC60FD71FEC16FD0694F410C0EC16E6
:10257000FD0674F488EE93E0B8010E941E3DC6018A
:102580000E941E3DC61BD70BCE15DF050CF4E701DC
:10259000CE01DF91CF911F910F91FF90EF90DF90CF
:1025A000CF90BF90AF9008958F929F92AF92BF92BD
:1025B000CF92DF92EF92FF92CF93DF93EC01C8802E
:1025C000D980EA80FB809A01AB01C701B6010E9465
:1025D000253A4B015C01A701960160E070E080E8BC
:1025E0009FE30E946A3B2C813D814E815F810E9466
:1025F000253A9B01AC01C501B4010E946B3B6C8381
:102600007D838E839F83DF91CF91FF90EF90DF904A
:10261000CF90BF90AF909F908F9008958091CD05FF
:10262000E091CE05E81BE093CC05811103C0109228
:10263000CC05089581508093CD05F0E0EC5AFB4F16
:102640008281089590918305992339F08EBD000011
:102650000DB407FEFDCF8EB5089528E030E040E8C8
:10266000E0918605F0918705508190918D059095B8
:1026700095239083E0918405F091850590918C05D8
:10268000542F582319F05081952B03C050819095F9
:1026900095239083E0918605F09187055081909174
:1026A0008D05952B9083469521503109C9F60895E3
:1026B000CF92DF92EF92FF92CF93DF930E941A06A0
:1026C0006B017C0184E98093BC00C0917604D091B9
:1026D00077049091BC00892F807194FF18C02097D7
:1026E000C1F30E941A06DC01CB018C199D09AE09C9
:1026F000BF09AE0160E070E084179507A607B70731
:1027000020F31092BC0084E48093BC0081E0DF9150
:10271000CF91FF90EF90DF90CF900895CF92DF920E
:10272000EF92FF92CF93DF938093BB000E941A0633
:102730006B017C0184E88093BC00C0917604D09149
:1027400077048091BC0087FD19C02097D1F30E94C7
:102750001A06DC01CB018C199D09AE09BF09AE0137
:1027600060E070E084179507A607B70730F3109272
:10277000BC0084E48093BC0081E019C08091B90062
:10278000887F883299F08091B900C82FC87F8091E6
:10279000B900887F803319F40E94581305C0109245
:1027A000BC0084E48093BC008C2F01C080E0DF91EA
:1027B000CF91FF90EF90DF90CF900895CF92DF926E
:1027C000EF92FF92CF93DF938093BB000E941A0693
:1027D0006B017C0184E88093BC00C0917604D091A9
:1027E00077048091BC0087FD19C02097D1F30E9427
:1027F0001A06DC01CB018C199D09AE09BF09AE0197
:1028000060E070E084179507A607B70730F31092D1
:10281000BC0084E48093BC0081E023C08091B900B7
:10282000887F883129F08091B900887F803411F445
:1028300080E017C08091B900C82FC87F8091B9008F
:10284000887F803229F08091B900887F883419F41C
:102850000E94581305C01092BC0084E48093BC0011
:102860008C2FDF91CF91FF90EF90DF90CF90089564
:10287000CF92DF92EF92FF92CF93DF930E941A06DE
:102880006B017C0184EA8093BC00C0917604D091F6
:1028900077048091BC0087FD19C02097D1F30E9476
:1028A0001A06DC01CB018C199D09AE09BF09AE01E6
:1028B00060E070E084179507A607B70730F3109221
:1028C000BC0084E48093BC0081E01CC08091B9000E
:1028D000887F883029F08091B900887F803111F499
:1028E00080E010C08091B900887F883341F48091E6
:1028F000B9001092BC0094E49093BC0002C0809197
:10290000B900887FDF91CF91FF90EF90DF90CF905B
:1029100008951F93CF93DF93182FD62FC42F1092B3
:1029200054040E94381480935404811127C0812FCD
:10293000880F0E94DE1380935404882321F0813095
:10294000E9F482E01BC08D2F0E948E138093540403
:10295000882321F0813091F483E010C08C2F0E94F5
:102960008E13809354048111F5CF0E9458138093E5
:102970005404882319F0813009F487E0DF91CF9166
:102980001F910895CF92DF92EF92FF92CF93DF9342
:10299000C82F0E941A066B017C01CC2311F084EC35
:1029A00001C084E88093BC00C0917604D091770484
:1029B0008091BC0087FD19C02097D1F30E941A06B0
:1029C000DC01CB018C199D09AE09BF09AE0160E0A5
:1029D00070E084179507A607B70730F31092BC0084
:1029E00084E48093BC0081E010C08091B900887FAE
:1029F000883341F48091B9001092BC0094E4909324
:102A0000BC0002C08091B900887FDF91CF91FF9018
:102A1000EF90DF90CF9008958F929F92AF92BF92E8
:102A2000CF92DF92EF92FF920F931F93CF93DF939A
:102A3000C0916005D0916105813059F038F0823045
:102A400059F0833061F0C368D1600BC0C368D164B2
:102A500008C0C368D16505C0C368D16602C0C36839
:102A6000D16710915D05109254040E943814809330
:102A70005404811122C0812F880F0E94DE1380939D
:102A8000540481111AC081E00E948E138093540473
:102A9000811113C0D0688D2F0E948E13809354042F
:102AA00081110BC08C2F0E948E13809354048111CE
:102AB00004C00E94581380935404C0905E05D12C2A
:102AC000E12CF12C0E94F5054B015C01C114D104ED
:102AD000E104F104F1F00E94F505DC01CB01881955
:102AE0009909AA09BB09883E9340A105B10570F375
:102AF00021E0C21AD108E108F10848EE840E43E053
:102B0000941EA11CB11CC114D104E104F10419F7F5
:102B1000DDCFC0915D051092CD051092CC0581E00E
:102B200080935504109254040E94381480935404E6
:102B3000811144C0CC0F8C2F0E94DE13809354046B
:102B400081113CC00E948E1380935404811136C0C1
:102B50000E94381480935404811130C081E08C0F9E
:102B60000E94DE1380935404811128C006E514E00E
:102B7000C0E080915504C8131AC080E00E94C214BE
:102B8000809354048835D1F48091BB00F80181937F
:102B90008F0181E08C0F8093CD058093CE05C1E03D
:102BA000823039F70E9458138093540407C081E0A3
:102BB0000E94C21480935404803531F30E940E1396
:102BC000C82F0E940E132C2F30E0322F2227A9018C
:102BD000482BCA0100905F0502C0969587950A941C
:102BE000E2F7DF91CF911F910F91FF90EF90DF906F
:102BF000CF90BF90AF909F908F900895449A459A40
:102C0000E9EBF0E080818E7F808380818D7F8083FF
:102C100088E48093B80084E48093BC000895909188
:102C20007E059F3F49F1E0918805F091890520815B
:102C300090918E05922B9083E0918A05F0918B05FF
:102C4000208190918F05909592239083E091880543
:102C5000F0918905208190918E0590959223908323
:102C60000E942213E0918805F0918905908180915E
:102C70008E05892B80830895482F60E080917C0524
:102C80000C9489140F931F93CF93DF9383ED0E94CD
:102C90000F1680E00E940F1680E40E940F1681E25A
:102CA0000E940F1680E00E940F168FE70E940F16F9
:102CB00082E20E940F1680E00E940F1683E00E94BD
:102CC0000F1680917E058F3F19F405E111E042C097
:102CD000E0918805F0918905908180918E05892B7E
:102CE0008083E0918A05F0918B05908180918F051A
:102CF000892B8083E0918805F091890590818091EE
:102D00008E05809589238083C5E1D1E089910E9459
:102D1000221383E0C531D807C9F7E0918805F09107
:102D20008905908180918E05892B808316C0F801DA
:102D3000EC0FFD1F408160E480917C050E948914A6
:102D40002196C031D10599F7005F1F4F83E005310F
:102D5000180719F0C0E0D0E0EACFDF91CF911F91C2
:102D60000F910895AF92BF92CF92DF92EF92FF92B0
:102D70000F931F93CF93DF9300D0CDB7DEB78C01B5
:102D80007A836983CE0101966C01580192E0A90E05
:102D9000B11CE12CF12CC8010E94F33AF6016191BB
:102DA0006F01861731F0C8010E94013BFFEFEF1A57
:102DB000FF0A0F5F1F4F0A151B0569F781E0EF2817
:102DC00009F480E00F900F90DF91CF911F910F9148
:102DD000FF90EF90DF90CF90BF90AF900895AF92AB
:102DE000BF92CF92DF92EF92FF920F931F93CF93F8
:102DF000DF9300D000D0CDB7DEB78C0149835A8372
:102E00006B837C83CE0101966C01580194E0A90E7E
:102E1000B11CE12CF12CC8010E94F33AF60161913A
:102E20006F01861731F0C8010E94013BFFEFEF1AD6
:102E3000FF0A0F5F1F4F0A151B0569F781E0EF2896
:102E400009F480E00F900F900F900F90DF91CF91D9
:102E50001F910F91FF90EF90DF90CF90BF90AF90B8
:102E60000895CF92DF92EF92FF920F931F93CF932B
:102E7000DF9377FF1DC06A017B01EC016DE20E94C8
:102E800096038C0144275527BA014C195D096E0938
:102E90007F092AE0CE010E94B203800F911FDF91CB
:102EA000CF911F910F91FF90EF90DF90CF900895F9
:102EB0002AE0DF91CF911F910F91FF90EF90DF906B
:102EC000CF900C94B203CF93DF93AB01BC0121E010
:102ED00088E794E00E94FB03EC016EE873E088E76A
:102EE00094E00E949D038C0F9D1FDF91CF91089568
:102EF000CF93DF93AC01990F660B770B88E794E0D3
:102F00000E943117EC016EE873E088E794E00E94BC
:102F10009D038C0F9D1FDF91CF910895CF93DF9379
:102F2000AC0160E070E02AE088E794E00E94B20320
:102F3000EC016EE873E088E794E00E949D038C0F3B
:102F40009D1FDF91CF9108950F931F930E941A0642
:102F5000609380047093810480938204909383042F
:102F6000E0917804F09179040484F585E02D88E7F8
:102F700094E0099597FF1FC00E941A0600918004F3
:102F8000109181042091820430918304DC01CB01F3
:102F9000801B910BA20BB30B00917C0410917D045C
:102FA00020917E0430917F0480179107A207B30718
:102FB000B8F28FEF9FEF1F910F9108950F931F931A
:102FC000CF93DF93DC01FB0155968C9155978230AE
:102FD00081F0833019F1813051F514968D919C91D7
:102FE0001597BC01641B750BAB0141505109BF0122
:102FF00081C014966D917C911597CB018E1B9F0B10
:10300000FC0116968D919C911797BC01641B750B62
:10301000AB0141505109E21BF30B09C016966D91AB
:103020007C9117976E1B7F0B621B730B63C057FD60
:103030001CC116968D919C911797481759070CF053
:1030400014C1F7FF04C02E0F3F1FE0E0F0E014961C
:103050008D919C911597BF01620F731F861797077B
:103060001CF49C012E1B3F0B121613060CF0FDC026
:10307000CA0157FD079663E0959587956A95E1F734
:103080009695982F882797958795E80FF91FEB5EFF
:10309000FE4F4770552781E090E001C0880F4A95A8
:1030A000EAF7482F0130110541F088F00230110590
:1030B00009F0DBC02E0F3F1F15C02E0F3F1FE21778
:1030C000F30709F4D2C08081842B8193F8CF8095D7
:1030D0002E0F3F1FE217F30709F4C7C09081982312
:1030E0009193F8CFE217F30709F4BFC080818427DA
:1030F0008193F8CF57FDB9C014968D919C91159787
:10310000481759070CF0B1C077FF04C0260F371FCE
:1031100060E070E016968D919C911797FB01E20F8D
:10312000F31F8E179F071CF49C01261B370B1216EA
:1031300013060CF09AC0A22F862F86958695869549
:1031400090E8899F400D511D1124FA01EB5EFE4F5E
:103150006770A9F198E0961B492F50E0EA01C35E21
:10316000DC4F8881291790F4421B51092FEF30E082
:1031700002C0359527954A95E2F782230130110563
:1031800041F068F00230110589F06FC0013011057F
:1031900019F42081822B0CC00130110520F4809598
:1031A0002081822305C00230110531F4208182275D
:1031B0008083A91708F459C0A91BE058FF4FA83015
:1031C00048F10230110559F4EF018A2F988190954A
:1031D0009883C058DF4F88508830C0F731C081E0F5
:1031E0000130110509F080E08195EF019A2F888365
:1031F000C058DF4F98509830D0F788EF8A0F8695E7
:103200008695869560E8869FE00DF11D1124E058B3
:10321000FF4FA770AA2349F1B0E0AB5EBC4F8C9181
:103220000130110529F038F002301105D9F01DC028
:103230009081892B03C0809590818923808315C05C
:1032400088EF8A0F86958695869570E8879FE00DB2
:10325000F11D1124E058FF4FA77039F0B0E0AB5ECC
:10326000BC4F8C9190818927E9CFDF91CF911F913D
:103270000F910895FC0177FD9AC0808591856817AC
:1032800079070CF094C057FD92C08285938548174A
:1032900059070CF08CC08589823009F07CC084818C
:1032A0009581DC01A61BB70BBD01615071098681B8
:1032B0009781FC01E41BF50BAF01415051090AC095
:1032C000813041F484819581841B950BAB01BC0155
:1032D000615071092130310529F008F122303105A2
:1032E000E1F10895FA0157FD3796A3E0F595E795CA
:1032F000AA95E1F7F695FE2FEE27F795E7956E0F65
:103300007F1FFB01EB5EFE4F4770552781E090E089
:1033100001C0880F4A95EAF79081892B3AC0FA01DB
:1033200057FD379623E0F595E7952A95E1F7F69551
:10333000FE2FEE27F795E7956E0F7F1FFB01EB5EE3
:10334000FE4F4770552781E090E001C0880F4A95F5
:10335000EAF78095908189231CC0FA0157FD3796C2
:1033600083E0F595E7958A95E1F7F695FE2FEE2730
:10337000F795E7956E0F7F1FFB01EB5EFE4F4770E1
:10338000552781E090E001C0880F4A95EAF79081C7
:10339000892780830895833009F092CF86819781B1
:1033A000861B970BBA01AC014150510993CF089588
:1033B0000895FC016370658B848195812681378136
:1033C000613039F0633029F0918780873387228715
:1033D0000895318720879387828708952F923F929F
:1033E0004F925F926F927F928F929F92AF92BF9215
:1033F000CF92DF92EF92FF920F931F93CF93DF93C1
:10340000CDB7DEB76B970FB6F894DEBF0FBECDBF5A
:103410009B8F8A8F1B012A0118870F83FE82ED8202
:10342000CA82DC0158964D915C915997411551051E
:1034300009F0B7C018968D919C9119976817790774
:103440000CF09BC11A968D919C911B9748165906BA
:103450000CF093C1AC2CB12CCB01B6E0CB9E800D0F
:10346000911D1124181619060CF087C1C50133E00F
:10347000880F991F3A95E1F7840D951D18161906C6
:103480000CF07BC1AA8DBB8D57968C91811103C026
:10349000203B08F02F5FAA8DBB8DED91FC91119719
:1034A0000284F385E02DCD01298F0995298D30E027
:1034B0002052310945E0429FC001439F900D1124E5
:1034C000610141011B82FC01E219F309FA87E987D6
:1034D0009201285F3F4F3C872B873B81353049F075
:1034E000E985FA85E80DF91DE15EFD4F44914983B8
:1034F00001C0198232011201598150FF13C0AA8DF7
:10350000BB8DED91FC91BA81B13031F40484F58525
:10351000E02D2F81388519C00684F785E02DEF80D6
:10352000F8841EC0ED81FE812F813885E217F307F4
:10353000F1F0AA8DBB8DED91FC91BA81B13059F4B7
:103540000484F585E02D2D813E81A301B4018A8D8F
:103550009B8D09950CC00684F785E02DED80FE80DB
:1035600085019501A101B6018A8D9B8D0995E9819F
:10357000E695E983FFEF6F1A7F0A2A0C3B1C2B8527
:103580003C856216730609F0B7CF3B813F5F3B83F2
:103590004FEF841A940ACA0CDB1C363009F09DCF19
:1035A000CAC0FA0134969491329765917491291B9F
:1035B000CB01B7E02B9F800D911D1124FA012591BD
:1035C0003491398B288BFC0165907490FC01329604
:1035D00034913D83319644914D873296C490319613
:1035E00014915A81523058F08C2C0C2C000C9908F4
:1035F000812F012E000C990B9C838B8304C01C82AD
:103600001B82812C912CAA8DBB8DED91FC91119781
:103610000284F385E02DCD010995BA81AB2EB12C42
:103620008A9CC0018B9C900D9A9C900D1124FC01EA
:10363000E20DF31DFC87EB871982912C812CEC2D78
:10364000CC0CFF0B91012E0F3F1F3A872987610198
:103650003D81C30ED11CA6014E0F5F1F5E8B4D8BAB
:10366000C201810F911D17FD9A95988F8F8B5D85F3
:10367000851608F060C0882D90E04B815C81480F72
:10368000591F4A9D90014B9D300D5A9D300D1124BC
:10369000D901A40DB51DBF87AE87C984DA842B84F8
:1036A0003C84B981E985BE1BBA8B2F89388D280FE0
:1036B000391F3C8B2B8B8A898C0D2D893E89C21634
:1036C000D30699F1877041F4C3010196E889F9891D
:1036D000E60DF71D94903C0197FE20C0AA8DBB8D8E
:1036E000ED91FC91BA81B13061F40484F585E02D4F
:1036F0002F8138854B895C89B6018A8D9B8D099510
:103700000DC00684F785E02DEF80F88485019501D2
:103710004E855F85B1018A8D9B8D0995990CEFEFE0
:10372000CE1ADE0A2A0C3B1CC6CF39814D81340FDC
:10373000398383949CCFAA8DBB8DED91FC91119719
:103740000688F789E02DCD016B960FB6F894DEBFA1
:103750000FBECDBFDF91CF911F910F91FF90EF90E2
:10376000DF90CF90BF90AF909F908F907F906F90A1
:103770005F904F903F902F9009946B960FB6F894FE
:10378000DEBF0FBECDBFDF91CF911F910F91FF9094
:10379000EF90DF90CF90BF90AF909F908F907F90F1
:1037A0006F905F904F903F902F900895AF92BF928F
:1037B000CF92EF92FF920F931F93CF93DF93EC0181
:1037C000262F888D998D009709F042C06A3069F4E0
:1037D0002C898E859F8538E0239F800D911D1124B3
:1037E0009F878E871D861C86ACC06D3009F4A9C0EA
:1037F0008E898823C1F03C898C859D8546E0349F65
:10380000800D911D112448855985841795075CF01A
:103810001D861C868E859F85E8E03E9F800D911D4C
:1038200011249F878E87EA88FB88088919894E852D
:103830005F856C857D85CC88CE010E94EE192C8930
:103840008C859D85F6E02F9F800D911D112441C030
:103850006A3079F41D861C862C89FC013696E49129
:103860008E859F852E9F800D911D11249F878E87A9
:1038700068C06D3009F465C0AC014C5F5F4FFA0160
:103880003491631708F45DC03196E491E61708F4AB
:1038900058C0FA014491362F341BFC013296A59092
:1038A000B490F7E03F9FA00CB11C1124F5013296B3
:1038B00034913196E491332311F0E1110DC0F501FB
:1038C0003496E4912C898C859D85E29F800D911D15
:1038D00011249D878C8735C0F501359644915E890A
:1038E000552311F16C89E32FF0E0E40FF11D47FD42
:1038F000FA956E9FD0016F9FB00D11244C855D85A8
:103900004A0F5B1FE885F9854E175F076CF01D862F
:103910001C86FC013696E4918E859F856E9F800DF6
:10392000911D11249F878E87EA88FB880889198951
:103930004E855F856C857D85CC88CE010E94EE1911
:10394000BECF81E090E0DF91CF911F910F91FF906A
:10395000EF90CF90BF90AF9008956F927F928F922B
:103960009F92AF92BF92CF92DF92EF92FF920F930E
:103970001F93CF93DF93EC014B015A01690138018A
:10398000E881F9810284F385E02D0995E881F981C8
:103990000288F389E02D87019601A501B401CE01CB
:1039A0000995E881F981A501460D571D415051093E
:1039B0000288F389E02D9601B401CE010995E881D2
:1039C000F9810088F189E02D9301A501B401CE01B0
:1039D0000995E881F981C80CD91CB60161507109BB
:1039E0000088F189E02D9301A501CE010995E881B8
:1039F000F9810688F789E02DCE01DF91CF911F91E3
:103A00000F91FF90EF90DF90CF90BF90AF909F907D
:103A10008F907F906F900994AF92BF92CF92DF9278
:103A2000EF92FF920F931F93CF93DF9300D000D0BC
:103A3000CDB7DEB75C016901DC01ED91FC91621745
:103A4000730781F4048CF58DE02D041715071CF025
:103A5000CA01980102C09A01C801281B390B2F5FC7
:103A60003F4F14C04017510719F59B016C157D0598
:103A70000CF49601CB01C616D7060CF4C601281B20
:103A8000390B2F5F3F4F068CF78DE02D8701C50165
:103A900009950F900F900F900F90DF91CF911F918C
:103AA0000F91FF90EF90DF90CF90BF90AF9008956F
:103AB0000284F385E02D4B835C8369837A830995C7
:103AC000D501ED91FC910488F589E02D96014B819B
:103AD0005C8169817A81C5010995D501ED91FC91DF
:103AE0000688F789E02DC5010F900F900F900F9079
:103AF000DF91CF911F910F91FF90EF90DF90CF90CA
:103B0000BF90AF900994EF92FF920F931F93DC0147
:103B1000ED91FC9111971A960D911C911B97189697
:103B20002D913C91199700A0F1A1E02D7B0140E07F
:103B300050E060E070E009951F910F91FF90EF90C9
:103B400008954F925F926F927F928F929F92AF9261
:103B5000BF92CF92DF92EF92FF920F931F93CF937A
:103B6000DF9300D0CDB7DEB76C015A0139014801AF
:103B7000DC01ED91FC910284F385E02D69837A8369
:103B800009956981462E7A81572E640C751CD601E1
:103B9000ED91FC91461457046CF40088F189E02DF6
:103BA00087019401A501B201C6010995BFEF4B1A27
:103BB0005B0AEDCF0688F789E02DC6010F900F90C4
:103BC000DF91CF911F910F91FF90EF90DF90CF90F9
:103BD000BF90AF909F908F907F906F905F904F902D
:103BE0000994AF92BF92CF92DF92EF92FF920F9320
:103BF0001F93CF93DF9300D000D0CDB7DEB75C0129
:103C00006901DC01ED91FC910284F385E02D4B8389
:103C10005C8369837A830995D501ED91FC91698173
:103C20007A819B012C0D3D1D215031090488F589B5
:103C3000E02D78014B815C818A01C5010995D50190
:103C4000ED91FC910688F789E02DC5010F900F904A
:103C50000F900F90DF91CF911F910F91FF90EF90F8
:103C6000DF90CF90BF90AF900994AF92BF92CF9268
:103C7000DF92EF92FF920F931F93CF93DF9300D0C9
:103C800000D0CDB7DEB75C016901DC01ED91FC919C
:103C90000284F385E02D4B835C8369837A830995E5
:103CA000D501ED91FC914B815C81C40ED51EB1E034
:103CB000CB1AD1080488F589E02D78018601698145
:103CC0007A819B01C5010995D501ED91FC9106888A
:103CD000F789E02DC5010F900F900F900F90DF91A5
:103CE000CF911F910F91FF90EF90DF90CF90BF90F9
:103CF000AF9009940895EF92FF920F931F93DC0108
:103D0000ED91FC9100A0F1A1E02D09951F910F917B
:103D1000FF90EF9008950F931F93DC01ED91FC91BC
:103D2000068CF78DE02D09951F910F9108950F9343
:103D30001F93DC01ED91FC91048CF58DE02D09952C
:103D40001F910F910895DC01ED91FC910084F185A4
:103D5000E02D099408952F923F924F925F926F92B7
:103D60007F928F929F92AF92BF92CF92DF92EF920B
:103D7000FF920F931F93CF93DF9300D01F92CDB785
:103D8000DEB74C017B836A836A01590117019801F0
:103D9000241B350B37FF03C0319521953109C5012F
:103DA0004A815B81841B950B97FF03C09195819598
:103DB000910951E059838217930714F019820BC0BF
:103DC0009A2D8B2D5801092F182F9A818B81DB8218
:103DD000CA82C92ED82E8A819B81A816B9065CF4A6
:103DE0009C2D8D2D6801092F182F9A818B81BB8204
:103DF000AA82A92EB82E2501AA81BB814A1A5B0A84
:103E000038016C187D0877FE03C0719461947108C5
:103E1000720157FE03C0BFEFEB1AFB0AF594E7945B
:103E2000C016D1061CF00FEF1FEF1FC001E010E01D
:103E30001CC0D401ED91FC91B9810484F585E02D7D
:103E40009101BB23C1F04A815B81B601C401099590
:103E5000E618F708F7FE04C0C00ED11EE40CF51CEE
:103E6000EA81FB813196FB83EA834A815B81A41658
:103E7000B506FCF604C0A6016A817B81E7CF0F90EE
:103E80000F900F90DF91CF911F910F91FF90EF90C6
:103E9000DF90CF90BF90AF909F908F907F906F906A
:103EA0005F904F903F902F900895089580E090E0AC
:103EB0000895FF920F931F93CF93DF9300D000D00C
:103EC000CDB7DEB70E94A417FC0197FD11C08D325B
:103ED000910591F0C0970A9778F0E0917804F091FD
:103EE00079040284F385E02D88E794E00995EACF10
:103EF00060E070E0CB014CC020E030E0A901F12C83
:103F0000E130F105F1F0ED32F105C9F0CF01C097D4
:103F10000A97B8F4AAE0B0E00E942E3B8F01FF0F91
:103F2000220B330BDC01CB01800F911FA21FB31FAB
:103F30009C01AD01205331094109510902C0FF2400
:103F4000F394E0917804F09179040284F385E02DF4
:103F500088E794E029833A834B835C8309950E9428
:103F6000A417FC01C09729813A814B815C810A9793
:103F700038F2E130F10521F2FF2041F06627772782
:103F8000CB01621B730B840B950B02C0CA01B901F4
:103F90000F900F900F900F90DF91CF911F910F9185
:103FA000FF900895CF93DF93EC0161E085E00E94DC
:103FB000A205209711F460E004C0CF3FD10531F491
:103FC00061E085E0DF91CF910C947205E5E0F3E0CC
:103FD000E491E330F9F048F4E130B9F0E230A1F5D2
:103FE00084B5806284BDC8BD34C0E730E9F0E830F4
:103FF00019F1E43049F5809180008062809380005F
:10400000D0938B00C0938A0024C084B5806884BD9F
:10401000C7BD1FC080918000806880938000D093CE
:104020008900C093880015C08091B000806880939B
:10403000B000C093B3000DC08091B0008062809347
:10404000B000C093B40005C0C038D1050CF0B8CFA3
:10405000B2CFDF91CF910895CF93DF93242FAB019F
:10406000BC0182E695E00E94FB03EC0162E773E08D
:1040700082E695E00E949D038C0F9D1FDF91CF91FA
:104080000895CF93DF93AC01990F660B770B82E60F
:1040900095E00E943117EC0162E773E082E695E05B
:1040A0000E949D038C0F9D1FDF91CF910895CF93A8
:1040B000DF93CDB7DEB760970FB6F894DEBF0FBEC3
:1040C000CDBF789484B5826084BD84B5816084BDA1
:1040D00085B5826085BD85B5816085BD80916E00A6
:1040E000816080936E0010928100809181008260D7
:1040F0008093810080918100816080938100809114
:1041000080008160809380008091B1008460809302
:10411000B1008091B00081608093B00080917A00FE
:10412000846080937A0080917A00826080937A0024
:1041300080917A00816080937A0080917A00806813
:1041400080937A001092C100E0918804F091890474
:1041500082E08083E0918404F09185041082E091F4
:104160008604F09187048FEC808310929004E09194
:104170008C04F0918D0486E08083E0918A04F091B4
:104180008B04808180618083E0918A04F0918B04AC
:10419000808188608083E0918A04F0918B04808123
:1041A00080688083E0918A04F0918B0480818F7D08
:1041B000808382E390E0A0E0B0E080937C04909361
:1041C0007D04A0937E04B0937F0461E085E00E94AB
:1041D000A20580E090E00E94D21F62E086E00E948B
:1041E000A20562E087E00E94A20562E088E00E94EA
:1041F000A2058EEF90E00E94FB3A029718F085EE40
:1042000092E002C086E296E090930D0180930C014B
:1042100082E090E00E94960662E080E10E94A205A2
:1042200060E081E10E94A20562E084E10E94A205B3
:1042300062E085E10E94A20562E084E00E94A2059E
:1042400062E089E00E94A20562E08AE00E94A20585
:1042500062E08BE00E94A20562E08CE00E94A20571
:1042600062E08DE00E94A2050E94250F0E94421686
:1042700080E090E00E94FB3A8A33904309F0BCC092
:1042800084E090E00E941F076093F7037093F803A7
:104290008093F9039093FA0388E090E00E941F074F
:1042A0006093DE037093DF038093E0039093E10358
:1042B0008CE090E00E941F076093F3037093F40377
:1042C0008093F5039093F60384E190E00E941F072A
:1042D0006093EF037093F0038093F1039093F203E4
:1042E00088E190E00E941F076093FB037093FC033A
:1042F0008093FD039093FE0380E190E00E941F07EE
:104300006093CB037093CC038093CD039093CE0343
:104310008CE190E00E941F076093E7037093E8032D
:104320008093E9039093EA038CE390E00E941F07D7
:104330006093EB037093EC038093ED039093EE0393
:1043400080E290E00E941F076093E3037093E40310
:104350008093E5039093E60384E290E00E941F07B8
:104360006093C7037093C8038093C9039093CA03F3
:1043700088E290E00E941F076093D5037093D603F4
:104380008093D7039093D8038CE290E00E941F079C
:104390006093CF037093D0038093D1039093D203A3
:1043A0001092BC000E94FE1580E28093B8004498F1
:1043B00045988EE190E090937704809376040E9474
:1043C00085110E9485110E9485116B017C0180E39B
:1043D00090E00E941F0720E030E040E050E40E949F
:1043E0006B3B9B01AC01C701B6010E947F3C1816D4
:1043F00024F40E94200801C0FFCF80E00E94DE0567
:10440000BC01990F880B990B0E94C6392AE037ED41
:1044100043EA5BE30E94253A6093410570934205AD
:10442000809343059093440581E00E94DE05BC0122
:10443000990F880B990B0E94C6392AE037ED43EAA1
:104440005BE30E94253A6093390570933A058093A7
:104450003B0590933C0561E070E088E690E00E94A7
:10446000B21684E591E00E94FB3A892B39F080E78F
:1044700090E00E94FB3A892B09F406C1F894A895B4
:10448000809160008861809360008EE4809360007A
:10449000789460E070E080E790E00E94B216A89502
:1044A00088E794E00E94110202970CF497C00E94E2
:1044B000591F6437774109F091C01092E2031092BE
:1044C00003010E94591FCB01770FAA0BBB0BFC0104
:1044D0003197E930F10508F081C0EC5CFF4F0C9496
:1044E000463D0E94591F6B017C0163E673E088E73B
:1044F00094E00E949D03C6010E947817C6010E94A5
:10450000FB3AAC0160E070E02AE088E794E00E94AA
:10451000B2036EE873E04FC00E94591F6B017C012B
:104520008B010E94591F0430110519F00C3211053E
:1045300061F4072E000C880B990B0E94C639AB0161
:10454000BC01C6010E94EF1649C0C114D10409F490
:1045500045C0960121703327232B09F03FC0C601C7
:104560000E94B2163BC00E941A0660931304709317
:1045700014048093150490931604109202012EC027
:104580000E94DA072BC00E94200828C068E673E06A
:1045900088E794E00E949D0308EC10E0C8010E94A7
:1045A000FB3A0E948E170E5F1F4F011542E0140761
:1045B000A9F76DE673E088E794E00E94DD040EC081
:1045C0000E9481100BC081E08093E2030E94521090
:1045D00005C081E08093E2030E94F0060E94F01182
:1045E0006B017C0120E030E0A9010E94BF3987FF08
:1045F00003C0C12CD12C7601C0929805D0929905A8
:10460000E0929A05F0929B05A701960160919005B2
:104610007091910580919205909193050E946A3B5B
:104620006B017C0120E030E0A9010E947F3C18165C
:1046300024F0F7FAF094F7F8F09488E391E00E9400
:10464000FB3ABC0180E090E00E94C4399B01AC01C0
:10465000C701B6010E947F3C87FD1DC080E391E049
:104660000E94FB3A6C018EE291E00E94FB3A8C01C1
:104670008CE291E00E94FB3A7C0121E030E0309333
:10468000A9052093A8051CC061E070E086E591E0D3
:104690000E94B216F3CE86E391E00E94FB3A6C01D1
:1046A00084E391E00E94FB3A8C0182E391E00E9456
:1046B000FB3A7C0141E050E05093A9054093A805E6
:1046C00081E08093C9056091BC057091BD05809122
:1046D000BE059091BF050E94C43920E030E04AE752
:1046E00054E40E94D73B4B015C01B70180E090E0AD
:1046F0000E94C43920E030E44CE156E40E94D73BEC
:1047000060939C0570939D0580939E0590939F05F3
:10471000B80180E090E00E94C43920E030E04AE730
:1047200054E40E94D73BA50194010E94253A60936E
:10473000A0057093A1058093A2059093A305B601EF
:1047400080E090E00E94C43920E030E543EC57E47B
:104750000E94D73BA50194010E94D73B6093A4051A
:104760007093A5058093A6059093A7058091C80531
:10477000882309F43DC10E941A066D837E838F83CE
:1047800098878091B0059091B105A091B205B09144
:10479000B3054D815E816F817885481B590B6A0B8B
:1047A0007B0B8091BC059091BD05A091BE05B09199
:1047B000BF05481759076A077B0708F419C12091FC
:1047C000AA053091AB05D9018D919D910D90BC91B9
:1047D000A02D89839A83AB83BC83E091AE05F091D1
:1047E000AF059C01AD0160817181828193810E943E
:1047F0006A3B4B015C012091B8053091B9054091AD
:10480000BA055091BB0569817A818B819C810E9498
:104810006A3B6B017C012091A0053091A10540917C
:10482000A2055091A305C501B4010E94253A20912B
:10483000B4053091B5054091B6055091B7050E9479
:104840006B3B2B013C016093B4057093B5058093DD
:10485000B6059093B7053090C90531101AC0209164
:104860009C0530919D0540919E0550919F05C70183
:10487000B6010E94253A9B01AC01C301B2010E941E
:104880006A3B6093B4057093B5058093B605909329
:10489000B7054090B4055090B5056090B60570908E
:1048A000B7050091C4051091C505B091C605BD8737
:1048B0002090C70598014B2F522DC301B2010E94D1
:1048C0007F3C181624F4C801AD85B22D16C0209186
:1048D000C0053091C1054091C2055091C30529879B
:1048E0003A874B875C87C301B2010E94BF3987FFBB
:1048F0000CC089859A85AB85BC858093B40590935F
:10490000B505A093B605B093B705332079F0209193
:104910009C0530919D0540919E0550919F05C501D4
:10492000B4010E94253A4B015C0103C0812C912CFB
:1049300054012091A4053091A5054091A605509100
:10494000A705C701B6010E94253A9B01AC01609101
:10495000B4057091B5058091B6059091B7050E9498
:104960006A3B9B01AC01C501B4010E946B3B6B012A
:104970007C0198014D85522D0E947F3C1816ACF0A9
:104980000091C0051091C1059091C2059D872090AE
:10499000C3059801492F522DB601C7010E94BF39A6
:1049A00087FD03C08601ED862F2CE091AC05F091C8
:1049B000AD05C801AD85B22D80839183A283B383F9
:1049C00029813A814B815C812093B8053093B905E8
:1049D0004093BA055093BB058D819E81AF81B88508
:1049E0008093B0059093B105A093B205B093B30541
:1049F0006091940570919505809196059091970529
:104A00000E94493C709305046093040482EE90E098
:104A10000E94FB3A7C0184EE90E00E94FB3A8C01FC
:104A200086EE90E00E94FB3A6C0188EE90E00E94D6
:104A3000FB3AACE3EA16F10448F02701B9E7EB16BC
:104A4000F10438F0F8E74F2E512C03C0ECE34E2E62
:104A5000512C0C32E1E01E0750F01E830D830F3AFB
:104A6000114048F02EEA31E03E832D8304C04CE231
:104A700051E05E834D8356E4C516D10458F0D88AC0
:104A8000CF86D601A739B10548F0E6E9F0E0F88B0A
:104A9000EF8704C026E430E0388B2F878C3231E07A
:104AA000930748F01C018F3A914048F07EEA272E88
:104AB0003324339404C06CE2262E33243394B201A1
:104AC00080E090E00E94C43920E030E048EC52E4FD
:104AD0000E94D73B20E030E04FE753E40E94253AA4
:104AE00020E030E048E950E40E94D73B0E94493C76
:104AF0006B017C010E9405129A87898711E08F85DE
:104B000098890596A985BA858A179B070CF010E04D
:104B100088EC90E00E94FB3A2091E203222319F0F6
:104B200011111092E20320910301211105C011110E
:104B300003C021E02093030120912F04222309F4D4
:104B4000F1C001973C01660C771C86E591E00E945C
:104B5000FB3AB1E0B983892B09F4198260913105E0
:104B60007091320580913305909134052091E203D4
:104B7000222311F40C941331E981E1110C942931B1
:104B80006091C0037091C1038091C2039091C303EF
:104B90000E94503C4B015C018AE491E00E94FB3A88
:104BA0007C0186E491E00E94FB3A8C0184E491E070
:104BB0000E94FB3A9C01A7014E32510510F04DE2D4
:104BC00050E065E070E0C4010E9417126C0182E4BD
:104BD00091E00E94FB3A3C018EE391E00E94FB3A97
:104BE0008C018AE0889D7001899DF00C1124570189
:104BF00092E3A91AB10820E030E040E251E460916C
:104C0000FF037091000480910104909102040E94BE
:104C1000253A0E94493CDC01CB0124E630E0A701A3
:104C2000B5010E94171201E010E09301A301BC013D
:104C300080910E0190910F010E9468128C01909357
:104C40000F0180930E0188E491E00E94FB3A7C0101
:104C5000B601A1EDCA16A7E0DA0610F060ED77E024
:104C600080E090E00E94C4394B015C01B801110F53
:104C7000880B990B0E94C63920E030E048EC52E4E2
:104C80000E94D73B9B01AC01C501B4010E94253AAB
:104C90000E94493C4B015C01609190057091910527
:104CA00080919205909193050E94493CDC01CB01D3
:104CB00002E010E09701A701B4010E946812BC0154
:104CC000990F880B990B0E94C639609390057093D9
:104CD0009105809392059093930520E030E040EA9F
:104CE00050E46091900570919105809192059091AA
:104CF00093050E94BF3987FF10C01092B40510922F
:104D0000B5051092B6051092B7051092B80510922D
:104D1000B9051092BA051092BB05809104049091D8
:104D200005042DC020E030E44CE956E420939805BA
:104D30003093990540939A0550939B0510929005E6
:104D40001092910510929205109293051092B4055D
:104D50001092B5051092B6051092B7051092B805DD
:104D60001092B9051092BA051092BB051092E20399
:104D700040E550E05093010140930001C6010E94BC
:104D8000D21F86E00E94490511E0892B09F010E04E
:104D900087E00E944905FF24F394892B09F0F12C48
:104DA0000E94D01001E08536910508F400E0809162
:104DB0000D04112391F0FF2081F0811153C081E097
:104DC00080930D0480930C0480930B0480930A0459
:104DD000809309040E94DA1045C0882309F440C07A
:104DE0000E94250F8CE091E00E94FB3A2091DD03A8
:104DF000892BB1F4211114C09091060481E0892718
:104E0000809306048091120190911301019711F093
:104E10000C943C3182E090E0909313018093120156
:104E200080910704222369F081110BC01092DD03E9
:104E300010920604A1E0B0E0B0931301A093120118
:104E400003C081111092070410920D0410920C04FB
:104E500010920B0410920A04109209040E94DA10B6
:104E6000112361F080910A04811112C0002381F0A6
:104E700081E080930A040E94DA100AC080910A043B
:104E8000882331F080910904882311F40C94403177
:104E900080910C04FF2051F0811110C0002371F0AB
:104EA00081E080930C040E94DA1008C0882331F05E
:104EB00080910B04882311F40C949B3180910D0494
:104EC000882371F00E94D010813D974048F0809176
:104ED000DD03811105C081E08093DD038093070429
:104EE00080910A04112369F18823A9F180910904B2
:104EF000811131C00E94D010853F914060F10E9425
:104F0000DA1081E0809309048091E20381110E940C
:104F1000F0068091DD038823F1F0809110019091DB
:104F20001101893091052CF4019690931101809321
:104F300010010E94DA101092090481E080930804A5
:104F40000AC0882341F080910904882321F010923F
:104F50000A041092090480910C04FF2009F476C021
:104F6000882309F47DC080910B04811179C00E94CF
:104F7000D010853F914008F473C081E080930B040A
:104F80000E94DA108091DD03811102C00E9481101D
:104F90000E9452108091120190911301019799F48F
:104FA00080911401882379F086E591E00E94FB3A14
:104FB000892B19F060E070E002C061E070E086E5E6
:104FC00091E00E94B2168091120190911301029714
:104FD00031F48091DD03811102C00E94DA07209133
:104FE0001201309113018091DD032330310579F4F2
:104FF000811114C00E941A06609313047093140464
:1050000080931504909316041092020107C0243077
:10501000310521F4811102C00E9420088091DD0336
:105020008823F1F080911001909111018230910557
:105030002CF0019790931101809310010E94DA10D7
:1050400010920B0481E0809308040AC0882341F089
:1050500080910B04882321F010920C0410920B0411
:105060000E941A06009134041091350420913604F0
:1050700030913704DC01CB01801B910BA20BB30BE9
:1050800085369105A105B10508F4EEC180E00E94C6
:105090000C15BC0180E090E00E94C43926EA3BE98F
:1050A00044E459E30E94253AAB01BC018DE495E04C
:1050B0000E94D4128091510590915205A091530500
:1050C000B09154058093040190930501A0930601CB
:1050D000B09307010E941A06009113041091140462
:1050E0002091150430911604DC01CB01801B910B3B
:1050F000A20BB30B21E02093120488389341A10541
:10510000B10590F520E030E04AEF53E4609151059D
:105110007091520580915305909154050E94253A53
:105120002091590530915A0540915B0550915C05DD
:105130000E946A3B20910E0430910F0440911004AC
:10514000509111040E946B3B20E030E040E05FE3AF
:105150000E94253A60930E0470930F04809310040C
:10516000909311041092120480911204882399F0F4
:105170008091020181110FC081E080930201409172
:105180000E0450910F04609110047091110484E694
:1051900090E00E94EF1688E00E9449058C018EE0A5
:1051A00091E00E94FB3A21E030E0012B11F420E075
:1051B00030E028173907E1F481E0809314018AEE8A
:1051C00090E00E94FB3A892BA9F020E030E040E417
:1051D00050E46091FF03709100048091010490916C
:1051E00002040E94BF3987FF02C00C94F73102C04D
:1051F0001092140120E030E040E85AE3609104018D
:105200007091050180910601909107010E94253A55
:105210006B017C0180E00E94DE05BC01990F880BC8
:10522000990B0E94C6399B01AC01C701B6010E94CF
:10523000253AAB01BC018DE395E00E94D41281E0D8
:105240000E94DE05BC01990F880B990B0E94C6399C
:105250009B01AC01C701B6010E94253AAB01BC011C
:1052600085E395E00E94D4120E94F4108C018EE137
:1052700091E00E94FB3A8017910754F00E94E510DC
:105280008C0180E291E00E94FB3A801791072CF498
:105290008091080181110C94FB31809108018111EA
:1052A00018C00E94F4108C018EE191E00E94FB3A3C
:1052B0000A97081719076CF40E94E5108C0180E228
:1052C00091E00E94FB3A0A970817190714F40C940E
:1052D000FF3188EC90E00E94FB3A8C0183E00E9451
:1052E0000C155C010E94C0116B017C018EEC90E0FA
:1052F0000E94FB3ABC0180E090E00E94C43920E0AB
:1053000030E040E251E40E94D73B9B01AC01C70171
:10531000B6010E947F3C87FF02C00C94043280914A
:105320000801882311F40C94043280911401811136
:105330000C9404321016110614F00C9404320E94DE
:1053400003116B017C018AED90E00E94FB3ABC01E5
:1053500080E090E00E94C4399B01AC015058C70125
:10536000B6010E947F3C87FF02C00C9404328CEE91
:1053700090E00E94FB3A8C01B50180E090E00E9431
:10538000C4392AE939E949E95CE30E94253A0E94D7
:10539000493C6017710710F00C94043281E080934F
:1053A0002F0481E10E94DE056C0184EC91E00E94F3
:1053B000FB3A8C0182EC91E00E94FB3A7C0180EC8C
:1053C00091E00E94FB3A20E030E0A701BC01C60159
:1053D0000E941712BC01990F880B990B0E94C639C5
:1053E000AB01BC018DE195E00E94D41260913105C2
:1053F0007091320580913305909134050E94493CAB
:10540000072E000C880B990B0E94C63920912105AC
:105410003091220540912305509124050E94253AA0
:1054200020E030E04CE552E40E94D73BAB01BC01E8
:1054300085E195E00E94D4120E94FB0A81110AC006
:105440000E941A0660932304709324048093250419
:10545000909326040E941A066093340470933504D6
:1054600080933604909337040E941A06C090170464
:10547000D0901804E0901904F0901A04DC01CB01DC
:105480008C199D09AE09BF094F97A105B10508F414
:1054900044C08091C603882309F43FC010920901DB
:1054A0001092C60346E256E050930D0140930C0162
:1054B00082E090E00E9496068CEF90E00E94FB3A1A
:1054C0000091C4031091C503BC0180E090E00E94EC
:1054D000C43926E33DEC4BE550E40E94253A4B01EC
:1054E0005C01B801110F880B990B0E94C6399B0112
:1054F000AC01C501B4010E94D73BAB01BC0185E200
:1055000095E00E94D4120E941A0660931F047093C3
:10551000200480932104909322040E941A068B0198
:105520000C191D090F31110508F432C10E941A0629
:1055300060931704709318048093190490931A04CD
:1055400082E00E940C15BC0180E090E00E94C4390A
:1055500020E030E040E45EE30E94253A0E94493CAE
:10556000072E000C880B990B0E94C639AB01BC01B9
:1055700085E495E00E94D41281E00E940C15BC01E4
:1055800080E090E00E94C43920E030E040E45EE337
:105590000E94253AAB01BC0185E595E00E94D4123A
:1055A0000E9403112B013C010E94F0116B017C0150
:1055B0002091EB033091EC034091ED035091EE0309
:1055C000C301B2010E947F3C18162CF50E941A06F6
:1055D0006938734181059105F0F04092EB035092D8
:1055E000EC036092ED037092EE032091E70330919B
:1055F000E8034091E9035091EA03C701B6010E9414
:105600007F3C181644F4C092E703D092E803E0927E
:10561000E903F092EA03B80180E090E00E94C43907
:105620004B015C019B01AC01C301B2010E94253A10
:1056300069837A838B839C8320E030E041E655E4E4
:105640000E94D73B2091E3033091E4034091E503AE
:105650005091E6030E946B3B2B013C0120E030E0BF
:10566000A9010E94BF3987FD09C04092E30350920F
:10567000E4036092E5037092E60308C01092E3032E
:105680001092E4031092E5031092E603A501940141
:10569000C701B6010E94253A20E03AEB4BE55AE4F7
:1056A0000E94D73B4B015C012091DE033091DF0368
:1056B0004091E0035091E1030E946B3B2B013C01C0
:1056C00020E030E0A9010E94BF3987FD09C0409267
:1056D000DE035092DF036092E0037092E10308C0A2
:1056E0001092DE031092DF031092E0031092E103A8
:1056F00020E030E0A901C701B6010E947F3C1816E6
:105700000CF046C020E03AEB4BE55AE469817A811F
:105710008B819C810E94D73B9B01AC016091CF03A0
:105720007091D0038091D1039091D2030E946B3B82
:105730006093CF037093D0038093D1039093D203EF
:10574000A50194016091CB037091CC038091CD03AE
:105750009091CE030E946B3B6093CB037093CC037C
:105760008093CD039093CE03A50194016091C7036C
:105770007091C8038091C9039091CA030E946B3B4A
:105780006093C7037093C8038093C9039093CA03BF
:105790000E941A0620911B0430911C046B01C21A4E
:1057A000D30A8AEFC816D1040CF485C10E941A06E8
:1057B00060931B0470931C0480931D0490931E043B
:1057C0008EEF90E00E94FB3A0D2C000CEE08FF08D3
:1057D000029708F49FC00091D3031091D403109254
:1057E000D4031092D30385EE92E090930D01809341
:1057F0000C0182E090E00E949606B80180E090E003
:105800000E94C4394B015C01C701B6010E94C63930
:105810009B01AC0160E070E08AE794E40E94D73B12
:105820009B01AC01C501B4010E94253A2B013C014A
:105830008EEF90E00E94FB3A4C0180E091E00E94E4
:10584000FB3A5C018CEF90E00E94FB3A8C01B401C2
:105850007695679580E090E00E94C4399B01AC0189
:10586000C301B2010E94D73B20E030E040E752E4A0
:105870000E94253A20E030E04AE754E40E94D73BFA
:105880002B013C01B50180E090E00E94C43920E08A
:1058900030E040E251E40E94D73B9B01AC01C301E0
:1058A000B2010E94D73B20E030E040E752E40E9482
:1058B000253A4B015C01B80180E090E00E94C439B8
:1058C00020E030E443E854E40E94D73B9B01AC0164
:1058D000C501B4010E94253A4B015C01AB01BC013A
:1058E00085E295E00E94D41220E030E040E85FE3DA
:1058F000C501B4010E947F3C181664F4109209019E
:105900000E941A0660931F04709320048093210460
:10591000909322048090290590902A05A0902B0551
:10592000B0902C058092FF0390920004A092010495
:10593000B09202048AEF90E00E94FB3A892B81F03A
:105940002BED39EF4EE15FE3C501B4010E94253A2A
:105950006093FF037093000480930104909302040A
:105960008090FF0390900004A0900104B090020486
:105970002091F3033091F4034091F5035091F60325
:10598000C501B4010E947F3C181644F48092F303D1
:105990009092F403A092F503B092F603C701B6010A
:1059A0000E94C6392B013C0120E030E041E655E47D
:1059B000C501B4010E94D73B6B017C0120E030E0BF
:1059C0004AE754E4C301B2010E94D73B9B01AC01FA
:1059D000C701B6010E94253A6B017C012091F703B3
:1059E0003091F8034091F9035091FA030E946B3B08
:1059F0004B015C0120E030E543E457E40E947F3C2A
:105A000018164CF08092F7039092F803A092F903D5
:105A1000B092FA0308C01092F7031092F8031092A4
:105A2000F9031092FA03A70196016091FB037091AC
:105A3000FC038091FD039091FE030E946B3B6093F9
:105A4000FB037093FC038093FD039093FE03A70177
:105A500096016091D5037091D6038091D703909100
:105A6000D8030E946B3B6093D5037093D603809359
:105A7000D7039093D8038091090181111CC020E0C5
:105A800030E64AE657E4C301B2010E94D73B9B01CE
:105A9000AC016091EF037091F0038091F10390915C
:105AA000F2030E946B3B6093EF037093F0038093CB
:105AB000F1039093F2038EEF90E00E94FB3A02977D
:105AC00028F088EEE82E83E0F82E04C004ECE02EE7
:105AD00009E0F02E0E941A0600911F041091200484
